:100000000C941A250C9400000C9400000C94000031
:100010000C9400000C9400000C9400000C94E42458
:100020000C9400000C9400000C9400000C94000050
:100030000C9400000C9400250C9400000C9400001B
:100040000C9400000C9400000C9400000C94000030
:040050000C9400000C
:104A3400BFE5BDBFB8E0BEBF0E94F2262F923F92F1
:104A440085DEBFE72B2EB6E13B2E0DDFA0DF3F90C6
:044A54002F90FFCFD1
:104750002F923F924F925F926F927F928F929F9291
:10476000BFEFB7BB08B30F5F08BBB0E86B2EB5E275
:104770007B2EB0E08B2E9B2EB3E05B2EB2E04B2E57
:10478000B8E32B2EB0E03B2EB0E0BF93FBDCADB71F
:10479000BEB71196ADBFBEBFBAB3B064BABBB1B3BA
:1047A000BB7FB1BBBAB3B062BABBB1B3BF7EB1BB62
:1047B000BAB3BF77BABBB3E3B9B9B0E0B0BDB2DA50
:1047C00025E01FE002EF0A95F1F71A95E1F72A9527
:1047D000D1F7BAB1B068BAB90FB700680FBFC3DC80
:1047E000A9DDB1E02B2EBDDEBCE02B2EBADEBEE88B
:1047F0004B2EB1E05B2EB1E03B2EB1E02B2ED4DA94
:104800009F908F907F906F905F904F903F902F90F0
:02481000089509
:10418400CF93DF93CDB7DEB72897CDBFDEBF21969F
:104194004C8520928802309289029101215030404E
:1041A40020938402309385028101025010400093D1
:1041B400860210938702B42D01E0BB2319F0000F8F
:1041C400BA95E9F700938302102F109510937802A3
:1041D400B52D01E0BB2319F0000FBA95E9F7009360
:1041E4007902009500937702F90100810123F90116
:1041F4000083E0918402F09185021081009179029C
:10420400012BE0918402F09185020083B0E0B09329
:104214007502442329F000917502009500937502FC
:1042240000917502003071F0E0918802F0918902EA
:104234001081009177020123E0918802F0918902B4
:1042440000830DC0E0918802F091890210810091F1
:104254007902012BE0918802F0918902008305DA4A
:1042640048EE53E060E070E04FDAA801B9017F93B3
:104274006F935F934F93830194014AE050E060E0B1
:1042840070E042DA4F915F916F917F910C831D83AF
:104294002E833F830C811D812E813F8108831983E6
:1042A4002A833B837F936F935F934F938A019B0190
:1042B4004C815D816E817F81DDD989019A014F91A5
:1042C4005F916F917F91C801012F10E0B02FB12B46
:1042D40011F002E027C0809376028A019B01488195
:1042E40059816A817B81C6D98B019C01488159819E
:1042F4006A817B8175956795579547954017510756
:10430400620773072CF4009176020F5F0093760224
:1043140000917602069500937A02073010F401E0CA
:1043240001C000E02796CDBFDEBFDF91CF91089595
:0043340089
:0A366E0000E41FE120E030E00895C1
:10370C00BB27AA279927882700FF04C0840F951F81
:10371C00A61FB71F440F551F661F771F3695279599
:10372C001795079589F730502040100769F79D01D0
:04373C008C0108955F
:10367800C9019A01AB01B80197FB092E05260ED0A6
:1036880057FD04D014D00AD0001C38F4509540954A
:10369800309521953F4F4F4F5F4F0895F6F790951E
:1036A8008095709561957F4F8F4F9F4F0895A1E248
:1036B8001A2EAA1BBB1BFD010DC0AA1FBB1FEE1FA4
:1036C800FF1FA217B307E407F50720F0A21BB30BEF
:1036D800E40BF50B661F771F881F991F1A9469F76B
:1036E80060957095809590959B01AC01BD01CF01C7
:0236F800089533
:10416600BFB7B068BFBFB0E8BFBDB9E0BEBDBFE175
:0E417600BBBDBFE3BABDB9B7B061B9BF089514
:10433400B0913200BF7BB0933200B0913B00BB7FA1
:10434400B0933B00B0913500BF77B0933500B09186
:104354003500BF7BB0933500B0913500BF7DB0937D
:104364003500B0913500BF7EB0933500B091310077
:10437400B064B0933100B0913A00B460B0933A00A5
:10438400B0913400B061B0933400B0913400B062A5
:10439400B0933400B0913400B064B0933400B09161
:1043A4003400B068B0933400A6D9A5D9A4D9B0918B
:1043B4003500B062B0933500B0913500B061B09370
:1043C4003500B0913200B064B0933200B7D9B091E7
:1043D4003200BF7BB09332008ED9B0913200B0640A
:1043E400B0933200ABD9B0913200BF7BB0933200AE
:1043F40082D9B0913200B064B09332009FD9B091A9
:104404003200BF7BB093320076D9B0913500BF7EC5
:10441400B0933500B0913200B064B09332008ED9BD
:10442400B0913200BF7BB093320065D9B0913200B5
:10443400B064B093320082D9B0913200BF7BB093A4
:104444003200B0913500BF7DB0933500B091350096
:10445400B068B0933500B0913200B064B0933200CC
:104464006DD9B0913200BF7BB093320044D9B09182
:104474003500BF77B0933500B0913500B061B0938B
:104484003500B0913200B064B093320057D9B09186
:104494003200BF7BB0933200B0913500BF7EB09341
:1044A4003500B0913200B064B093320047D9B09176
:1044B4003200BF7BB09332001ED9B0913200B06499
:1044C400B09332003BD9B0913200BF7BB09332003D
:1044D400B0913500B061B0933500B0913200B06452
:1044E400B09332002BD9B0913200BF7BB09332002D
:1044F40002D9B0913500BF7EB0933500B09132003F
:10450400B064B09332001AD9B0913200BF7BB0933B
:104514003200B0913500B068B0933500B0913500E9
:10452400B064B0933500B0913500B062B0933500FB
:10453400B0913500B061B0933500B0913200B064F1
:10454400B0933200FBD8B0913200BF7BB0933200FD
:0E455400D2D8B0918A02B160B0938A02089565
:1036FA001AE303E20A95F1F71A95E1F700000000D0
:02370A00089520
:0C37400002E00A95F1F700000000089577
:1045620027FAB0913500B7F9B093350026FAB09129
:104572003500B6F9B093350025FAB0913500B5F99A
:10458200B093350024FAB0913500B4F9B0933500F8
:10459200B0918A0200903B00E894B0FF689402F860
:1045A20000923B00B0913200B064B0933200C7D8A1
:1045B200B0913200BF7BB093320023FAB091350044
:1045C200B7F9B093350022FAB0913500B6F9B0933D
:1045D200350021FAB0913500B5F9B093350020FAD3
:1045E200B0913500B4F9B0933500B0918A020090D1
:1045F2003B00E894B0FF689402F800923B00B0914F
:104602003200B064B09332009AD8B0913200BF7BCE
:10461200B0933200B0918A02B0FF02C06DD801C0DF
:0446220094D808958B
:0A374C0005E80A95F1F70000089562
:103DA8002F920FC0B0E82B2E19C0B0EC2B2E16C0E6
:103DB800B4E92B2E13C0B4ED2B2E10C0B0E82B2E77
:103DC8000DC0B1E02B1671F3B2E02B1671F3B3E01E
:103DD8002B1671F3B4E02B1671F3F0CF032D0150BD
:103DE800020D202E202EB9D3B0918A02BE7FB09347
:103DF8008A0210E0E12FF0E0E40DF51D00810023B8
:103E080079F0E12FF0E0E40DF51D00811F932F926A
:103E1800202E96DD2F901F91012F0F5F102FEACFD4
:0E3E2800B0918A02B160B0938A022F90089583
:10394800B0918A02BE7FB0938A0207D6B0918A02EC
:08395800B160B0938A020895EA
:103D2400BAEFB0938102B4E1B0938202B7EEB093DC
:103D34007F02BDE1B0938002B9EEB0937B02BDE196
:103D4400B0937C02BEEEB0937D02BDE1B0937E02DF
:103D5400B1B3BE7FB1BBB1B3B260B1BB0AB108614C
:083D64000AB9B6E8B0BD0895EC
:10486A002F923F924F925F926F927F928F929F9276
:10487A002092570130925801B0E88B2EB0E09B2E5F
:10488A00B3E66B2EB0E07B2EBAEF4B2EB4E15B2E73
:10489A00B1E72B2EB9E13B2E2CDB88249924B8EE04
:1048AA004B2EB3E05B2EB0E06B2E7B2EBBEE2B2E95
:1048BA00B0E03B2EB7E1BF93B3E8BF93B0E0BF933C
:1048CA00BF93B0E0BF93BF93CFDAADB7BEB716962A
:1048DA00ADBFBEBF88249924B8EE4B2EB3E05B2E41
:1048EA00B0E06B2E7B2EB3EF2B2EB0E03B2EBBE15C
:1048FA00BF93BEE0BF93B0E0BF93BF93B0E0BF9356
:10490A00BF93B2DAADB7BEB71696ADBFBEBF8824A5
:10491A009924B8EE4B2EB3E05B2EB0E06B2E7B2EC3
:10492A00BDEF2B2EB0E03B2EB0E0BF93BF93B0E0BB
:10493A00BF93BF93B9E1BF93B2E8BF9395DAADB71E
:10494A00BEB71696ADBFBEBFB4E15B2EB0E06B2E0C
:10495A004424BCE32B2EB2E03B2E0E94AB1BB0E0FA
:10496A00B093A30163DAFDD9B0EF2B2EB0E03B2E52
:10497A000E94C01B33D99F908F907F906F905F9059
:08498A004F903F902F9008951B
:103EFC00CF93DF93CDB7DEB76097CDBFDEBF2196F2
:103F0C004F925F926F927F9220928C0230928D0230
:103F1C004092960250929702B0E0B093A602B093F2
:103F2C00A702B093A802B093A902B0E0B093A1028B
:103F3C00B093A202B093A302B093A402B2E3B093E5
:103F4C009D02B0E0B0939E02B0939F02B093A0028A
:103F5C00B0E0B0939902B0939A02B0939B02B093E5
:103F6C009C02B0E0B0939802B0E0B093AA02B0E02B
:103F7C00B093A502B0E0B0938E02B0E0B0938B0288
:103F8C00B0E0B0938F02609294027092950280928E
:103F9C00920290929302B0E0B0939002B09391028F
:103FAC003F922F9244241301582C692CCEDB2F9076
:103FBC003F90B0E0B093AB02B0E0B09398020091A8
:103FCC009802053008F087C000919802202F30E04D
:103FDC00220F331F220F331F220F331F220F331FC9
:103FEC0008E013E0F901E00FF11FB0E0B193B193D9
:103FFC00B193B19300919802202F30E0220F331F20
:10400C00220F331F220F331F220F331F08E013E040
:10401C00020F131FF8013496B0E0B193B193B19332
:10402C00B19300919802202F30E0220F331F220F02
:10403C00331F220F331F220F331F08E013E0020F30
:10404C00131FF8013896B0E0B193B1930091980228
:10405C00202F30E0220F331F220F331F220F331F6C
:10406C00220F331F08E013E0020F131FF8013A96DA
:10407C00B0E0B193B19300919802202F30E0220F61
:10408C00331F220F331F220F331F220F331F08E061
:10409C0013E0020F131FF8013C96B0E0B193B193FB
:1040AC0000919802202F30E0220F331F220F331F74
:1040BC00220F331F220F331F08E013E0020F131FD0
:1040CC00F8013E96B0E0B193B193009198020F5F66
:1040DC000093980274CF3F922F92B0E72B2EB2E050
:1040EC003B2E05DC2F903F90088319832A833B835A
:1040FC00B4EFBC83B1E0BD83B0E0BE83BF83288640
:10410C0039862A863B862C863D862E863F860091F4
:10411C00AB02202F30E0220F331F220F331F220F50
:10412C00331F220F331F08E013E0D901A00FB11F7A
:10413C0010E1FE0101910D931150E1F70091AB02DA
:10414C000F5F0093AB027F906F905F904F902F9614
:0A415C00CDBFDEBFDF91CF910895C3
:10375600A101252D362D052D162D01501040502E78
:10376600612EB22FB32B39F0FA0140828A010F5F26
:0A3776001F4FA801EECF8101089556
:1038FA0061EE70E180E090E0F10181010F5F1F4FFE
:10390A0018010081402F50E0B42FB52BA9F0B5E083
:10391A008B019C01000F111F221F331FBA95D1F78B
:10392A00060F171F281F391F040F151FB0E02B1F82
:0E393A003B1FB801C901E0CF8B019C0108952D
:103E7200CF93DF93CDB7DEB72596288139814A816A
:103E82005B810C811D81B22FB32B29F420918C020E
:103E920030918D0200C0B82DB92921F480908C0296
:103EA20090908D02B42FB52B29F440918C02509141
:103EB2008D0200C0B02FB12B29F400918C02109119
:103EC2008D0200C0B42DB529B629B72939F4B4EF53
:103ED2004B2EB1E05B2EB0E06B2E7B2E1F930F9327
:103EE2005F934F933F932F93A5DCADB7BEB7169662
:0A3EF200ADBFBEBFDF91CF91089570
:10383600CF93DF93CDB7DEB76097CDBFDEBF2196BE
:103846000C891D890C8B1D8B0E891F890E8B1F8B76
:10385600088D198D088F198F3F922F924BD02F907C
:103866003F90088319832A833B834C825D826E8254
:103876007F82888699860C891D890A871B870E890F
:103886001F890C871D87088D198D0E871F8716DDEA
:1038960021E130E0021713070CF026C00091AB02BD
:1038A600053009F421C0DFDCB02FB12B09F01CC0B4
:1038B6000091AB02202F30E0220F331F220F331F5F
:1038C600220F331F220F331F08E013E0D901A00F88
:1038D600B11F10E1FE0101910D931150E1F7009126
:1038E600AB020F5F0093AB022F96CDBFDEBFDF9119
:0438F600CF910895D1
:1032C2009101F90189010F5F1F4F980100810023CD
:1032D20009F0F7CF8901021913090150104008952E
:0032E200EC
:10326C0046D3A801B90100E0802F0091AB02801772
:10327C00F8F4282F30E0220F331F220F331F220FB8
:10328C00331F220F331F08E013E0F901E00FF11F89
:10329C0001911191219131910417150726073707D8
:1032AC0019F4082F10E006C0082F0F5F802FDDCF18
:0632BC0000E010E008959F
:103E3600B0913B00B064B0933B0010ED0AEC0A95DC
:103E4600F1F71A95E1F70000B0913B00BF7BB09304
:103E56003B0010ED0AEC0A95F1F71A95E1F7000020
:0C3E6600B0913B00B064B0933B000895A5
:103D6C002F923F9200916F02002311F4F3DDFACFF2
:103D7C0000912F02002379F4B0E32B2EB2E03B2EFE
:103D8C00F9DC29E216E900E80A95F1F71A95E1F752
:0C3D9C002A95D1F7EDCF3F902F900895AD
:103960002F923F924F925F926F927F9200918E02C0
:10397000002381F1B0E0B093A502B0E0B093AA02B9
:10398000B4E06B2EB3E07B2EB8E54B2EB3E05B2E9C
:10399000209094023090950238DB20909402309071
:1039A0009502E0915803F09159030995B0E0B09366
:1039B0009002B0939102E0919402F0919502B0E0F0
:1039C000B083B0E0B0938B02B0E0B0938E02B0E071
:1039D000B0938F0200918B02002381F1B0E0B0938D
:1039E000A502B0E0B093AA02B4E06B2EB3E07B2E48
:1039F000B8E54B2EB3E05B2E2090940230909502F8
:103A000004DB2090940230909502E0915803F091ED
:103A100059030995B0E0B0939002B0939102E09100
:103A20009402F0919502B0E0B083B0E0B0938B02C5
:103A3000B0E0B0938E02B0E0B0938F027F906F90B1
:0A3A40005F904F903F902F90089583
:10300A00CF93DF93CDB7DEB72F97CDBFDEBF219623
:10301A002F923F92E5EDFDE4DE018FE090E0A3DA26
:10302A008E017F926F925F924F922801EADC4F9055
:10303A005F906F907F90202F0023A9F400911403D2
:10304A0010911503F2010193119300910C03109151
:10305A000D0320910E0330910F03F3010193119395
:10306A0021933193F6C08E012F931801FAD02F9134
:10307A00A801B02FB12BA9F40091140310911503E4
:10308A00F2010193119300910C0310910D03209109
:10309A000E0330910F03F30101931193219331939E
:1030AA00D8C0C9C09A01220F331F220F331F220F23
:1030BA00331F220F331F08E013E0020F131FF8011A
:1030CA003A9601911191F201019311939A01220FFB
:1030DA00331F220F331F220F331F220F331F08E023
:1030EA0013E0020F131FF8013496019111912191F7
:1030FA003191F3010193119321933193AAC09A015B
:10310A00220F331F220F331F220F331F220F331FA9
:10311A0008E013E0020F131FF8013896019111918C
:10312A00F201019311939A01220F331F220F331FC9
:10313A00220F331F220F331F08E013E0020F131F61
:10314A00F80134960191119121913191F301019382
:10315A001193219331937DC09A01220F331F220FBD
:10316A00331F220F331F220F331F08E013E0020F11
:10317A00131FF8013C9601911191F20101931193E9
:10318A009A01220F331F220F331F220F331F220FE0
:10319A00331F08E013E0020F131FF8013496019160
:1031AA00119121913191F30101931193219331935B
:1031BA0050C09A01220F331F220F331F220F331FD1
:1031CA00220F331F08E013E0020F131FF8013E9687
:1031DA0001911191F201019311939A01220F331F68
:1031EA00220F331F220F331F220F331F08E013E071
:1031FA00020F131FF8013496019111912191319117
:10320A00F301019311932193319323C00091160383
:10321A0010911703F2010193119300910C0310917D
:10322A000D0320910E0330910F03F30101931193C3
:10323A00219331930EC0223009F434CF213009F49E
:10324A005ECF233009F488CF243009F4B2CF20307E
:10325A00E9F23F902F902E96CDBFDEBFDF91CF913E
:02326A000895C5
:102A0C00CF93DF93CDB7DEB72F97CDBFDEBF219627
:102A1C002F923F924F925F926F927F9250E060E0C4
:102A2C0040E070E0C1019F938F93E4EAFDE4DE0186
:102A3C008FE090E097DD8F919F911C013CD422E0B8
:102A4C0030E02017310714F000E0C8C08E014F931E
:102A5C005F935F924F92BFE06B2EB0E07B2E2C0108
:102A6C00180185DD4F905F905F914F9120E02F30E2
:102A7C0008F061C08E01E22FF0E0E00FF11F008141
:102A8C00003031F4552311F4022F01C0052F54C02E
:102A9C008E01E22FF0E0E00FF11F00810B3229F4E0
:102AAC00772329F4022F302F01C0372F01C0372F85
:102ABC008E01E22FF0E0E00FF11F00810D3329F4BD
:102ACC00662321F4022F602F00C000C08E01E22F7C
:102ADC00F0E0E00FF11F00810F3329F4442321F4BF
:102AEC00022F402F00C000C08E01E22FF0E0E00F5B
:102AFC00F11F00810D3091F08E01E22FF0E0E00F1C
:102B0C00F11F00810A3051F08E01E22FF0E0E00F4E
:102B1C00F11F00810A3311F0052F05C0552329F44C
:102B2C00332321F0022F502F00C000C0022F0F5F63
:102B3C00202F732F9CCF052F662389F4442379F41F
:102B4C00202F30E0271BB0E03B0B8E01070FB0E0CD
:102B5C001B1F3901120128010ADD04E03FC0662366
:102B6C0089F4442379F0242F30E0271BB0E03B0B91
:102B7C008E01070FB0E01B1F390112012801F7DC91
:102B8C0003E02CC0662389F0442379F4262F30E02F
:102B9C00271BB0E03B0B8E01070FB0E01B1F390168
:102BAC0012012801E4DC02E019C0242F30E021508E
:102BBC003040062F10E00217130779F4262F30E06F
:102BCC00271BB0E03B0B8E01070FB0E01B1F390138
:102BDC0012012801CCDC01E001C000E07F906F9075
:102BEC005F904F903F902F902E96CDBFDEBFDF9120
:042BFC00CF910895D8
:10257A00A101B62DB729B9F08301015010403801E5
:10258A009A018A010F5F1F4FA801F20182010F5FB2
:10259A001F4F28010081F9010083F90100810023FE
:1025AA0009F401C0E6CF93018301015010403801BC
:1025BA00B22FB32B41F0FA01B0E0B0838A010F5F6A
:0A25CA001F4FA801F0CF8101089512
:0A25700005900D920197E1F7089520
:1032E2004F925F92B1E74B2EB2E05B2EBEDC103004
:1032F20009F4003019F0B1E0B0936F025F904F9083
:0233020008952C
:102C6C006F92B0E03B1611F4B0E02B1669F1F10154
:102C7C000081002349F13F922F9212011CD32F9017
:102C8C003F905F924F923F922F92602E9DDC2F903F
:102C9C003F904F905F90103009F4003011F4810197
:102CAC0015C0F201208181010F5F1F4F5F924F927F
:102CBC003F922F92422E18010E94CE042F903F90EB
:102CCC004F905F901801CDCF00E010E06F90089509
:002CDC00F8
:1025D400162D062D0150602E112301F1F101008109
:1025E400003039F0F2011081F1010081011709F482
:1025F4000CC0F1011081F2010081002EB0E01B2E0D
:10260400012F10E0001911090BC081010F5F1F4F4A
:10261400180182010F5F1F4F2801DACF00E010E09C
:02262400089517
:10099C00F1010081041511F481010AC0F1018101FA
:1009AC000F5F1F4F18010081002391F700E010E04A
:0209BC0008959C
:102F06002F923F924F925F926F927F923F922F92B3
:102F16006624BCE34B2EB2E05B2E10DF2F903F9071
:102F260081010E5F1F4FB5EE4B2EB0E05B2E1801F0
:102F36009ADE0E5F1F4FA801B8EE4B2EB0E05B2E57
:102F4600180191DEB801503009F4403081F170303B
:102F560009F4603061F18B01041B150B7F936F93AD
:102F66005F934F9338012A01B3EA2B2EB1E03B2E33
:102F7600AEDF4F915F916F917F919B01241B350BC3
:102F860003EA11E0F901E00FF11FB0E0B083BCE302
:102F96004B2EB2E05B2EB3EA2B2EB1E03B2EE09136
:102FA6005701F09158010995B1E0B09306017F9061
:0C2FB6006F905F904F903F902F90089517
:102D420020E030E05F924F92BAE34B2E0E94CE0415
:102D52004F905F900E5F1F4FA8013F93342F452F76
:102D6200522F2F916620B1F0E52FF0E0E30FF41F10
:102D720000810D3079F0152F052F0F5F502FE12FB5
:102D8200F0E0E30FF41F00810C3219F4062D01501C
:102D9200602EE8CF622FE52FF0E0E30FF41F0081F1
:102DA2000C32D1F0E52FF0E0E30FF41F00810D307B
:102DB20099F0162F20E0140D251DE52FF0E0E30F0A
:102DC200F41F0081E12FF22F0083062F0F5F602F87
:102DD200052F0F5F502FDFCFE62FF0E0E40DF51D3A
:062DE200B0E0B08308958B
:102ED400A201B10193018301015010403801B22FC6
:102EE400B32B69F0FA010081FB0100838B010F5FB2
:102EF4001F4FB8018A010F5F1F4FA801EBCF81015B
:022F040008952E
:102CFE002F923F924F925F923F922F92B1E02B2EE6
:102D0E000E94B122BCE02B2E0E94B122B1E03B2EDC
:102D1E00B1E02B2E0E94D41E2F903F902101B1E0E6
:102D2E003B2EB2E02B2E0E94D41E5F904F903F9010
:042D3E002F90089535
:10361C002F923F924F925F926F923F922F9258DB74
:10362C002F903F90002309F416C06624B3EA4B2E6A
:10363C00B1E05B2E80DBB3EE4B2EB0E05B2EB3EA39
:10364C002B2EB1E03B2ECADB103009F4003019F4FC
:10365C00B1E0B0932F026F905F904F903F902F90FE
:02366C000895BF
:102CDC004F925F92B0E64B2EB0E05B2EC1DF10300E
:102CEC0009F4003011F001E001C000E05F904F905A
:022CFC00089539
:102DE800F1010081002379F0F1011081F2010081E5
:102DF800101749F481010F5F1F4F180182010F5FFF
:102E08001F4F2801EDCFF1011081F2010081002E42
:0E2E1800B0E01B2E012F10E0001911090895E3
:10330400CF93DF93CDB7DEB7C054D040CDBFDEBF7F
:1033140021962F923F924F925F926F927F92E5E0B7
:10332400FDE4DE0118968CE290E020D93F922F92C2
:10333400B1E06B2EB3EA4B2EB1E05B2E00DD8E01C3
:10334400085F1F4FB2E06B2EB0E07B2EB3EA4B2E2A
:10335400B1E05B2E18010FD98E01045F1F4FB2E05C
:103364006B2EB0E07B2EB5EA4B2EB1E05B2E18013C
:1033740002D98E01015F1F4FB4E06B2EB0E07B2EAB
:10338400B8EA4B2EB1E05B2E1801F5D88E01085F28
:103394001F4F180146DD0EAF1FAF8E01045F1F4F94
:1033A40018013FDD0AAF1BAF8E01015F1F4F1801EB
:1033B40038DD20E017FD2FEF322F10DB40E050E422
:1033C4006CE176E40E945E044AAD5BAD0AAF1BAFCC
:1033D4002CAF3DAF8A0120E057FD2FEF322FFEDAEC
:1033E4004AAD5BAD6CAD7DAD0E94BE0140E050E0E6
:1033F40060E772E40E945E044EAD5FAD0AAF1BAF9E
:103404002CAF3DAF8A0120E057FD2FEF322FE6DAD3
:103414004AAD5BAD6CAD7DAD0E94BE012F903F9077
:10342400088319832A833B833F922F92B2E06B2E49
:10343400B3EA4B2EB1E05B2E82DC2F903F900091DB
:10344400A301033589F43F922F92088119812A81BF
:103454003B8140E050E060E87FEB75D82F903F90CF
:10346400088319832A833B833F922F92B3E06B2E08
:10347400B3EA4B2EB1E05B2E62DC8E01085F1F4F76
:10348400B3E06B2EB0E07B2EB3EA4B2EB1E05B2EA3
:10349400180171D88E01045F1F4FB2E06B2EB0E0AB
:1034A4007B2EB6EA4B2EB1E05B2E180164D88E0158
:1034B400015F1F4FB4E06B2EB0E07B2EB9EA4B2EB8
:1034C400B1E05B2E180157D88E01085F1F4F180119
:1034D400A8DC0EAF1FAF8E01045F1F4F1801A1DCE3
:1034E4000AAF1BAF8E01015F1F4F18019ADC20E069
:1034F40017FD2FEF322F72DA40E050E46CE176E4EE
:103504000E945E044AAD5BAD0AAF1BAF2CAF3DAF6A
:103514008A0120E057FD2FEF322F60DA4AAD5BAD10
:103524006CAD7DAD0E94BE0140E050E060E772E406
:103534000E945E044EAD5FAD0AAF1BAF2CAF3DAF32
:103544008A0120E057FD2FEF322F48DA4AAD5BADF8
:103554006CAD7DAD0E94BE012F903F900C831D8306
:103564002E833F83B4E06B2EB3EA4B2EB1E05B2E87
:10357400E6DB0091A301073571F40C811D812E81D6
:103584003F8140E050E060E87FEB0E94A5120C838D
:103594001D832E833F838E010C5E1F4F38012880CC
:1035A40039804A805B805ED88E010C5D1F4F3801E4
:1035B4002C803D804E805F8055D88E010C5D1F4F5E
:1035C40018012FD80AAF1BAF8E010C5E1F4F1801D4
:1035D40028D82AAD3BAD3F932F931F930F93BDE49F
:1035E400BF93B9E5BF93B2E0BF93BCEABF9306DBD8
:1035F400ADB7BEB71896ADBFBEBFB1E0B09333014F
:103604007F906F905F904F903F902F90EF96CDBF3B
:08361400DEBFDF91CF910895A4
:102E2600F1010081402F50E0503009F4403229F082
:102E3600503009F4493009F005C081010F5F1F4F7A
:102E46001801EECF20E030E060E070E0503009F489
:102E56004D3249F48B010F5F1F4FA80181010F5FAF
:102E66001F4F180109C0503009F44B3221F481017B
:102E76000F5F1F4F1801AB01F1010081602F70E059
:102E86003F922F92262E0E94DF042F903F90002320
:102E9600A1F05F934F9389014AE050E00E94A60497
:102EA6004F915F919B0120533040020F131F9801F1
:102EB60081010F5F1F4F1801DFCFB42FB52B29F00B
:0E2EC60000E010E0021B130B01C0890108950B
:1009BE0009E3021528F0B0E32B1610F001E001C098
:0409CE0000E00895A8
:10094C002227002400FF02C0040E251F440F551F50
:10095C004115510529F0169507951050004091F757
:06096C00122F002D08957A
:10266800CF93DF93CDB7DEB72697CDBFDEBF2196D8
:102678002F923F924F925F92B0E0BC83B0E0BD834F
:10268800288239824A825B82088119812A813B81AA
:102698003F3F29F42F3F19F41F3F09F40F3F49F436
:1026A800B9E94B2EB1E05B2E13010E94B90403E097
:1026B80089C161E08E01F8013396008107FF16C0D9
:1026C8008E0198012D5F3F4FF9010081B0E80B277B
:1026D800F9010083062F0F5F202FF301BDE2B083BD
:1026E80083010F5F1F4F3801422F01C0462F088119
:1026F80019812A813B81303029F4203019F41030B7
:1027080009F4003049F4BDE94B2EB1E05B2E13010A
:102718000E94B90400E056C1088119812A813B81D1
:102728003F3729F4203819F4103009F4003059F4EF
:102738004F93BFE94B2EB1E05B2E13010E94B90401
:102748004F91042F3FC15F924F923F922F9240E0EA
:1027580050E060E87FE3088119812A813B810E946B
:10276800E904002800E009F001E02F903F904F9025
:102778005F900023C9F05F924F923F922F92088199
:1027880019812A813B8140E050E060E271E4D9DEA2
:102798002F903F904F905F90088319832A833B8343
:1027A8000D8101500D83CFCF5F924F923F922F92B0
:1027B80040E050E060E271E4088119812A813B81A0
:1027C800CBDE002800E009F001E02F903F904F9009
:1027D8005F900023C9F05F924F923F922F92088139
:1027E80019812A813B814DEC5CEC6CEC7DE3A9DE20
:1027F8002F903F904F905F90088319832A833B83E3
:102808000D810F5F0D83D0CF088119812A813B810B
:10281800000F111F221F331F088319832A833B834C
:102828008E01F801339600810F57402F8E01F80171
:102838003396B1E0B083088119812A813B81B42F96
:10284800BB2331F0000F111F221F331FBA95D1F798
:10285800088319832A833B838E01F801339600810C
:10286800005DF301008383010F5F1F4F38010D8165
:1028780001302CF01D8106E001170CF009C0F301AE
:10288800BEE2B08383010F5F1F4F3801B1E0BC8304
:1028980086E0803009F44BC08E01F8013396B0E031
:1028A800B083088119812A813B81A801B901440FAD
:1028B800551F661F771F440F551F661F771F088116
:1028C80019812A813B81040F151F261F371F088392
:1028D80019832A833B83088119812A813B81000F50
:1028E800111F221F331F088319832A833B838E01FC
:1028F800F80133960081005DF301008383010F5FC7
:102908001F4F38010C81003071F40D8101500D8387
:10291800003049F4F301BEE2B08383010F5F1F4F1B
:102928003801B1E0BC83082F0150802FB2CFF301EA
:1029380031970081003329F4830101501040380198
:10294800F6CFF301319700810E3221F48301015053
:10295800104038010D81003089F1F301B5E6B083EC
:1029680083010F5F1F4F38010D8100305CF4F301C4
:10297800BDE2B08383010F5F1F4F38010D8000E077
:1029880000190D832D811D8109E0011758F4022FCC
:102998004AE00E94F004005DF301008383010F5FA9
:1029A8001F4F3801022F4AE00E94F004092F005DF2
:1029B800F301008383010F5F1F4F3801F301B0E07B
:1029C800B08300E05F904F903F902F902596CDBF49
:0829D800DEBFDF91CF910895ED
:10097200A1019A018A010F5F1F4FA801F2018201B2
:100982000F5F1F4F28010081F9010083F9010081E7
:0A099200002309F0EECF8101089563
:0E09D200ABDC1CF40024039401C00024089543
:0E032A00042E152E262E372E7DDF002308957B
:10022E00D2DF332332F00FDF11F001E003C00027DD
:06023E0001C00FEF08955E
:0601D4006894A3DF08950A
:10011E00F8DF09F441C0E62ED52EC42EB32EA22E42
:10012E00912E802E002D112D222D332DEADF09F474
:10013E003DC0842F952F8C199D09B9F072F49095BE
:10014E00809501964C2D5D2D883180F5359527953E
:10015E00179507950197D1F708C08831E8F4B59443
:10016E00A794979487940197D1F766272EF0080DE0
:10017E00191D2A1D3B1D09C0801A910AA20AB30A35
:10018E00082D192D2A2D3B2D332312F483DF60E821
:10019E008ADF01C075DF16C0002D112D222D332DE3
:1001AE00D6F751DFC1F340E83427F5CF082D192DCE
:1001BE002A2D3B2D4C2D5D2D6E2D33235AF76ADFE4
:0601CE0060E8E8CF08958F
:0E011000A9DF21F0662309F0C4DF989408955A
:10006400F7DF79F0632F6078220F331F432F5FE7A8
:10007400451B55275040269530E8232B3327989469
:0A00840003C044275527662708959E
:10005400002329F4112319F4222309F433230895E6
:000064009C
:1000A20000951095209530950F5F1F4F2F4F3F4FB2
:0200B2000895AF
:1000B400CFDF11F19F938F938EE790E0332351F0BC
:1000C400369527951795079548175907B4F44F5F48
:1000D4005F4FF4CF80959095019622239AF0000FFC
:1000E400111F221F481759071CF041505040F5CFEB
:1000F400002711272227332708C033270FEF102F9B
:0C0104002FE7322F8F919F91C0DF0895EC
:10008E00E2DF39F041585F4F342F220F3695279516
:04009E00362B089560
:10254A00042E152E262E372E0E946804002E112ED8
:06255A00222E332E08952D
:1008D000C9DB81F1E62ED52EC42EB32EA22E912E89
:1008E000802E002D112D222D332DBCDB19F16E250C
:1008F0004C0D5D1D40385307F4F441387FEF570726
:10090000FCF088279927AA27BB2770E2B695A79500
:1009100097958795379527951795079520F4880D16
:10092000991DAA1DBB1D7A9589F7032F3A2F292FF0
:10093000182FC0DB0AC00FEF102F2FE73FE7FACFC9
:0C0940000027102F202F302FF5CF089536
:102560000E9495011CF00024039401C000240895EA
:002570006B
:1009E000992779E004C0991F941708F0941B001F01
:0809F0007A95C9F700950895FE
:102C0000CF93DF93CDB7DEB72297CDBFDEBF21963E
:102C10002F923F924F925F926F927F922E813F81CF
:102C2000FE018E01085F1F4F0E5F1F4F019311932E
:102C30008E013F932F9338014884598419010E94D3
:102C4000FC042F913F91A801F801E20FF31FB0E0BF
:102C5000B0838A017F906F905F904F903F902F904C
:0C2C60002196CDBFDEBFDF91CF9108951B
:1009F800CF93DF93CDB7DEB7A397CDBFDEBF2196E8
:100A0800B0E0B98FBA8FF20182010F5F1F4F280142
:100A180004910A87002311F40C949D120A8505326B
:100A280071F00A85F101008381010F5F1F4F1801E2
:100A3800098D1A8D0F5F1F4F098F1A8FE4CFB0E011
:100A4800BB87BC87B0E0BD87BE8732C00D851E85D9
:100A580008600D871E8782010F5F1F4F28013DC068
:100A68000D851E8501600D871E8782010F5F1F4F50
:100A7800280133C00D851E8502600D871E878201FF
:100A88000F5F1F4F280129C00D851E8518600D872F
:100A98001E8782010F5F1F4F28011FC00D851E850D
:100AA80004600D871E8782010F5F1F4F280115C044
:100AB800F20104910D3251F2F2010491003281F2F7
:100AC800F20104910B32B1F2F20104910332E1F226
:100AD800F2010491003311F301C0B7CF0D851E85D3
:100AE80001FF05C00D851E850E7F0D871E870D85AC
:100AF8001E8503FF05C00D851E850B7F0D871E878C
:100B0800F201049110E03F922F92202E54DF2F9093
:100B18003F90002309F1B0E0BB87BC870B851C859B
:100B28004AE050E00FDFF2012491020FB0E01B1FF2
:100B3800005310400B871C8782010F5F1F4F28014D
:100B4800F801049110E03F922F92202E34DF2F906D
:100B58003F90002319F716C0F20104910A3291F46C
:100B6800F30121913191F901019111910B871C87B2
:100B780089010E5F1F4FF3010193119382010F5FEB
:100B88001F4F2801F20104910E3209F03DC0820185
:100B98000F5F1F4F2801F80104910A3299F4F301FD
:100BA80021913191F90101911191088719878901E2
:100BB8000E5F1F4FF3010193119382010F5F1F4FC7
:100BC800280121C0B0E0B887B987F201049110E08C
:100BD8003F922F92202EEFDE2F903F90002399F026
:100BE800088519854AE050E0ADDEF2012491020F34
:100BF800B0E01B1F005310400887198782010F5F60
:100C08001F4F2801E2CF08C0B0E0B887B9870D852B
:100C18001E8510610D871E87F20182010F5F1F4F2D
:100C2800280104910A87FEC0098D1A8D0C949F1221
:100C38000D851E8500610D871E87EECF0D851E85EB
:100C480014600D871E872FC10D851E8500620D87D4
:100C58001E870D851E8511600D871E8724C10D8591
:100C68001E8512600D871E871EC10D851E850064B6
:100C78000D871E8718C117C10D851E8500620D8757
:100C88001E870D851E8500680D871E870CC1F30120
:100C980001911191F801019111910D8B1E8BF301B6
:100CA800019111910E5F1F4FF301019311930D896B
:100CB8001E89103009F4003021F4B7E8BD8BB1E08B
:100CC800BE8BB0E0BF8BB88F2D893E890F89188DF8
:100CD800F801E20FF31F0081002339F00F89188D06
:100CE8000F5F1F4F0F8B188FEFCF08851985B02F17
:100CF800B12B59F0288539850F89188D20173107B0
:100D080020F4088519850F8B188F2B853C850F8952
:100D1800188D0217130748F40F88188C0B851C854B
:100D2800001911090B871C8703C0B0E0BB87BC877B
:100D38000D851E8503FD19C02B853C850B851C85FB
:100D4800015010400B871C87B22FB32B71F0F101B3
:100D5800B0E2B08381010F5F1F4F1801098D1A8D12
:100D68000F5F1F4F098F1A8FE7CF2F89388D0F8993
:100D7800188D015010400F8B188FB22FB32BB1F084
:100D8800ED89FE890081F101008381010F5F1F4F0A
:100D980018010D891E890F5F1F4F0D8B1E8B098D42
:100DA8001A8D0F5F1F4F098F1A8FDFCF0D851E8594
:100DB80003FF19C02B853C850B851C85015010400D
:100DC8000B871C87B22FB32B71F0F101B0E2B0830F
:100DD80081010F5F1F4F1801098D1A8D0F5F1F4F7B
:100DE800098F1A8FE7CF0FCEF30101911191F80106
:100DF80000810A87F301019111910E5F1F4FF301E2
:100E0800019311938E01065F1F4F0D8B1E8BB1E06E
:100E1800BF8BB0E0B88F69CF0D851E85006C0D873C
:100E28001E8741C00A85003009F4FECE0A850C36BB
:100E380009F4FECE0A850C3409F4FACE0A85063682
:100E480009F4FCCE0A85053409F4FECE0A85053678
:100E580009F4FFCE0A85073609F401CF0A850F3653
:100E680009F403CF0A85043609F405CF0A85093643
:100E780009F401CF0A85003709F4FECE0A85083542
:100E880009F4FACE0A85083709F4FBCE0A85033738
:100E980009F4FDCE0A85033609F4A6CF0A8505377D
:100EA80009F4BACFAFCF0D851E8500701770B02F2B
:100EB800B12B09F4C8C70D851E8514FF04C0B6E020
:100EC800B887B0E0B987F30101911191F801019158
:100ED8001191219131910F87188B298B3A8BF3014E
:100EE800019111910C5F1F4FF301019311933F92F0
:100EF8002F9240E050E060E070E00F851889298962
:100F08003A8963DD002800E009F001E02F903F9066
:100F18000023A9F00F85188929893A89B0E00B27A1
:100F2800B0E01B27B0E02B27B0E83B270F87188BD2
:100F3800298B3A8B0D851E8503600D871E87B0E0CF
:100F4800BB8BBC8B3F922F920F85188929893A89D0
:100F580040E050E060E070E0C1DB002800E009F00C
:100F680001E02F903F90002309F48DC0AE014D5E43
:100F78005F4FFE013F960191119121913191B7E1A7
:100F88003695279517950795BA95D1F710700E578E
:100F98001040FA01019311930B891C8901501040EC
:100FA8000B8B1C8B43E050E0CDDC0B8B1C8B7F92B2
:100FB8006F925F924F923F922F924AE050E009D988
:100FC8008B012F903F904F905F906F907F900B8B8D
:100FD8001C8B20E030E00217130734F40B891C89BE
:100FE800015010400B8B1C8B0B8800E000197F927E
:100FF8006F925F924F923F922F92202EC8D92F90D6
:101008003F904F905F906F907F903F922F924F85C7
:10101800588969897A890E94A5120D8B1E8B2F8B9E
:10102800388F40E050E060E87FE30D891E892F8902
:10103800388DCBDC002800E009F001E02F903F90CC
:10104800002339F00B891C89015010400B8B1C8B35
:101058001AC03F922F9240E050E060E271E40D899F
:101068001E892F89388D0E94B012002800E009F0EF
:1010780001E02F903F90002331F00B891C890F5F0E
:101088001F4F0B8B1C8B2B893C8900E010E002174B
:1010980013071CF0B1E0BA8702C00B890A870D85D7
:1010A8001E8510FD15C00D851E8511FF10C02B89EA
:1010B8003C890CEF1FEF2017310744F02B893C893E
:1010C80008851985201731070CF401C001C059C3E0
:1010D80008851985B02FB12B51F00D851E8511FF9C
:1010E80006C008851985015010400887198728858A
:1010F800398508E010E00217130718F4B8E0BA873A
:1011080002C008850A873F922F920F85188929897E
:101118003A8940E050E060E070E0E0DA002800E062
:1011280009F001E02F903F90002309F4BBC07F92A3
:101138006F925F924F923F922F922B8828D9A801E5
:10114800B9010F85188929893A89B4DB0F87188B6B
:10115800298B3A8B0A8400E00019202E18D9A8019F
:10116800B9010F85188929893A89A4DB2F903F9006
:101178004F905F906F907F900F87188B298B3A8BD9
:1011880075DB02D93F922F92A801B9010F85188902
:1011980029893A89BCD840E050E060E07FE30E94AA
:1011A800B0120028B0E009F0B1E00B2F2F903F906B
:1011B800002389F03F922F920F85188929893A894F
:1011C80040E050E060E07FE3D5D82F903F900F8754
:1011D800188B298B3A8B0F85188929893A8946DB20
:1011E8004A8550E04F5F5F4FBA01660F771F660F61
:1011F800771F41E35DE4FB01E40FF51F459155912D
:10120800659175910417150726073707C8F03F92AF
:101218002F920F85188929893A894DEC5CEC6CEC82
:101228007DE30E94A5122F903F900F87188B298B82
:101238003A8B0B891C890F5F1F4F0B8B1C8B32C09D
:101248000F85188929893A8911DB4A85642F70E04E
:10125800660F771F660F771F41E35DE4FB01E40F1C
:10126800F51F459155916591759104171507260746
:101278003707C0F43F922F920F85188929893A8938
:1012880040E050E060E271E40E94A5122F903F9088
:101298000F87188B298B3A8B0B891C8901501040BA
:1012A8000B8B1C8B0D851E8511FF70C00D851E854F
:1012B80013FD6CC0288539850AE010E00217130772
:1012C80024F4BAE0B887B0E0B9870F85188929896E
:1012D8003A89CCDA0D8B1E8B2F8B388F0D891E899E
:1012E8002F89388DB02FB12BB22BB32B51F14AE097
:1012F80050E060E070E00D891E892F89388D18D87C
:101308008D019F01303029F4203019F4103009F490
:101318000030B9F4088519850150104008871987ED
:101328004AE050E060E070E00D891E892F89388D11
:101338000E949C018B019C010D8B1E8B2F8B388F7B
:10134800CDCF188529850A851017B0E02B07F4F44E
:1013580008840A8500197F926F925F924F923F929C
:101368002F92202E14D8A801B9010F851889298930
:101378003A89A0DA2F903F904F905F906F907F90BE
:101388000F87188B298B3A8B08850A87288539851A
:1013980089010B5F1F4F08010B851C850019110976
:1013A8000B871C87B22FB32B29F40D851E8513FDDF
:1013B80001C006C00B851C85015010400B871C8797
:1013C8000D851E8503701070B02FB12B31F00B8581
:1013D8001C85015010400B871C870D851E8502FF58
:1013E80048C00D851E8501FF17C00D851E8500FFAD
:1013F80003C0BDE2B88302C0BBE2B8830881F10133
:10140800008381010F5F1F4F1801098D1A8D0F5F2F
:101418001F4F098F1A8F11C00D851E8500FF0DC043
:10142800F101B0E2B08381010F5F1F4F1801098DF0
:101438001A8D0F5F1F4F098F1A8F2B853C8500E08F
:1014480010E002171307A4F4F101B0E3B08381019F
:101458000F5F1F4F1801098D1A8D0F5F1F4F098FDE
:101468001A8F0B851C85015010400B871C87E5CF10
:101478004BC00D851E8503FD1BC02B853C8500E0F8
:1014880010E002171307A4F4F101B0E2B083810160
:101498000F5F1F4F1801098D1A8D0F5F1F4F098F9E
:1014A8001A8F0B851C85015010400B871C87E5CFD0
:1014B8000D851E8501FF17C00D851E8500FF03C021
:1014C800BDE2B98302C0BBE2B9830981F10100839F
:1014D80081010F5F1F4F1801098D1A8D0F5F1F4F74
:1014E800098F1A8F11C00D851E8500FF0DC0F101EF
:1014F800B0E2B08381010F5F1F4F1801098D1A8D6B
:101508000F5F1F4F098F1A8F0F85188929893A890C
:10151800ADD90D8B1E8B2F8B388F0A85202F30E08D
:10152800220F331F220F331F01E31DE4F901E00FDF
:10153800F11F45915591659175910D891E892F89E6
:10154800388D0E949C018B019C01005DF101008394
:1015580081010F5F1F4F1801098D1A8D0F5F1F4FF3
:10156800098F1A8F08851985B02FB12B29F40D859D
:101578001E8513FD01C062C0F101BEE2B083810186
:101588000F5F1F4F1801098D1A8D0F5F1F4F098FAD
:101598001A8F0A84B0E01B2E0885198500191109D5
:1015A800088719870A85002381F10A8501500A876F
:1015B800202F30E0220F331F220F331F01E31DE4D9
:1015C800F901E00FF11F45915591659175910D89CC
:1015D8001E892F89388D0E949C018B019C014AE04D
:1015E80050E060E070E00E949C018D019F01005D69
:1015F800F101008381010F5F1F4F1801098D1A8DBA
:101608000F5F1F4F098F1A8FCDCF08851985B02F0F
:10161800B12BA1F0F101B0E3B08381010F5F1F4F3F
:101628001801098D1A8D0F5F1F4F098F1A8F0885B2
:1016380019850150104008871987E7CF0D851E8549
:1016480005FF0EC0F101B5E4B08381010F5F1F4FA4
:101658001801098D1A8D0F5F1F4F098F1A8F0DC042
:10166800F101B5E6B08381010F5F1F4F1801098DA5
:101678001A8D0F5F1F4F098F1A8F2B893C8900E045
:1016880010E020173107B4F40B881C8800E010E044
:10169800001911090B8B1C8BF101BDE2B08381018C
:1016A8000F5F1F4F1801098D1A8D0F5F1F4F098F8C
:1016B8001A8F0DC0F101BBE2B08381010F5F1F4F8C
:1016C8001801098D1A8D0F5F1F4F098F1A8F7F928E
:1016D8006F925F924F923F922F924AE050E00B89AF
:1016E8001C890E94ED008B012F903F90005DF10155
:1016F800008381010F5F1F4F1801098D1A8D0F5F3D
:101708001F4F098F1A8F3F922F924AE050E00B89A2
:101718001C890E94ED008C012F903F904F905F90A4
:101728006F907F90005DF101008381010F5F1F4F73
:101738001801098D1A8D0F5F1F4F098F1A8F0D859C
:101748001E8503FF1DC02B853C8500E010E00217B5
:101758001307B4F4F101B0E2B08381010F5F1F4FAA
:101768001801098D1A8D0F5F1F4F098F1A8F0B856E
:101778001C85015010400B871C87B02FB12B51F7E7
:1017880042C90D851E8511FFB1C02B893C8900E037
:1017980010E0201731075CF40B891C8901501040B8
:1017A80008010885198500191109088719870F8507
:1017B800188929893A895AD80D8B1E8B2F8B388F17
:1017C800B1E0BA870A850A30F1F00A85202F30E0A7
:1017D800220F331F220F331F01E31DE4F901E00F2D
:1017E800F11F45915591659175910D891E892F8934
:1017F800388D041715072607370708F404C00A852B
:101808000F5F0A87DFCF0A84B0E01B2E0885198591
:1018180000191109088719870D891E892F89388DA4
:101828000E94C8013F922F92A801B9010F8518891B
:1018380029893A890E948B012F903F900F8F18A316
:1018480029A33AA37F926F925F924F923F922F9271
:1018580028840E94CB012F903F904F905F906F900B
:101868007F904F8D58A169A17AA13F922F9269D696
:1018780040E050E060E07FE30E94BE012F903F907F
:101888000E943A040D8B1E8B2F8B388F0885198583
:10189800B02FB12B59F14AE050E060E070E00D89BB
:1018A8001E892F89388D0E949C018D019F0130303F
:1018B80029F4203019F4103009F40030B9F44AE062
:1018C80050E060E070E00D891E892F89388D0E94F4
:1018D8009C018B019C010D8B1E8B2F8B388F0885EB
:1018E80019850150104008871987D0CF2885398578
:1018F8000CE010E0021713078CF03F922F92288417
:101908000E9479034F85588969897A890E94BE01A6
:101918002F903F900F87188B298B3A8B3F922F92ED
:101928000F85188929893A8940E050E060E070E025
:101938000E947203002800E009F001E02F903F9018
:10194800002309F46EC00F85188929893A890E94F5
:101958003A04303029F4203019F4103009F40030FA
:1019680009F05FC02B893C8901E010E002171307DA
:101978000CF057C07F926F925F924F923F922F92D6
:101988002B880E94CB01A801B9010F8518892989E4
:101998003A890E945E042F903F904F905F906F901D
:1019A8007F903F922F924FE550E769E870E40DD899
:1019B8000028B0E009F0B1E00B2F2F903F900023F2
:1019C80039F00B891C89095010400B8B1C8B06C001
:1019D8000B891C89085010400B8B1C8B7F926F92CF
:1019E8005F924F923F922F922B880E94CB01A801C1
:1019F800B9010F85188929893A890E945E042F90B8
:101A08003F904F905F906F907F900E943A040D8BAB
:101A18001E8B2F8B388FB0E0BF87B88BB98BBA8BF2
:101A280023C00F85188929893A890E943A040D8BA9
:101A38001E8B2F8B388F0D891E892F89388D0E9418
:101A4800C8013F922F92A801B9010F8518892989E9
:101A58003A890E948B012F903F900F87188B298B12
:101A68003A8BB0E0BB8BBC8BB1E0BA870A850A30F1
:101A7800F1F00A85202F30E0220F331F220F331F89
:101A880001E31DE4F901E00FF11F459155916591BE
:101A980075910D891E892F89388D0417150726071A
:101AA800370708F404C00A850F5F0A87DFCF488527
:101AB80059850A85202F30E0240F351F0B891C8992
:101AC800020F131F08010B851C85001911090B87CC
:101AD8001C870D851E8513FD06C008851985B02F46
:101AE800B12B09F406C00B851C85015010400B87EB
:101AF8001C870D851E8503701070B02FB12B31F037
:101B08000B851C85015010400B871C870D851E8591
:101B180002FF48C00D851E8501FF17C00D851E8573
:101B280000FF03C0BDE2BA8302C0BBE2BA830A81E8
:101B3800F101008381010F5F1F4F1801098D1A8D74
:101B48000F5F1F4F098F1A8F11C00D851E8500FF6B
:101B58000DC0F101B0E2B08381010F5F1F4F180182
:101B6800098D1A8D0F5F1F4F098F1A8F2B853C85A2
:101B780000E010E002171307A4F4F101B0E3B0830A
:101B880081010F5F1F4F1801098D1A8D0F5F1F4FBD
:101B9800098F1A8F0B851C85015010400B871C87F5
:101BA800E5CF4BC00D851E8503FD1BC02B853C85ED
:101BB80000E010E002171307A4F4F101B0E2B083CB
:101BC80081010F5F1F4F1801098D1A8D0F5F1F4F7D
:101BD800098F1A8F0B851C85015010400B871C87B5
:101BE800E5CF0D851E8501FF17C00D851E8500FFF9
:101BF80003C0BDE2BB8302C0BBE2BB830B81F10122
:101C0800008381010F5F1F4F1801098D1A8D0F5F27
:101C18001F4F098F1A8F11C00D851E8500FF0DC03B
:101C2800F101B0E2B08381010F5F1F4F1801098DE8
:101C38001A8D0F5F1F4F098F1A8F1A850A85015059
:101C48000A87112371F10A85202F30E0220F331FF4
:101C5800220F331F01E31DE4F901E00FF11F459145
:101C68005591659175910D891E892F89388D0E942E
:101C78009C018B019C014AE050E060E070E00E940A
:101C88009C018D019F01005DF101008381010F5FBF
:101C98001F4F1801098D1A8D0F5F1F4F098F1A8F5B
:101CA800CCCF2B893C8900E010E002171307A4F47D
:101CB800F101B0E3B08381010F5F1F4F1801098D57
:101CC8001A8D0F5F1F4F098F1A8F0B891C890150BE
:101CD80010400B8B1C8BE5CF2885398508E010E078
:101CE800021713071CF4B8E0BA8702C008850A87F0
:101CF8000A84B0E01B2E0885198500191109088788
:101D080019870A85002329F40D851E8513FD01C056
:101D18000DC0F101BEE2B08381010F5F1F4F1801B2
:101D2800098D1A8D0F5F1F4F098F1A8F7F926F923F
:101D38005F924F923F922F922A840E94CB012F905C
:101D48003F904F905F906F907F903F922F924F857A
:101D5800588969897A89F5D32F903F900E943A046F
:101D68000D8B1E8B2F8B388F0A85002381F10A85F6
:101D780001500A87202F30E0220F331F220F331F14
:101D880001E31DE4F901E00FF11F459155916591BB
:101D980075910D891E892F89388D0E949C018B01B0
:101DA8009C014AE050E060E070E00E949C018D01D7
:101DB8009F01005DF101008381010F5F1F4F180132
:101DC800098D1A8D0F5F1F4F098F1A8FCDCF088588
:101DD8001985B02FB12BA1F0F101B0E3B0838101D7
:101DE8000F5F1F4F1801098D1A8D0F5F1F4F098F45
:101DF8001A8F088519850150104008871987E7CF81
:101E08000D851E8503FF1DC02B853C8500E010E075
:101E180002171307B4F4F101B0E2B08381010F5F38
:101E28001F4F1801098D1A8D0F5F1F4F098F1A8FC9
:101E38000B851C85015010400B871C87B02FB12BD8
:101E480051F70C9407050D851E85007C1070103025
:101E580009F4003009F052C00D851E8504FF15C035
:101E6800F30101911191F8010191119121913191A1
:101E78000D8B1E8B2F8B388FF301019111910C5F05
:101E88001F4FF3010193119316C0F30101911191B2
:101E9800F8010191119120E017FD2FEF322F0D8BE2
:101EA8001E8B2F8B388FF301019111910E5F1F4FFD
:101EB800F301019311934D895E896F89788D00E054
:101EC80010E020E030E04017510762077307ACF4D8
:101ED8000D851E8503600D871E870D881E8800E00E
:101EE80010E0001911090F88188C20E030E0200953
:101EF80031090D8B1E8B2F8B388F2CC00D851E85BD
:101F080004FF15C0F30101911191F801019111919C
:101F1800219131910D8B1E8B2F8B388FF3010191FD
:101F280011910C5F1F4FF3010193119313C0F3013B
:101F380001911191F801019111910D8B1E8BB0E067
:101F4800BF8BB88FF301019111910E5F1F4FF30101
:101F58000193119308851985103009F4003091F424
:101F68000D891E892F89388D303029F4203019F4D5
:101F7800103009F4003031F4088519850F5F1F4FC0
:101F8800088719870D85007C802F6CC0B1E0BA875F
:101F98000A850A30F1F00A85202F30E0220F331F1E
:101FA800220F331F01E31DE4F901E00FF11F4591F2
:101FB8005591659175910D891E892F89388D041762
:101FC80015072607370708F404C00A850F5F0A8734
:101FD800DFCF53C0B1E0BA870A850830F1F00A852F
:101FE800202F30E0220F331F220F331F00E81DE49B
:101FF800F901E00FF11F45915591659175910D8992
:102008001E892F89388D041715072607370708F406
:1020180004C00A850F5F0A87DFCF2FC0B1E0BA87F7
:102028000A850C30F1F00A85202F30E0220F331F8B
:10203800220F331F05ED1CE4F901E00FF11F459154
:102048005591659175910D891E892F89388D0417D1
:1020580015072607370708F404C00A850F5F0A87A3
:10206800DFCF0BC0803009F491CF803C09F48ECFCC
:10207800803809F4AFCF803489F20A8528853985FC
:1020880010E0021713071CF408850A870BC018858F
:1020980029850A851017B0E02B0724F40A850887DC
:1020A800B0E0B9870B851C85B02FB12B69F00D8581
:1020B8001E8503701070B02FB12B31F00B851C8575
:1020C800015010400B871C872B853C850885198596
:1020D800021713074CF4088419840B851C85001912
:1020E80011090B871C8703C0B0E0BB87BC870D852F
:1020F8001E85047C1870183009F4003461F40B85CF
:102108001C85B02FB12B31F00B851C850150104078
:102118000B871C8719C00D851E85007C1870183028
:1021280009F4003889F42B853C8502E010E0021799
:1021380013073CF40B851C85025010400B871C8745
:1021480003C0B0E0BB87BC870D851E8502FF74C045
:102158000D851E8501FF17C00D851E8500FF03C074
:10216800BDE2BC8302C0BBE2BC830C81F1010083E9
:1021780081010F5F1F4F1801098D1A8D0F5F1F4FC7
:10218800098F1A8F3DC00D851E8500FF0EC0F10115
:10219800B0E2B08381010F5F1F4F1801098D1A8DBE
:1021A8000F5F1F4F098F1A8F2BC00D851E85007C6E
:1021B8001870183009F4003819F5F101B0E3B0834C
:1021C80081010F5F1F4F1801098D1A8D0F5F1F4F77
:1021D800098F1A8F0D851E8505FF03C0B8E5BD83DD
:1021E80002C0B8E7BD830D81F101008381010F5F53
:1021F8001F4F1801098D1A8D0F5F1F4F098F1A8FF6
:102208000B851C85B02FB12BB1F0F101B0E3B08381
:1022180081010F5F1F4F1801098D1A8D0F5F1F4F26
:10222800098F1A8F0B851C85015010400B871C875E
:10223800B02FB12B51F78CC00B851C85B02FB12B5B
:10224800D1F00D851E8503FD16C0F101B0E2B08303
:1022580081010F5F1F4F1801098D1A8D0F5F1F4FE6
:10226800098F1A8F0B851C85015010400B871C871E
:10227800B02FB12B51F70D851E8501FF17C00D85B5
:102288001E8500FF03C0BDE2BE8302C0BBE2BE8361
:102298000E81F101008381010F5F1F4F1801098D25
:1022A8001A8D0F5F1F4F098F1A8F11C00D851E855C
:1022B80000FF0DC0F101B0E2B08381010F5F1F4F35
:1022C8001801098D1A8D0F5F1F4F098F1A8F0D8501
:1022D8001E85007C1870183009F4003471F4F1017F
:1022E800B0E3B08381010F5F1F4F1801098D1A8D6C
:1022F8000F5F1F4F098F1A8F2BC00D851E85007C1D
:102308001870183009F4003819F5F101B0E3B083FA
:1023180081010F5F1F4F1801098D1A8D0F5F1F4F25
:10232800098F1A8F0D851E8505FF03C0B8E5BF8389
:1023380002C0B8E7BF830F81F101008381010F5FFD
:102348001F4F1801098D1A8D0F5F1F4F098F1A8FA4
:10235800288539850A8510E00217130774F4F101FE
:10236800B0E3B08381010F5F1F4F1801098D1A8DEB
:102378000F5F1F4F098F1A8FEBCF28853985088586
:1023880019850150104008871987B22FB32B09F41B
:10239800ADC00D85007C0F8F8FC008851985980109
:1023A800220F331F220F331F01E31DE4F901E00F51
:1023B800F11F45915591659175910D891E892F8958
:1023C800388D0E949C018B019C014AE050E060E03E
:1023D80070E00E949C018D019F01005D0A8778C012
:1023E8000D851E8505FF26C0088519859801220FD1
:1023F800331F220F331F00E81DE4F901E00FF11F1E
:1024080045915591659175910D891E892F89388D52
:102418000E949C018B019C01A801B9014F7050706A
:102428006070707003EB1DE4F801E40FF51F049170
:102438000A8725C0088519859801220F331F220FA6
:10244800331F00E81DE4F901E00FF11F4591559194
:10245800659175910D891E892F89388D0E949C017F
:102468008B019C01A801B9014F70507060707070A9
:1024780004EC1DE4F801E40FF51F04910A8728C055
:10248800088519859801220F331F220F331F05ED88
:102498001CE4F901E00FF11F459155916591759183
:1024A8000D891E892F89388D0E949C018B019C0102
:1024B8000770005D0A870CC00F8D003009F46DCFDE
:1024C800003C09F46ACF003809F48ACF0034C1F21D
:1024D8000A85F101008381010F5F1F4F1801098DE3
:1024E8001A8D0F5F1F4F098F1A8F47CF0D851E85D5
:1024F80003FF1DC02B853C8500E010E00217130781
:10250800B4F4F101B0E2B08381010F5F1F4F1801ED
:10251800098D1A8D0F5F1F4F098F1A8F0B851C8528
:10252800015010400B871C87B02FB12B51F70C942A
:102538000705098D1A8DA296CDBFDEBFDF91CF9119
:022548000895F4
:10039600CF93DF93CDB7DEB72497CDBFDEBF2196CF
:1003A600B0E02B160CF0CCC000E00219202E0E3661
:1003B6000CF46FC02F9244E650E0022D10E027FCAB
:1003C6001FEF08DF062F2F9010E007FD1FEF0E5ED0
:1003D6001F4F9801220F331F220F331F01EA1CE41F
:1003E600F901E00FF11F05911591259135910883CB
:1003F60019832A833B832F9244E650E0022D10E0B6
:1004060027FC1FEFE7DE082F10E007FD1FEF4AE08D
:1004160050E0E0DE062F10E007FD1FEF075F1F4FDD
:100426009801220F331F220F331F01EA1CE4F90142
:10043600E00FF11F459155916591759108811981DC
:100446002A813B810E94A5122F90088319832A8353
:100456003B834AE050E0022D10E027FC1FEFBADE96
:10046600082F202F30E007FD3FEF220F331F220F0A
:10047600331F01EA1CE4F901E00FF11F4591559184
:1004860065917591088119812A813B810E94A51287
:1004960020C10AE002150CF041C02F924AE050E05C
:1004A600022D10E027FC1FEF95DE062F2F9010E09F
:1004B60007FD1FEF075F1F4F9801220F331F220F03
:1004C600331F01EA1CE4F901E00FF11F05911591B4
:1004D60025913591088319832A833B834AE050E0AE
:1004E600022D10E027FC1FEF75DE082F202F30E0CD
:1004F60007FD3FEF220F331F220F331F01EA1CE4D3
:10050600F901E00FF11F45915591659175910881AB
:1005160019812A813B810E94A512DBC0222D30E081
:1005260027FC3FEF220F331F220F331F01EA1CE483
:10053600F901E00FF11F0591159125913591C9C07B
:10054600BEE62B160CF46FC02F9244E650E0022D47
:1005560010E027FC1FEF3EDE062F2F9010E007FD70
:100566001FEF0E5E1F4F9801220F331F220F331FFE
:100576000DE61CE4F901E00FF11F05911591259197
:100586003591088319832A833B832F9244E650E0F2
:10059600022D10E027FC1FEF1DDE082F10E007FDDF
:1005A6001FEF4AE050E016DE062F10E007FD1FEFB2
:1005B600075F1F4F9801220F331F220F331F0DE6CF
:1005C6001CE4F901E00FF11F459155916591759174
:1005D600088119812A813B810E94A5122F900883E8
:1005E60019832A833B834AE050E0022D10E027FC62
:1005F6001FEFF0DD082F202F30E007FD3FEF220F21
:10060600331F220F331F0DE61CE4F901E00FF11F23
:100616004591559165917591088119812A813B8192
:100626000E94A51256C00AE002150CF041C02F9296
:100636004AE050E0022D10E027FC1FEFCBDD062F2D
:100646002F9010E007FD1FEF075F1F4F9801220F45
:10065600331F220F331F0DE61CE4F901E00FF11FD3
:100666000591159125913591088319832A833B833A
:100676004AE050E0022D10E027FC1FEFABDD082F0B
:10068600202F30E007FD3FEF220F331F220F331FCD
:100696000DE61CE4F901E00FF11F459155916591B6
:1006A6007591088119812A813B810E94A51211C08A
:1006B600222D30E027FC3FEF220F331F220F331F7E
:1006C6000DE61CE4F901E00FF11F05911591259146
:0E06D60035912396CDBFDEBFDF91CF91089501
:1001DA00C801BA0197FB092E07260AD077FD04D079
:1001EA000CD006D000201AF4709561957F4F0895BF
:1001FA00F6F7909581959F4F0895AA1BBB1B51E175
:10020A0007C0AA1FBB1FA617B70710F0A61BB70B7C
:10021A00881F991F5A95A9F780959095BC01CD0121
:04022A000895089596
:1006F200CF93DF93CDB7DEB72497CDBFDEBF219670
:10070200BEE62B1608F45DC044E6022D68D110E067
:100712000E5E1F4F9801220F331F220F331F01EA73
:100722001CE4F901E00FF11F059115912591359116
:100732002F9240E050E060E07FE30E94A5122F90EC
:10074200088319832A833B8344E6022D48D1092F6B
:100752004AE045D110E0075F1F4F9801220F331F77
:10076200220F331F01EA1CE4F901E00FF11F45914A
:10077200559165917591088119812A813B812F924A
:100782000E94A5122F90088319832A833B834AE093
:10079200022D25D1092F202F30E0220F331F220FE7
:1007A200331F01EA1CE4F901E00FF11F4591559155
:1007B20065917591088119812A813B810E94A51258
:1007C20052C00AE00215D0F54AE0022D08D110E02D
:1007D200075F1F4F9801220F331F220F331F01EAB9
:1007E2001CE4F901E00FF11F059115912591359156
:1007F2002F9240E050E060E07FE30E94A5122F902C
:10080200088319832A833B834AE0022DE8D0092F0B
:10081200202F30E0220F331F220F331F01EA1CE486
:10082200F901E00FF11F459155916591759108818C
:1008320019812A813B810E94A51215C0222D30E028
:10084200220F331F220F331F01EA1CE4F901E00FCC
:10085200F11F059115912591359140E050E060E03E
:100862007FE30E94A5122396CDBFDEBFDF91CF9119
:020872000895E7
:0E06E40022DE19F00024039401C000240895C2
:1008BC00042E152E262E372EC2DC002E112E222EA3
:0408CC00332E08952A
:10024A003F932F931F930F93002D112D222D332DA2
:10025A0004DF09F44BC0E62ED52EC42EB32EA22EEF
:10026A00912E802E0F911F912F913F91F6DE61F111
:10027A006E254C195D09403853073CF541387FEF2C
:10028A0057077CF180E27724632E522E412E302FBD
:10029A00222711270027000F111F221F331F441C7A
:1002AA00551C661C771C28F0481859086A087B08F0
:1002BA0004C0480C591C6A1C7B1C0AF001608A9510
:1002CA0051F741505040F1DE16C00FEF102F2FE7C3
:1002DA003FE76623C9F3B9DEB9F3342D30E8342594
:1002EA00F3CF0027102F202F302FEECF0F900F9033
:0802FA000F900F90EACF089568
:10087400F7DBF1F05523C2F04F31A8F44731C1F052
:1008840050F44195495E05C0359527951795079510
:100894004A95D1F70DC04751000F111F221F331F76
:1008A4004A95D1F705C03FE7232F132F032F03C029
:0808B400662309F0F4DB08954E
:060390006894B7DF089538
:1003020047E16627552726F0332312F4C9DE60E859
:04031200D0DE08959C
:10031600042E152E262E372E5ADF002E112E222EB3
:04032600332E0895D5
:10037C00042E152E262E372E5FDF002E112E222E48
:04038C00332E08956F
:06024400E8946BDF089551
:10033800C9019A01AB01B801A1E21A2EAA1BBB1B85
:10034800FD010DC0AA1FBB1FEE1FFF1FA217B30799
:10035800E407F50720F0A20BB30BE40BF50B661FBF
:10036800771F881F991F1A9469F760957095809573
:0403780090950895BF
:1026260060E070E09101A10100C0F9010081003273
:1026360021F4B62FB72B09F40AC061E070E0F90166
:102646000081FA0100838A010F5F1F4FA801F9017B
:1026560089010F5F1F4F98010081003031F781011A
:022666000895D5
:0829E000E8940E9481010895B2
:10378000CF93DF93CDB7DEB72297CDBFDEBF2196B3
:103790004F925F926F927F922882398200918F02BE
:1037A000002331F03F922F92DBD02F903F90F6CF45
:1037B0003F922F92B4E06B2EB3E07B2EB2E04B2E03
:1037C000B3E05B2E2880398020DCBDE04B2E2880C2
:1037D0003980F7DB2F903F90B0E0B0938B02B0E0E0
:1037E000B0938E02B1E0B0938F0200910403109168
:1037F000050320910603309107030093A60210935E
:10380000A7022093A8023093A902B0E0B093A102CE
:10381000B093A202B093A302B093A402B1E0B0931C
:10382000AA027F906F905F904F902196CDBFDEBF30
:06383000DF91CF91089525
:102FC200F1010081002399F0F10100814F923F92BB
:102FD2002F92202EE0919602F091970209952F9060
:102FE2003F904F9081010F5F1F4F1801E9CF4F9221
:102FF2003F922F92242CE0919602F091970209952C
:083002002F903F904F900895BC
:1029F400BBB1B5FD01C0FCCFBBB1B6FF03C0BBB1D9
:082A0400B064BBB92CB80895C1
:0C29E8002FB8BEB1B7FD01C0FCCF0895B0
:103BE6002F923F92B4E32B2EB1E03B2EC6DDB5E219
:103BF6002B2EB1E03B2EC1DDB7E02B2EB1E03B2EE4
:103C0600BCDDB9E12B2EB1E03B2EB7DDBEE32B2E9A
:103C1600B1E03B2EB2DDB7E62B2EB1E03B2EADDD9B
:103C2600BBE72B2EB1E03B2EA8DDB9E52B2EB1E08C
:103C36003B2EA3DDBBE42B2EB1E03B2E9EDD3F9059
:043C46002F9008951E
:104992000091570110915801B02FB12B09F40CC0AE
:1049A2000E94B01C00910601002329F04DD95FD965
:0A49B200B0E0B0930601F4CF0895C1
:103C4A002F923F92B0E52B2EB2E03B2E94DD0091ED
:103C5A003301002311F47FDEFACFB0E0B0933301D1
:063C6A003F902F90089529
:103C7000CF93DF93CDB7DEB7A097CDBFDEBF219640
:103C80002F923F924F925F926F928E01B0E25B2E25
:103C9000B0E06B2E442418015EDDB0E85B2EB0E08E
:103CA0006B2E4424B3EA2B2EB1E03B2E54DDB3E25D
:103CB0004B2EB2E05B2EB3EA2B2EB1E03B2E69DF38
:103CC000BCEA4B2EB2E05B2EB3EA2B2EB1E03B2ECA
:103CD00060DF8E01B6E64B2EB2E05B2E180159DF95
:103CE0008E01BCE34B2EB2E05B2E180152DF29E2BD
:103CF00016E900E80A95F1F71A95E1F72A95D1F748
:103D00008E01B3EA4B2EB1E05B2E18019EDE6F9060
:103D10005F904F903F902F906F96CDBFDEBFDF91A9
:043D2000CF910895A2
:103B9200A101FA010081002329F08A010F5F1F4F62
:103BA200A801F7CF9A018A010F5F1F4FA801F20106
:103BB20082010F5F1F4F28010081F9010083F90183
:0C3BC2000081002309F0EECF810108957E
:103A4A00CF93DF93CDB7DEB72497CDBFDEBF2196E4
:103A5A006F927F92288239824A825B8200918F021A
:103A6A00002351F05F924F923F922F9274DF2F9072
:103A7A003F904F905F90F2CF5F924F923F922F927A
:103A8A00B4E06B2EB3E07B2EB2E04B2EB3E05B2E9C
:103A9A0028803980B5DABDE04B2E288039808CDA4F
:103AAA002F903F904F905F90B0E0B0938B02B0E0C0
:103ABA00B0938E02B1E0B0938F020091040310918B
:103ACA00050320910603309107030093A602109381
:103ADA00A7022093A8023093A902B0E0B093A102F2
:103AEA00B093A202B093A302B093A402B1E0B09340
:103AFA00AA0200918F02002351F05F924F923F92E7
:103B0A002F9229DF2F903F904F905F90F2CFB0E035
:103B1A00B093AA025F924F923F922F92BAE14B2E34
:103B2A002A803B8049DA2F903F904F905F90B0E017
:103B3A00B0938B02B0E0B0938E02B1E0B0938F02E3
:103B4A0000910403109105032091060330910703A5
:103B5A000093A6021093A7022093A8023093A90209
:103B6A00B0E0B093A102B093A202B093A302B093C3
:103B7A00A402B1E0B093AA027F906F902396CDBFC2
:083B8A00DEBFDF91CF91089529
:104DE400A0E6B0E0E8E5FAE485E192E00E94B812BA
:024DF400089520
:104A00000F920F931F932F933F93EF93FF93BF93B7
:104A1000BFB7BF932F92D2DF202EFBDE2F90BF9126
:104A2000BFBFBF91FF91EF913F912F911F910F91C8
:044A30000F90189536
:0C49BC00E0917F02F091800209950895BF
:043BCE000CB1089599
:0A3BD2000BB0002707FC03950895CF
:0A3BDC000BB0002706FC03950895C6
:10481200B0E0B0938B02B0E0B0938E02B1E0B093FF
:104822008F02B0E0B0939902B0939A02B0939B02C8
:10483200B0939C02B1E0B093A50220919402309112
:1048420095020091900210919102F801E20FF31F7C
:10485200208200919002109191020F5F1F4F0093EE
:084862009002109391020895E9
:1049C8000F931F932F933F934F935F936F937F930F
:1049D800EF93FF93BF93BFB7BF9321DEBF91BFBFD4
:1049E800BF91FF91EF917F916F915F914F913F91AF
:0849F8002F911F910F911895FA
:104626000091AA02002309F445C04091A1025091CD
:10463600A2026091A3027091A4020091A1021091BE
:10464600A2022091A3023091A4020F5F1F4F2F4FA9
:104656003F4F0093A1021093A2022093A30230932E
:10466600A4020091A6021091A7022091A8023091FF
:10467600A9020417150726073707E0F4B0E0B09340
:10468600AA02B0E0B093A102B093A202B093A30233
:10469600B093A40220919402309195020091900269
:1046A60010919102F801E20FF31FB0E0B083B1E080
:1046B600B0938B020091A502002309F445C04091F6
:1046C600990250919A0260919B0270919C0200910E
:1046D600990210919A0220919B0230919C020F5FE1
:1046E6001F4F2F4F3F4F0093990210939A0220932A
:1046F6009B0230939C0200919D0210919E02209194
:104706009F023091A0020417150726073707E0F429
:10471600B0E0B093A502B0E0B0939902B0939A02CC
:10472600B0939B02B0939C02209194023091950223
:104736000091900210919102F801E20FF31FB0E090
:0A474600B083B1E0B0938E02089535
:104D590068747470733A2F2F7777772E676F6F6740
:104D69006C652E72732F6D6170732F706C61636542
:074D79002F25732C257300A8
:104CA1000000803FCDCCCC3D0AD7233C6F12833A24
:104CB10017B7D138ACC52737BD37863595BFD63341
:104CC10077CC2B325F708930FFE6DB2E08E53C1E86
:044CD1006042A20D8E
:104C6D000000803F000020410000C84200007A444F
:104C7D0000401C460050C347002474498096184BD1
:104C8D0020BCBE4C286B6E4EF9021550EC78AD6011
:044C9D00CAF249719D
:104D3100010000000A00000064000000E803000018
:104D410010270000A086010040420F0080969800C5
:084D510000E1F50500CA9A3BE0
:104D80000100000010000000000100000010000001
:104D900000000100000010000000000100000010F1
:104CD5000100000008000000400000000002000084
:104CE500001000000080000000000400000020000B
:104CF5000000000100000008000000400000000066
:104DB300303132333435363738394142434445464E
:014DC30000EF
:104DC400303132333435363738396162636465667D
:014DD40000DE
:034A58004F4B00C1
:104A5B00000000000000000000000000000000004B
:104A6B00000000000000000000000000000000003B
:104A7B00000000000000000000000000000000002B
:104A8B00000000000000000000000000000000001B
:104A9B00000000000000000000000000000000000B
:104AAB0000000000000000000000000000000000FB
:104ABB0000000000000000000000000000000000EB
:104ACB0000000000000000000000000000000000DB
:024ADB003300A6
:034ADD000D0A00BF
:034AE0000D0A00BC
:054AE3002B434D5400BF
:034AE80041540036
:0A4AEB002B51494E49535441540029
:094AF5002B51474E53535244006B
:014AFE0000B7
:104AFF0041542B434E4D493D322C322C302C312C0E
:024B0F00300074
:0C4B110041542B51474E5353433D31009B
:0E4B1D0041542B435343533D2247534D220036
:014B2B000089
:0A4B2C0041542B434D47463D310034
:0D4B360041542B51494647434E543D320037
:0C4B430041542B514745504F414944005C
:024B4F00000064
:0E4B510041542B51474E535345504F3D3100B8
:104B5F0041542B5149435347503D312C22434D4E25
:044B6F004554220087
:0C4B730041542B51474E535354533F0004
:074B7F00286E756C6C290023
:0B4B86004E4F204D4553534147450062
:044B91004E614E0023
:024B95003000EE
:044B9700494E46003D
:104B9B00000000000000000000000000000000000A
:104BAB0000000000000000000000000000000000FA
:104BBB0000000000000000000000000000000000EA
:104BCB0000000000000000000000000000000000DA
:104BDB0000000000000000000000000000000000CA
:104BEB0000000000000000000000000000000000BA
:104BFB0000000000000000000000000000000000AA
:104C0B000000000000000000000000000000000099
:0C4C1B00506F736974696F6E3A200A00D4
:014C2700008C
:0C4C280041542B51494E49535441540053
:104C34000000000000000000000000000000000070
:044C4400000000006C
:104C480041542B51474E535352443D224E4D4541FA
:064C58002F474C4C220026
:094C5E0041542B434D47533D0026
:014C6700004C
:014C6800004B
:044C69005244590058
:0F4DD500000000000000000000000000000000CF
:014DA0000012
:014DA1000011
:014DA2000010
:014DA300000F
:0F4DA40000000000000000000000000000000000
:044D050000000000AA
:034D0900000000A7
:054D0C000000000000A2
:104D11000000000000000000000000000000000092
:104D21000000000000000000000000000000000082
:00000001FF
