:0400000079EF14F090
:1000080000C01CF001C01BF002C01AF003C019F0B8
:1000180004C018F005C017F006C016F007C015F0A8
:10002800E1CF1DF0E2CF1EF09EAA06D0F2EC0FF051
:1000380000C0B9FB75EC10F09EA007D0FBEC0FF0E8
:100048009E90F00ECF6E600ECE6E1CC000F01BC0EE
:1000580001F01AC002F019C003F018C004F017C06C
:1000680005F016C006F015C007F01DC0E1FF1EC060
:04007800E2FF110092
:10007C000B01B807B807B8CB01F0B807015000085E
:10008C0003E200000000F7D70000000000000000B1
:04009C00000012004E
:1000A000010E0B01B76F050124510B01B61B05C5ED
:1000B000E9FF06C5EAFF05012451000A03E00051EB
:1000C000EF1202D02351EF1634C5B8FBD7DFB61FAD
:1000D000B7531BE0B751B615006E04E1050100519E
:1000E000EF1203D005012351EF160B01B737B7917B
:1000F000020E0501345D0B01B86FC0DF0000000087
:100100000000000000000000E3D705012451000AB0
:1001100003E02351EF1602D00051EF1234C5B8FBB3
:04012000ADDF12003D
:10012400AECB04F0AFCB05F00B01B251B31124E018
:10013400010EB25F000EB35B04C002F005C003F011
:10014400044A052AB0CB00F0B1CB01F0B04BB12B7F
:1001540000C0E9FF01C0EAFF02C0E1FF03C0E2FF03
:10016400EECFE6FF02C0E9FF03C0EAFFEECF00F0E6
:10017400005201E101D0D8D7B2CB00F0B3CB01F0EB
:10018400010EB25F000EB35B0050011008E004C022
:10019400E1FF05C0E2FFE66A044A052AEDD7AECBCB
:0801A40000F0AFCB01F01200E6
:1001AC00AECB02F0AFCB03F002C000F003C001F005
:1001BC00024A032A00C0E9FF01C0EAFFEE5201E047
:1001CC00F3D70B01AE51025C006EAF510358016EB8
:0A01DC00010E005E000E015A120031
:1001E600AECBE9FFAFCBEAFFEE500B01B01905E14C
:1001F600AECB00F0AFCB01F010D0AECB00F0AFCB62
:1002060001F0AE4BAF2B00C0E9FF01C0EAFFEECF15
:0C02160000F00052E5E1006A016A1200ED
:10022200AECBB0FBAFCBB1FBB0CBE9FFB1CBEAFFBA
:10023200EE520AE0B0CBE9FFB1CBEAFFEECFB6FB5C
:0A0242002EDFB04BB12BF0D71200F5
:10024C00B2CB00F00B01B207005228E0AECBE9FFB5
:10025C00AFCBEAFFEE50000A0CE0AECBE9FFAFCB20
:10026C00EAFFB0CBD9FFB1CBDAFFEE50DE1801E1DB
:10027C000FD0AECBE9FFAFCBEAFFB0CBD9FFB1CB00
:10028C00DAFFDE50EE5C006E016A000E015A08D0F7
:10029C000B01AE4BAF2BB04BB12BD2D7006A016A1E
:0202AC0012003E
:1002AE000B01B06BB16BE10EB26F100EB36F000E9F
:1002BE00B46F000EB56FAECB00F0AFCB01F0AE4B0E
:1002CE00AF2B00C0E9FF01C0EAFFEECFB0FB000E7E
:1002DE00B16F000EB16FB051B11123E0050E046E77
:1002EE00B2CB00F0B3CB01F0B4CB02F0B5CB03F040
:1002FE00045007E000360090013602360336FF0F39
:10030E00F8D70050B2270150B3230250B423035044
:10031E00B523B051B227B151B323000EB423B52388
:10032E00CAD7B2CB00F0B3CB01F0B4CB02F0B5CB51
:04033E0003F01200B6
:100342000B6A0A6A096A00500402F4CF09F0F3CF7B
:1003520008F001500502F4CF0BF0F3CF0AF0005081
:100362000502F3500926F4500A22E86A0B220150D2
:100372000402F3500926F4500A22E86A0B2208C04C
:1003820000F009C001F00AC002F00BC003F0120035
:0E039200ACB202D00000FCD794CBADFF12003D
:1003A000D90E0B01AE6F040EAF6F3BDF94CBAEFBEB
:1003B00095CBAFFB36DFED0E0B01AE6F040EAF6FCA
:1003C00030DFF00E0B01AE6F040EAF6F94CBB0FBBD
:1003D00095CBB1FB060EB26F39DF0050011003E17F
:0803E000010E0401F76F120089
:1003E8000F0121B302D00000FBD794CB1CFF1200F1
:1003F80094CBAEFB95CBAFFB220E0B01B06FEFDEBB
:1004080000C096FB01C097FB010E0024AE6F000EE2
:100418000120AF6F220EB06FE2DE5C0EAE6F040EED
:10042800AF6F96CBB0FB97CBB1FB9651005CB26F28
:0E04380097510158B36FB24BB32B70DE120018
:100446000B01986B996B9A6B9B6B9C6B94CBACFB7B
:1004560095CBADFB9D6B9E6B9F6BA06BA16BA26B4F
:10046600A36BA46BA56BA66BA76BA86BA96BAA6BFA
:10047600AB6BACCBAEFBADCBAFFB95DE800E026EAD
:10048600800E0118025C02E10050020802E3006AD5
:10049600E9D09D0EAE6F0B0EAF6FACCBB0FBADCB04
:1004A600B1FB0F0EB26F000EB36F39DE986B0F0EF5
:1004B600985DD8B067D09D0EE96E0B0EEA6E985126
:1004C600E926D8B0EA2AEE50000A05E1995302E17E
:1004D60098CB99FB57D09D0EE96E0B0EEA6E98519C
:1004E600E926D8B0EA2AEE502B0A04E19C5302E131
:1004F60098CB9CFB9D0EE96E0B0EEA6E9851E92691
:10050600D8B0EA2AEE503D0A04E19A5302E198CBAC
:100516009AFB9D0EE96E0B0EEA6E9851E926D8B04D
:10052600EA2AEE503F0A04E19B5302E198CB9BFB7B
:100536009D0EE96E0B0EEA6E9851E926D8B0EA2AAE
:10054600EE500D0A17E09D0EE96E0B0EEA6E9851FD
:10055600E926D8B0EA2AEE500A0A0CE09D0EE96EAA
:100566000B0EEA6E9851E926D8B0EA2AEE503A0AFE
:1005760001E006D0995304E19C5302E098CB99FB25
:10058600982B95D79A5318E19B5316E196CBAEFB61
:1005960097CBAFFB9D0EB06F0B0EB16F9C51B02782
:1005A600D8B0B12B9C51995DB26FB36B000EB35BA3
:1005B600B6DD040E006E56D09A5318E19B5316E032
:1005C60096CBAEFB97CBAFFB9D0EB06F0B0EB16F0C
:1005D6009C51B027D8B0B12B9C519B5DB26FB36BC9
:1005E600000EB35B9CDD030E006E3CD09A5318E000
:1005F6009B5316E196CBAEFB97CBAFFB9D0EB06F30
:100606000B0EB16F9C51B027D8B0B12B9C519A5D9F
:10061600B26FB36B000EB35B82DD020E006E22D0AA
:100626009B05016E026A000E025A000E021802E1D4
:1006360001509A1916E196CBAEFB97CBAFFB9D0EF8
:10064600B06F0B0EB16F9C51B027D8B0B12B9C5137
:100656009A5DB26FB36B000EB35B61DD010E006E87
:0606660001D0006A120041
:10066C000B019A6B94CBAEFB95CBAFFB1ADE00C0A3
:10067C0096FB01C097FB02C098FB03C099FB9A6BD9
:10068C0005013D510B019A5D2AE2180E006E000E19
:10069C00016E9ACB04F0000E056E4DDE580E002450
:1006AC00E96E050E0120EA6EEECF01F0EECF02F0FE
:1006BC00EECF03F0EECF04F00450991908E103508B
:1006CC00981905E10250971902E10150961905E1BC
:1006DC009ACB00F0000E016E04D09A2BD1D7006A91
:0406EC00016A12008D
:1006F0000B820BAE82EF03F00368026801680068AA
:080700000A360232FF0E12005E
:080708000AAE029E000E120071
:100710000B840BAE93EF03F0010E036E026A016AC5
:0A072000006A0A360232FF0E1200D2
:0E072A00026A016A006A086A036A000E120081
:100738000B1E0A1E091E081E082AD8B4092AD8B496
:080748000A2AD8B40B2A1200A2
:100750000450085E0550D8A0053C095E0650D8A09C
:10076000063C0A5E0750D8A0073C0B5E0336070E16
:100770000C6E0334083609360A360B36045003A0D3
:100780000ED0085E0550D8A0053C095E0650D8A0E2
:10079000063C0A5E0750D8A0073C0B5E0DD0082629
:1007A0000550D8B0053C09260650D8B0063C0A26AC
:1007B0000750D8B0073C0B2603360C2EDAD702348C
:1007C000083609360A360B36045003A00ED0085EF0
:1007D0000550D8A0053C095E0650D8A0063C0A5E2C
:1007E0000750D8A0073C0B5E0DD008260550D8B0A6
:1007F000053C09260650D8B0063C0A260750D8B05A
:10080000073C0B260236070E0C6E023408360936FA
:100810000A360B36045002A00ED0085E0550D8A050
:10082000053C095E0650D8A0063C0A5E0750D8A0D9
:10083000073C0B5E0DD008260550D8B0053C0926B4
:100840000650D8B0063C0A260750D8B0073C0B2605
:1008500002360C2EDAD70134083609360A360B3642
:10086000045002A00ED0085E0550D8A0053C095ED9
:100870000650D8A0063C0A5E0750D8A0073C0B5E85
:100880000DD008260550D8B0053C09260650D8B032
:10089000063C0A260750D8B0073C0B260136070E47
:1008A0000C6E0134083609360A360B36045001A0A6
:1008B0000ED0085E0550D8A0053C095E0650D8A0B1
:1008C000063C0A5E0750D8A0073C0B5E0DD00826F8
:1008D0000550D8B0053C09260650D8B0063C0A267B
:1008E0000750D8B0073C0B2601360C2EDAD700345F
:1008F000083609360A360B36045001A00ED0085EC1
:100900000550D8A0053C095E0650D8A0063C0A5EFA
:100910000750D8A0073C0B5E0DD008260550D8B074
:10092000053C09260650D8B0063C0A260750D8B028
:10093000073C0B260036070E0C6E003408360936CD
:100940000A360B36045000A00ED0085E0550D8A021
:10095000053C095E0650D8A0063C0A5E0750D8A0A8
:10096000073C0B5E0DD008260550D8B0053C092683
:100970000650D8B0063C0A260750D8B0073C0B26D4
:1009800000360C2EDAD700B00ED0045008260550E1
:10099000D8B0053C09260650D8B0063C0A260750B8
:0809A000D8B0073C0B26120041
:1009A800F250026EF29E0500FF6A0150FE6E005082
:0809B800FD6E02BEF28E12007A
:1009C0000B01826B836B846B856B866B876B886B8B
:1009D000896B8A6B8B6B8C6B8D6B8E6B8F6B906B5B
:1009E000916B926B936B7CCB94FB7DCB95FB850ECF
:1009F000966F0B0E976F27DD00C082FB005219E146
:100A00007ECBE1FF7FCBE2FF68C5E6FF69C5E6FF6D
:100A10006AC5E6FF6BC5E6FF80CBE1FF81CBE2FF55
:100A20005CC5E6FF5DC5E6FF5EC5E6FF5FC5E6FFA8
:100A300052D1850E946F0B0E956F18DE00C083FBAC
:100A400001C084FB0050011019E17ECBE1FF7FCB98
:100A5000E2FF68C5E6FF69C5E6FF6AC5E6FF6BC54C
:100A6000E6FF80CBE1FF81CBE2FF5CC5E6FF5DC521
:100A7000E6FF5EC5E6FF5FC5E6FF2DD11AD1180E71
:100A8000006E000E016E83CB04F084CB05F059DCC0
:100A9000580E0026050E01220C0E0024E96E000EF1
:100AA0000120EA6E7ECBE1FF7FCBE2FFEECFE6FFD7
:100AB000EECFE6FFEECFE6FFEECFE6FF180E006EBC
:100AC000000E016E83CB04F084CB05F03ADC580EA7
:100AD0000026050E0122040E0024E96E000E0120FE
:100AE000EA6E80CBE1FF81CBE2FFEECFE6FFEECFF7
:100AF000E6FFEECFE6FFEECFE6FFEDD0180E006E7C
:100B0000000E016E83CB04F084CB05F01ADC580E86
:100B10000026050E0122080E0024E96E000E0120B9
:100B2000EA6E7ECBE1FF7FCBE2FFEECFE6FFEECFBA
:100B3000E6FFEECFE6FFEECFE6FF180E006E000EEA
:100B4000016E83CB04F084CB05F0A1EC01F0580ECC
:100B50000026050E0122040E0024E96E000E01207D
:100B6000EA6E80CBE1FF81CBE2FFEECFE6FFEECF76
:100B7000E6FFEECFE6FFEECFE6FFADD0180E006E3B
:100B8000000E016E83CB04F084CB05F0A1EC01F0E4
:100B9000580E0026050E0122100E0024E96E000EEC
:100BA0000120EA6E7ECBE1FF7FCBE2FFEECFE6FFD6
:100BB000EECFE6FFEECFE6FFEECFE6FF180E006EBB
:100BC000000E016E83CB04F084CB05F0A1EC01F0A4
:100BD000580E0026050E0122040E0024E96E000EB8
:100BE0000120EA6E80CBE1FF81CBE2FFEECFE6FF92
:100BF000EECFE6FFEECFE6FFEECFE6FF6CD0180EAD
:100C0000006E000E016E83CB04F084CB05F0A1ECE6
:100C100001F0580E0026050E0122140E0024E96E84
:100C2000000E0120EA6E7ECBE1FF7FCBE2FFEECF2C
:100C3000E6FFEECFE6FFEECFE6FFEECFE6FF180EC3
:100C4000006E000E016E83CB04F084CB05F0A1ECA6
:100C500001F0580E0026050E0122040E0024E96E54
:100C6000000E0120EA6E80CBE1FF81CBE2FFEECFE8
:100C7000E6FFEECFE6FFEECFE6FFEECFE6FF2BD0AE
:100C80007ECBE1FF7FCBE2FF6CC5E6FF6DC5E6FFE3
:100C90006EC5E6FF6FC5E6FF80CBE1FF81CBE2FFCB
:100CA0005CC5E6FF5DC5E6FF5EC5E6FF5FC5E6FF26
:100CB00012D08251020AD8B4E2D68251010AD8B4C5
:100CC0001DD78251030AD8B459D78251040A97E03C
:080CD0008251000AD5E0120078
:100CD8000D6A086A0050D8B4000C04180A6E0ABEDF
:100CE8000D1E0B6A04AE02D0041E042A00AE02D008
:100CF800001E002A005004100A6E0ABE1FD00450BD
:100D0800085E003600340836045008260036060E01
:100D18000C6E00340836045000B0085E00A00826A7
:100D280000360C2EF6D700A008260BB015D00DAE55
:100D3800000C001E002A081E082A000C04AE09D068
:100D480000BE04D00050086E006AF1D7006A002A7D
:100D5800000C001E0B2AD3D7082A0450085CD8A41C
:0E0D6800E6D7086A002A00AEE2D7FF0C1200A0
:100D7600000E006EFA0E016E000E026E036E120079
:100D8600220E0C6E086A096A0A6A0B6A0C06D8B447
:100D96001FD0D8900B320A3209320832033202329F
:100DA60001320032D8A0F2D70C06D8B409D00450CC
:100DB60008260550092206500A2207500B22EAD7B8
:100DC600045008260550092206500A2207500B2215
:020DD600120009
:100DD800086A096A000E0762036471EF07F002509F
:100DE80006180A6E075003267E0ED8A002EF07F0F9
:100DF800035ED8B075EF07F006EF07F0035ED8A0E2
:100E080079EF07F0028E068E02C00EF001C00BF0DB
:100E180000C00DF000500402F4CF0CF001500502A0
:100E2800F4CF00F0F3CF08F00402F3500C26F4508E
:100E38000822000E00220D500502F3500C26F45033
:100E48000822000E002202500402F3500826F45033
:100E5800002202500502016A000E0122F35000260A
:100E6800F45001220D500602F3500826F4500022D7
:100E7800026A000E012202220B500602F3500026DD
:100E8800F4500122000E02220E500602F3500126F1
:100E9800F450022202BE59EF07F008360036013638
:100EA80002360306D8B479EF07F06CEF07F0D88064
:100EB800800E08640030000E002201220222D8A011
:100EC8006CEF07F0023201320032034A75EF07F087
:100ED8000AAE029E000E7BEF07F0010E22DC7BEFCC
:100EE80007F0020E01DC7BEF07F0040E0DDC1200A8
:100EF8000A6A0350D8A40A800750D8A40A820A5064
:100F0800D8B4DFEF07F0030AD8B498EF07F00AB0B7
:100F180093EF07F006AEDDEF07F0DBEF07F002AE68
:100F2800DBEF07F0DDEF07F00250800B0A6E029E40
:100F38000650800B069E0A18D8B4A9EF07F00A508D
:100F4800D8B4DBEF07F0DDEF07F00750035CD8B447
:100F5800B3EF07F0D8A0CFEF07F0D5EF07F00650B2
:100F6800025CD8B4BDEF07F0D8A0CFEF07F0D5EFFB
:100F780007F00550015CD8B4C7EF07F0D8A0CFEF51
:100F880007F0D5EF07F00450005CD8B4DFEF07F0A6
:100F9800D8B0D5EF07F00A52D8B4DDEF07F0DBEF91
:100FA80007F00A52D8B4DBEF07F0DDEF07F0D8807E
:0E0FB8001200D8901200D880D88412001200C7
:100FC60078CB04F079CB05F004C002F005C003F03D
:100FD600044A052A7ACB00F07BCB01F00B017A4B51
:100FE6007B2B00C0E9FF01C0EAFF02C0E1FF03C09E
:100FF600E2FFEECFE6FF02C0E9FF03C0EAFFEE52D2
:0E10060001E0E2D778CB00F079CB01F01200C8
:101014000C6A0E6A0250D8A423EF08F001C002F053
:1010240000C001F0006A0E860250D8A423EF08F035
:1010340001C002F0016A0E960E880250D8B435EF52
:1010440008F00E50035ED8A4D8A03BEF08F0D89067
:1010540002BE41EF08F0003601360236032E2AEFB5
:1010640008F03BEF08F0010E0C6E95EC03F045EF31
:1010740008F0020E0C6E88EC03F045EF08F0040E45
:081084000C6E84EC03F0120075
:10108C0078CBE9FF79CBEAFFEE5213E051C5E1FFD3
:10109C0052C5E2FF78CBE9FF79CBEAFFEECFE6FF52
:1010AC004FC500F050C501F079DC0B01784B792B62
:1010BC00E7D751C5E1FF52C5E2FF7ACBE6FF4FC53A
:1010CC0000F050C501F06ADC51C5E1FF52C5E2FFEA
:1010DC000A0EE66E4FC500F050C501F05FDC120041
:1010EC00C7B409D01F0EC514016E0150000A03E1EC
:0A10FC00010E006E01D0006A120020
:101106000450000A12E10550000A0FE10650000AD9
:101116000CE10750000A09E1FF0E006EFF0E016E9A
:10112600FF0E026E7F0E036E99D00C6A07BE0C2A64
:101136000D6A0B6A0A6A096A086A035002100110EE
:101146000010D8B485D0035007180E6E0EBE0D1EC3
:1011560007AE0BD0041E051E061E071E042AD8B4B1
:10116600052AD8B4062AD8B4072A03AE0BD0001E27
:10117600011E021E031E002AD8B4012AD8B4022A70
:10118600D8B4032A035007100E6E0EBE1DD0A8EC6D
:1011960003F00CBE36D00DAE5BD0001E011E021E43
:1011A600031E002AD8B4012AD8B4022AD8B4032AC6
:1011B600081E091E0A1E0B1E082AD8B4092AD8B40E
:1011C6000A2AD8B40B2A44D007AE15D003BE0DD0D8
:1011D60003500B6E02500A6E0150096E0050086EE5
:1011E600036A026A016A006AD6D7036A026A016A5A
:1011F600006A002A000C031E021E011E001E0C8E31
:10120600C6D7082AD8B4092AD8B40A2AD8B40B2AC9
:101216000450085CD8A4BFD70550095CD8A4BBD736
:1012260006500A5CD8A4B7D707500B5CD8A4B3D72E
:101236000B6A0A6A096A086A002AD8B4012AD8B46D
:10124600022AD8B4032A03AEA6D70E6A0E88FF0C6C
:0E1256000E6A0CA002D09CEC03F0000F1200F8
:101264000A0108532EE00401FC6B05013E6BFDC42A
:101274007CFBFEC47DFB010E0B017E6F050E7F6FB0
:101284000A0E806F0A0E816FE0EC04F003C5E1FFE3
:1012940004C5E2FFFDC4E6FFFEC4E6FF01C500F09D
:1012A40002C501F0D4EC04F00401FA6BFB6BFDC43D
:1012B400E1FFFEC4E2FFE66A0A01096B086B05015F
:1012C400576B0A0109532EE00401FC6B05013E6BC8
:1012D400FDC47CFBFEC47DFB010E0B017E6F050E7D
:1012E4007F6F0A0E806F0A0E816FE0EC04F003C575
:1012F400E1FF04C5E2FFFDC4E6FFFEC4E6FF01C54D
:1013040000F002C501F0D4EC04F00401FA6BFB6BAD
:10131400FDC4E1FFFEC4E2FFE66A0A01096B086B43
:061324000501576B1200E9
:10132A004ACB02F04BCB03F04DCB00F04ECB01F091
:10133A00010E0B014D5F000E4E5B0050011009E0DB
:10134A0002C0E1FF03C0E2FF4CCBE6FF024A032AD8
:0C135A00EBD74ACB00F04BCB01F01200A7
:101366004ACBAEFB4BCBAFFB57EC01F000C060FBAA
:1013760001C061FB02C062FB03C063FB4CCB64FB94
:101386004DCB65FB4ECB66FB4FCB67FB50CB68FB6B
:1013960051CB69FB52CB6AFB53CB6BFB54CB6CFB3B
:1013A60055CB6DFB56CB6EFB57CB6FFB58CB70FB0B
:1013B60059CB71FB5ACB72FB5BCB73FB5CCB74FBDB
:1013C6005DCB75FB5ECB76FB5FCB77FB4ACBAEFB8B
:1013D6004BCBAFFBD6EC00F0800E0118026E800EF0
:1013E600025C02E1110E005C01E32BD005013D51C8
:1013F600320A01E126D04ACB94FB4BCB95FB36EC67
:1014060003F00050011001E01CD0180E006E000E13
:10141600016E3DC504F0000E056EA1EC01F0580EFC
:101426000024E16E050E0120E26E180E006E600EBD
:10143600E96E0B0EEA6EEECFE6FF0006FCE1050153
:041446003D2B120028
:10144A004ACB05F54BCB06F54CCB00F0010E026EEC
:10145A00005004E002360290FF0FFBD702C029F5C4
:10146A00021C05012A6F4DCB01F0010E006E0150DE
:10147A0004E000360090FF0FFBD700C000F5001E05
:10148A0000C023F5120E0B014A25E96E000E4B210E
:10149A00EA6E0250EF120050EF160501246B0B01A1
:1014AA00525302E00501241F0501120EE95E245180
:1014BA00000A03E02351EF1602D00051EF1256DC66
:1014CA00E80E046E030E056E000E066E076E56DCFD
:1014DA0000C05DFB01C05EFB02C05FFB03C060FB96
:1014EA005DCB53FB5ECB54FB5FCB55FB60CB56FB0E
:1014FA004ECB00F04FCB01F050CB02F051CB03F0B2
:10150A000036009001360236033600360090013666
:10151A00023603360A0E046E000E056E066E076E5C
:10152A002DDC00C057FB01C058FB02C059FB03C0A9
:10153A005AFB00C004F001C005F002C006F003C067
:10154A0007F05DCB00F05ECB01F05FCB02F060CB21
:10155A0003F0D4DD00C05BFB01C05CFB01C004F0FA
:10156A00056A0450051003E0020E006E51D05BCBF1
:10157A0034F557CB04F058CB05F059CB06F05ACBCB
:10158A0007F053CB00F054CB01F055CB02F056CB09
:10159A0003F0B4DD08C000F009C001F00AC002F08F
:1015AA000BC003F000C053FB01C054FB02C055FB43
:1015BA0003C056FB57CB05F058CB06F059CB07F0C2
:1015CA005ACB08F00832073206320532089E08BCA8
:1015DA00088E800E0818046E800E0318045C08E159
:1015EA000250075C05E10150065C02E10050055C0F
:1015FA0002E20501342B34C501F00132019E01C01B
:10160A0033F5070E015C03E2010E006E01D0006A99
:02161A001200BC
:10161C00920E05012F6F030E306F940E316F0B0E6F
:10162C00326FE40E2B6F1F0E2C6F000E2D6F000E01
:10163C002E6FFF0E356FFF0E366F000E376F000EDC
:10164C00386FFF0E396FFF0E3A6F000E3B6F000EB6
:10165C003C6FAC8A900EAB6E948E949C9EAA03D079
:08166C00AECF00F0FBD7120025
:10167400EC0E05010B6F100E0C6F000E0D6F000EBB
:101684000E6FEC0E0F6F160E106F000E116F000E22
:10169400126F480E1B6F1E0E1C6F000E1D6F000E86
:1016A4001E6FC60E1F6F170E206F4A0E216F0B0E92
:1016B400226FA20E136F1E0E146F4A0E156F0B0EBF
:1016C400166FC20E176F170E186F000E196F000EEB
:1016D4001A6F949894968B988B9694889486C79E48
:0816E400C79C380EC66E12000F
:1016EC0080C44CFB81C44DFB82C44EFB83C44FFBB6
:1016FC000B014A6B4B6B4B51120802E14A518E089D
:10170C0008E3EEDC005201E004D00B014A4B4B2BFA
:10171C00F2D70B01120E4B5D02E18F0E4A5D03E313
:10172C007B0E006E27D0C580C5A023D0040180514C
:10173C008111821183111CE00B014C514D114E1182
:10174C004F110FE109C5E1FF0AC5E2FF050EE66E78
:10175C0007C500F008C501F0D4EC04F0010E006ED2
:10176C0009D0010E0B014C5F000E4D5B4E5B4F5BC5
:06177C00DBD7006A120039
:1017820000C008F00150006E016A026A036A0B6A27
:101792000C6A016A026A036A960E036E0A6A00AE56
:1017A200D9EF0BF0081E001E082AD8B4002A0A8EB0
:1017B20000C001F008C000F0086A026A2ADC1200C8
:0417C200C5841200C8
:1017C60080C44CFB81C44DFB82C44EFB83C44FFBDB
:1017D6009E96C5869EB621D0040180518111821144
:1017E60083111AE00B014C514D114E114F110DE1B1
:1017F60009C5E1FF0AC5E2FF030EE66E07C500F064
:1018060008C501F0D4EC04F008D0010E0B014C5FC2
:10181600000E4D5B4E5B4F5BDDD70B01C9CF4BFB1B
:101826004A51000A02E1C58A01D0C59A9E96C5882A
:1018360080C44CFB81C44DFB82C44EFB83C44FFB6A
:101846009EB621D0040180518111821183111AE0C4
:101856000B014C514D114E114F110DE109C5E1FF20
:101866000AC5E2FF030EE66E07C500F008C501F0E3
:10187600D4EC04F008D0010E0B014C5F000E4D5B5A
:0C1886004E5B4F5BDDD74BCB00F0120037
:101892004ACB4EFB4BCB4FFB4CCB50FB4DCB51FBC2
:1018A2000501575302E0DDDCFBD74ECB7CFB4FCB6F
:1018B2007DFB530E0B017E6F050E7F6F0A0E806F4C
:1018C2000A0E816FE0EC04F04ECB78FB4FCB79FB34
:1018D2000D0E7A6F46EC08F00A01096B086B010ED7
:1018E2000501576F0ACA43F50BCA44F50CCA45F500
:1018F2000DCA46F53F6B406B416B426B010E3E6F6A
:101902000501575302E0ADDCFBD705013E6B50CB1E
:1019120078FB51CB79FB1A0E0B017A6F46EC08F07B
:101922000A01096B086B010E0501576F0ACA43F5DC
:101932000BCA44F50CCA45F50DCA46F53F6B406B20
:0A194200416B426B010E3E6F120074
:10194C000B014C6B4D6B4ACB03F04BCB04F04ACBE9
:10195C0005F04BCB06F003C0E9FF04C0EAFFEE50E4
:10196C00200A04E14C514D1101E110D0010E4C6FD5
:10197C00000E4D6F03C0E9FF04C0EAFF05C0E1FF94
:10198C0006C0E2FFEECFE6FF054A062A03C001F0CF
:10199C0004C002F0034A042A01C0E9FF02C0EAFFB6
:1019AC00EE50000AD8E14ACB00F04BCB01F012000C
:1019BC000B01566B576B4ACB52FB4BCB53FB4CCBAF
:1019CC0054FB4DCB55FB5551FF0A08E15451FF0A0E
:1019DC0005E15351FF0A02E15251FF0A0DE14ECBD2
:1019EC0078FB4FCB79FBE70E7A6F040E7B6FE3EC41
:1019FC0007F0030E006EF1D1010E506F54AF0ED0F4
:101A0C00800E5419006E00C054FB502B4ECBE1FFDE
:101A1C004FCBE2FF2D0EE66E4E4B4F2B000E006EA1
:101A2C00551908E10050541905E10050531902E111
:101A3C005251000A0CE14ECB78FB4FCB79FBEB0EED
:101A4C007A6F040E7B6FE3EC07F0006AC6D1555138
:101A5C00FF0A08E15451000A05E15351000A02E162
:101A6C005251000A0DE14ECB78FB4FCB79FB7C0E2B
:101A7C007A6F040E7B6FE3EC07F050CB00F0ADD126
:101A8C00000E046E000E056E000E066E7F0E076EC5
:101A9C0052CB00F053CB01F054CB02F055CB03F0FA
:101AAC007CEC07F0010ED8B0000E006E00521CE06A
:101ABC0052CB00F053CB01F054CB02F055CB03F0DA
:101ACC00000E046E000E056E200E066E820E076E62
:101ADC00ECEC06F000C052FB01C053FB02C054FBFF
:101AEC0003C055FB5707CCD7000E046E000E056ED5
:101AFC00200E066E820E076E52CB00F053CB01F017
:101B0C0054CB02F055CB03F07CEC07F0000ED8B0B0
:101B1C00010E006E00521CE052CB00F053CB01F0D2
:101B2C0054CB02F055CB03F0CD0E046ECC0E056EEB
:101B3C004C0E066E7B0E076EECEC06F000C052FBF2
:101B4C0001C053FB02C054FB03C055FB572BCCD731
:101B5C00FF0E5215086EFF0E5315096E7F0E5415AD
:101B6C000A6E000E55150B6E08C004F009C005F086
:101B7C000AC006F00BC007F0043604900536063692
:101B8C000736000E5215006E000E5315016E000E36
:101B9C005415026EFF0E5515036E00C052FB01C0AA
:101BAC0053FB02C054FB03C055FB04505211006E92
:101BBC0005505311016E06505411026E0750551109
:101BCC00036E00C052FB01C053FB02C054FB03C0A8
:101BDC0055FB7F0E555D006E00C051FB010E556F1D
:101BEC0000C004F052CB00F053CB01F054CB02F008
:101BFC0055CB03F0045007E0003600900136023656
:101C0C000336FF0FF8D700C052FB01C053FB02C0D4
:101C1C0054FB03C055FB4ECBE1FF4FCBE2FF5551BC
:101C2C00300FE66E4E4B4F2B800E5719006E800E08
:101C3C00010A005C08E3800E060A006E800E57193C
:101C4C00005C01E30AD04ECBE1FF4FCBE2FF2E0E3E
:101C5C00E66E4E4B4F2B010E566F060E516F5151C7
:101C6C00000A54E0556B52CB00F053CB01F054CB2F
:101C7C0002F055CB03F000360090013602360336E5
:101C8C00003600900136023603365251002653516D
:101C9C000122545102225551032200C052FB01C0B3
:101CAC0053FB02C054FB03C055FB52CB00F053CB8B
:101CBC0001F054CB02F055CB03F000360090013606
:101CCC000236033600C052FB01C053FB02C054FB6A
:101CDC0003C055FB4ECBE1FF4FCBE2FF5551300F0C
:101CEC00E66E4E4B4F2B5651000A0EE157075751DB
:101CFC00000A0AE14ECBE1FF4FCBE2FF2E0EE66E5F
:101D0C004E4B4F2B010E566F5107A9D7FF0E4E2588
:101D1C00E96EFF0E4F21EA6EEE50300A05E1010E1E
:101D2C004E5F000E4F5BF2D7FF0E4E25E96EFF0E95
:101D3C004F21EA6EEE502E0A04E1010E4E5F000EAA
:101D4C004F5B5751000A43E04ECBE1FF4FCBE2FF14
:101D5C00650EE66E4E4B4F2B800E5719006E800EA3
:101D6C00000A005C0BE24ECBE1FF4FCBE2FF2D0EE5
:101D7C00E66E4E4B4F2B57510008576F57CB51FB0C
:101D8C00800E090A006E800E5719005C0FE20A0ED5
:101D9C00046E51CB00F06CEC06F04ECBE1FF4FCB58
:101DAC00E2FF0050300FE66E4E4B4F2B0A0E046EC6
:101DBC0051CB00F06CEC06F008C000F04ECBE1FF0C
:101DCC004FCBE2FF0050300FE66E4E4B4F2B4ECBFD
:0C1DDC00E1FF4FCBE2FFE66A006A120054
:101DE8004ACB04F04BCB05F004C0E9FF05C0EAFF7D
:101DF800EE5203E0044A052AF7D704C002F005C0F2
:101E080003F0044A052A4CCB00F04DCB01F00B013E
:101E18004C4B4D2B00C0E9FF01C0EAFF02C0E1FFB7
:101E280003C0E2FFEECFE6FF02C0E9FF03C0EAFF0E
:101E3800EE5201E0E2D74ACB00F04BCB01F01200A2
:101E480080C44AFB81C44BFB82C44CFB83C44DFB5A
:101E5800C582C5A221D0040180518111821183114C
:101E68001AE00B014A514B114C114D110DE109C5F6
:101E7800E1FF0AC5E2FF060EE66E07C500F008C5D9
:101E880001F0D4EC04F008D0010E0B014A5F000EFB
:0A1E98004B5B4C5B4D5BDDD7120085
:101EA2009E964ACBC9FF80C44BFB81C44CFB82C4C3
:101EB2004DFB83C44EFBC7A423D004018051811182
:101EC200821183111CE00B014B514C114D114E112B
:101ED2000FE109C5E1FF0AC5E2FF040EE66E07C580
:101EE20000F008C501F0D4EC04F0010E006E3CD005
:101EF200010E0B014B5F000E4C5B4D5B4E5BDBD763
:101F020080C44BFB81C44CFB82C44DFB83C44EFB9B
:101F12009EB623D0040180518111821183111CE0ED
:101F22000B014B514C114D114E110FE109C5E1FF4F
:101F32000AC5E2FF040EE66E07C500F008C501F00F
:101F4200D4EC04F0010E006E0FD0010E0B014B5FBA
:101F5200000E4C5B4D5B4E5BDBD7C5BC02D0006A0A
:0A1F620003D0C584020E006E1200C9
:101F6C000900F5CFE6FF0006FBE10106F9E11200DE
:101F7C0092909490220EAF6EAC840EEC0BF0800E0F
:101F8C000B014A6F0F0E4B6F010E4C6F040E4D6F11
:101F9C00800E4E6F250E4F6F000E506F516F526BAF
:101FAC0025EC0AF0280EC86E3AEC0BF0010ECD6E43
:101FBC009E90F00ECF6E600ECE6E9D80C00EF26EB7
:101FCC009D8A9E9AF28CF28EA00E0B01AE6F040EBF
:081FDC00AF6F11EC01F01200DF
:101FE400AECF01F0ABA202D0AB98AB8801C000F039
:021FF4001200D9
:101FF60005013E5338E03FC504F040C505F041C534
:1020060006F042C507F0010E3F25006E000E402186
:10201600016E000E4121026E000E4221036E00C0C9
:102026003FF501C040F502C041F503C042F5075037
:10203600465D08E10650455D05E10550445D02E157
:102046000450435D10E23E6B3F6B406B416B426B4D
:102056000401FA51FD25E16EFB51FE21E26EE66AAE
:10206600010E0A01096F0401FC533BE047C504F069
:1020760048C505F049C506F04AC507F0010E050139
:102086004725006E000E4821016E000E4921026EA2
:10209600000E4A21036E00C047F501C048F502C094
:1020A60049F503C04AF507504E5D08E106504D5DFF
:1020B60005E105504C5D02E104504B5D12E204015E
:1020C600FC6B0501476B486B496B4A6B0401FA517F
:1020D600FD25E16EFB51FE21E26EE66A010E0A0164
:0420E600086F12006D
:1020EA000A01096B086B010E0501576F476B486BB4
:1020FA00496B4A6B010E0401FC6FFA51FD25E16E32
:10210A00FB51FE21E26EB9CBE6FF010EFA25006E05
:10211A00000EFB21016E00C0FAF401C0FBF41200AC
:10212A000A01106B116B76EC0BF0900E0B014A6FE3
:10213A00B3DE0B014A6BB0DE82DE910E0B014A6FF1
:10214A00ABDE010E0B014A6FE3EC0BF000C010FA94
:10215A000B014A6BE3EC0BF000C011FAE1EC0BF057
:10216A0010CA01F0006A0A0111510010046E01C080
:10217A0005F0000E051204C002F005C003F0033298
:10218A000232039E03320232039E03320232039E5C
:10219A0003320232039E02C00EFA03C00FFA03A6EC
:1021AA0004D0000E0E13F80E0F130ECA00F00FCA59
:1021BA0001F0C1EC0BF0000E046E000E056E000E6D
:1021CA00066E7B0E076EECEC06F000C070F401C0E0
:0C21DA0071F402C072F403C073F4120030
:1021E6000A010E6B0F6B106B116B126B136B146B7A
:1021F600156B166B176B186B196B1A6B1B6B1C6BBD
:102206001D6B1E6B1F6B206B216B226B236B246B6C
:10221600256B266B276B286B296B2A6B2B6B2C6B1C
:102226002D6B2E6B2F6B306B316B326B336B346BCC
:10223600356B366B376B386B396B3A6B3B6B3C6B7C
:102246003D6B3E6B3F6B406B416B426B436B446B2C
:10225600456B466B476B486B496B4A6B4B6B4C6BDC
:102266004D6B4E6B4F6B506B516B526B536B546B8C
:10227600556B566B576B586B596B5A6B5B6B5C6B3C
:102286005D6B5E6B5F6B606B616B626B636B646BEC
:10229600656B666B676B686B696B6A6B6B6B6C6B9C
:1022A6006D6B6E6B6F6B706B716B726B736B746B4C
:1022B600756B766B776B786B796B7A6B7B6B7C6BFC
:1022C6007D6B7E6B7F6B806B816B826B836B846BAC
:1022D600856B866B876B886B896B8A6B8B6B8C6B5C
:1022E6008D6B8E6B8F6B906B916B926B936B946B0C
:1022F600956B966B976B986B996B9A6B9B6B9C6BBC
:102306009D6B9E6B9F6BA06BA16BA26BA36BA46B6B
:10231600A56BA66BA76BA86BA96BAA6BAB6BAC6B1B
:10232600AD6BAE6BAF6BB06BB16BB26BB36BB46BCB
:10233600B56BB66BB76BB86BB96BBA6BBB6BBC6B7B
:10234600BD6BBE6BBF6BC06BC16BC26BC36BC46B2B
:10235600C56BC66BC76BC86BC96BCA6BCB6BCC6BDB
:10236600CD6BCE6BCF6BD06BD16BD26BD36BD46B8B
:10237600D56BD66BD76BD86BD96BDA6BDB6BDC6B3B
:10238600DD6BDE6BDF6BE06BE16BE26BE36BE46BEB
:10239600E56BE66BE76BE86BE96BEA6BEB6BEC6B9B
:1023A600ED6BEE6BEF6BF06BF16BF26BF36BF46B4B
:1023B600F56BF66BF76BF86BF96BFA6BFB6BFC6BFB
:1023C600FD6BFE6BFF6B0B01006B016B026B036B0E
:1023D600046B056B066B076B086B096B0A6B0B6B63
:1023E6000C6B0D6B0E6B0F6B106B116B126B136B13
:1023F600146B156B166B176B186B196B1A6B1B6BC3
:102406001C6B1D6B1E6B1F6B206B216B226B236B72
:10241600246B256B266B276B286B296B2A6B2B6B22
:102426002C6B2D6B2E6B2F6B306B316B326B336BD2
:10243600346B356B366B376B386B396B3A6B3B6B82
:102446003C6B3D6B3E6B3F6B406B416B426B436B32
:10245600446B456B466B476B486B496B2C0E4A6F5A
:102466000A0E4B6F220E4C6F000E4D6FBADC2C0E0F
:102476004A6F0A0E4B6F5C0E4C6F040E4D6FB1DC4B
:102486004A0E4A6F0A0E4B6F2B0E4C6F000E4D6FA5
:10249600A8DC70C44AFB71C44BFB72C44CFB73C40A
:1024A6004DFB0E0E4E6F0A0E4F6FDEEC0CF00E0E4D
:1024B6004A6F0A0E4B6FA6EC0CF000C04CFB01C035
:1024C6004DFB4A0E4A6F0A0E4B6F8BDC4A0E4A6F63
:1024D6000A0E4B6F1F0E4C6F000E4D6F82DC2C0EDA
:1024E6004A6F0A0E4B6F4A0E4C6F0A0E4D6F49EC3F
:0424F6000CF01200D4
:1024FA000A01185119111A111B1108E125C518FAF8
:10250A0026C519FA27C51AFA28C51BFA1451151136
:10251A001611171108E125C514FA26C515FA27C59B
:10252A0016FA28C517FA1C511D111E111F1108E1B0
:10253A0025C51CFA26C51DFA27C51EFA28C51FFA85
:10254A00205121112211231108E125C520FA26C59F
:10255A0021FA27C522FA28C523FA1051111112119E
:10256A00131107E1F40E106F010E116F000E126FB6
:10257A00136F0ECA4AFB0FCA4BFB10CA4CFB11CA97
:10258A004DFB12CA4EFB13CA4FFB14CA50FB15CAA5
:10259A0051FB16CA52FB17CA53FB18CA54FB19CA75
:1025AA0055FB1ACA56FB1BCA57FB1CCA58FB1DCA45
:1025BA0059FB1ECA5AFB1FCA5BFB20CA5CFB21CA15
:1025CA005DFB22CA5EFB23CA5FFBB3EC09F0120073
:1025DA000ECA25F50FCA26F510CA27F511CA28F51D
:1025EA0012CA4FF513CA50F514CA51F515CA52F555
:1025FA000501436B446B456B466B3F6B406B416B0C
:10260A00426B320E4B6F000E4C6F4D6F4E6F476B25
:10261A00486B496B4A6B0401FF6B05013E6B040171
:10262A00FC6B0A01086B096B0501576B16CAFDF4AE
:10263A0017CAFEF418CAF8F419CAF9F40401FA6BB5
:10264A00FB6B16CA4AFB17CA4BFB0B014C6B18CA29
:10265A004DFB19CA4EFB95EC09F005013D6B0401CF
:10266A00FF6B320EFF5DD8B08ED0180E006E000ED2
:10267A00016EFFC404F0000E056EA1EC01F0580EC5
:10268A000024E16E050E0120E26EE66AE66AE66A59
:10269A00E66A180E006E000E016EFFC404F0000E0A
:1026AA00056EA1EC01F0580E0026050E0122040E5B
:1026BA000024E16E000E0120E26EE66AE66AE66A2E
:1026CA00E66A180E006E000E016EFFC404F0000EDA
:1026DA00056EA1EC01F0580E0026050E0122080E27
:1026EA000024E16E000E0120E26EE66AE66AE66AFE
:1026FA00E66A180E006E000E016EFFC404F0000EAA
:10270A00056EA1EC01F0580E0026050E01220C0EF2
:10271A000024E16E000E0120E26EE66AE66AE66ACD
:10272A00E66A180E006E000E016EFFC404F0000E79
:10273A00056EA1EC01F0580E0026050E0122100EBE
:10274A000024E16E000E0120E26EE66AE66AE66A9D
:10275A00E66A180E006E000E016EFFC404F0000E49
:10276A00056EA1EC01F0580E0026050E0122140E8A
:10277A000024E16E000E0120E26EE66AE66AE66A6D
:10278A00E66AFF2B6ED75B0E0B01AE6F040EAF6FBE
:10279A0057EC01F000C01AFA01C01BFA02C01CFA79
:1027AA0003C01DFAF40E0A011E6F010E1F6F000E00
:1027BA00206F216F0ECA22FA0FCA23FA10CA24FA0E
:1027CA0011CA25FA0ECA26FA0FCA27FA10CA28FA17
:1027DA0011CA29FA0ECA2AFA0FCA2BFA10CA2CFAF7
:1027EA0011CA2DFA0ECA2EFA0FCA2FFA10CA30FAD7
:1027FA0011CA31FA180E006E000E016E3DC504F0C2
:10280A00000E056EA1EC01F0580E0024E16E050ED3
:10281A000120E26E180E006E1A0EE96E0A0EEA6EBA
:0E282A00EECFE6FF0006FCE105013D2B12009B
:102838000ECA10FA0FCA11FA0501575303E032EC19
:1028480009F0FAD710CA7CFB11CA7DFB530E0B01A5
:102858007E6F050E7F6F0A0E806F0A0E816FE0ECA7
:1028680004F010CA78FB11CA79FB0D0E7A6F46EC9A
:1028780008F00A01096B086B010E0501576F0ACAB7
:1028880043F50BCA44F50CCA45F50DCA46F53F6B2E
:0C289800406B416B426B010E3E6F120062
:1028A4008990020E0A6E960E0B6ED80E0C6E080EF0
:1028B4000D6E0D2EFED70C2EFCD70B2EFAD70A2E3A
:1028C400F8D700008980F40E0B6E820E0C6E050E94
:1028D4000D6E0D2EFED70C2EFCD70B2EFAD7840EC0
:0E28E4000B01AE6F040EAF6F11EC01F012008D
:1028F20070EC17F00401F76BBEEC0FF0D2DFA00E04
:102902000A010E6F030E0F6F940E106F0B0E116FF4
:10291200920E126F030E136F940E146F0B0E156F3F
:102922003A0E166F000E176F000E186F040E196F15
:1029320053DE520E0A010E6F040E0F6FE80E106F77
:10294200030E116F000E126F136F146B156B166B63
:10295200176B186B196B1A6B1B6B1C6B1D6B1E6B49
:102962001F6BF80E206F030E216F940E226F0B0E59
:10297200236FC2DD580E0A010E6F040E0F6F5BDF6C
:102982003A0E0A010E6F040E0F6F55DF480E0A0150
:102992000E6F040E0F6F4FDF32EC09F00401F75394
:1029A2001DE095EC10F0740E0E6F040E0F6F43DFF6
:1029B2009C0E0A010E6F040E0F6F3DDFA30E0B6E0D
:1029C200570E0C6E020E0D6E0D2EFED70C2EFCD77E
:1029D2000B2EFAD7000006DC0401F76BDDD7FFD718
:102EE00010EE1FF0D80E006E050E016EE20EF66EAB
:0E2EF000290EF76E000EF86EB6EC0FF0120011
:0329E2002043008F
:0929E50041542B434D47533D00C2
:0F29EE0054656D7065726174757265203A2000D2
:1029FD0000000000000000000000000000000000CA
:102A0D0000000000000000000000000000000000B9
:102A1D0000000000000000000000000000000000A9
:102A2D000000000000000000000000000000000099
:0E2DFD0041542B435343533D2247534D220074
:0A2E0B0041542B434D47463D310072
:062E15002B434C43430077
:032E1B004154001F
:012E1E0000B3
:102E1F0000000000000000000000000000000000A3
:042E2F00000000009F
:042E3300000000009B
:082E370041542B434C434300BE
:042E3F00494E4600B2
:042E4300000000008B
:102E47000D0A536B797769726520496E69746961F8
:082E57006C697A65640D0A0044
:042E5F004154480092
:102E63000D0A5F5F5F5F5F5F5F5F5F5F5F5F5F5F16
:102E73005F5F5F5F5F5F5F5F5F5F5F5F5F5F5F5F5F
:102E83005F0D0A2053797374656D20496E69746907
:092E9300616C697A65640D0A00A6
:0E2E9C00526573706F6E7365203A200D0A0048
:042EAA004E614E0027
:022EAE003000F2
:032EB0000D0A0008
:072EB3000D0A52494E4700D1
:012EBA000017
:012EBB000016
:012EBC000015
:012EBD000014
:012EBE000013
:0F2EBF0000000000000000000000000000000004
:012ECE000003
:022ECF00000001
:0F2ED100000000000000000000000000000000F2
:020000040030CA
:0E00000015137F7CF98B91FFFFC0FFE0FF40DE
:00000001FF
