:04000000C0EF3DF020
:1000080000C01CF001C01BF002C01AF003C019F0B8
:1000180004C018F005C017F006C016F007C015F0A8
:10002800E1CF1DF0E2CF1EF09EAA06D083EC35F09A
:1000380000C0D5FB8CEC35F0F2A407D0F2949E0EEC
:10004800D76E580ED66EAAEC35F01CC000F01BC057
:1000580001F01AC002F019C003F018C004F017C06C
:1000680005F016C006F015C007F01DC0E1FF1EC060
:04007800E2FF110092
:10007C001D0E0C6E910E0D6E0D2EFED70C2EFCD798
:02008C00120060
:0A008E000000000000000000120056
:0E009800026A016A006A086A036A000E12001A
:0C00A600420E0D6E0D2EFED70000120061
:1000B2000B820BAE63EF00F0036802680168006810
:0800C2000A360232FF0E1200A3
:1000CA000B840BAE70EF00F0010E036E026A016A38
:0A00DA00006A0A360232FF0E12001F
:0800E4000AAE029E000E12009C
:1000EC000CB0B8EF00F00CA25EEF01F00E6A000E3F
:1000FC000264CFEF00F0F00E0214D8A49AEF00F0D7
:10010C00023A01380F0B02260138F00B016E003851
:10011C000F0B01260038F00B006E08380F0B002671
:10012C000838F00B086E0E84D89002BEB3EF00F0C6
:10013C0008360036013602360E2A02BEB3EF00F046
:10014C0008360036013602360E2A02BEB3EF00F036
:10015C0008360036013602360E2A0E50036454EF70
:10016C0001F0035E0BBC08AE59EF01F0D880800E95
:10017C0008640030000E002201220222D8A059EFA0
:10018C0001F0023201320032034A5EEF01F059EF06
:10019C0001F001C002F000C001F008C000F0086AD4
:1001AC00000E0E86026406EF01F0F00E0214D8A4C5
:1001BC00EEEF00F0023A01380F0B02260138F00B7B
:1001CC00016E00380F0B01260038F00B006E0E8408
:1001DC00D89002BEB3EF00F00036013602360E2A7C
:1001EC0002BEB3EF00F00036013602360E2A02BE14
:1001FC00B3EF00F00036013602360E2AB3EF00F0F2
:10020C0001C002F000C001F0006A000E0E960E88CC
:10021C00026433EF01F0F00E0214D8A41EEF01F0CB
:10022C00023A01380F0B02260138F00B016E0E84D6
:10023C00D89002BEB3EF00F0013602360E2A02BE91
:10024C00B3EF00F0013602360E2A02BEB3EF00F017
:10025C00013602360E2AB3EF00F001C002F0016A3B
:10026C00000E0E86026463EF01F0F00E0214D8A4A7
:10027C0042EF01F0023A0E84D89002BEB3EF00F0C8
:10028C0002360E2A02BEB3EF00F002360E2A02BE70
:10029C00B3EF00F002360E2AB3EF00F0010E0C6E35
:1002AC000EDF66EF01F0020E0C6E16DF66EF01F04A
:1002BC00040E0C6EF8DE66EF01F0080E0C6EE6DE36
:0202CC0012001E
:1002CE000B01D4BF02D0819601D08186D4BD02D05D
:1002DE00819401D08184D4BB02D0819201D08182DD
:1002EE00D4B902D0819001D08180090144B102D0ED
:1002FE00818801D08198818AC3DE819A0B01D4B79F
:10030E0002D0819601D08186D4B502D0819401D0DD
:10031E008184D4B302D0819201D08182D4B102D033
:10032E00819001D08180090144B102D0818801D031
:10033E008198818AA5DE819A44A102D098DE01D0EF
:04034E00ABDE120010
:10035200086A096A000E076203642EEF02F0025077
:1003620006180A6E075003267E0ED8A0BFEF01F0D2
:10037200035ED8B032EF02F0C3EF01F0035ED8A003
:1003820036EF02F0028E068E02C00EF001C00BF0B4
:1003920000C00DF000500402F4CF0CF00150050231
:1003A200F4CF00F0F3CF08F00402F3500C26F4501F
:1003B2000822000E00220D500502F3500C26F450C4
:1003C2000822000E002202500402F3500826F450C4
:1003D200002202500502016A000E0122F35000269B
:1003E200F45001220D500602F3500826F450002268
:1003F200026A000E012202220B500602F35000266E
:10040200F4500122000E02220E500602F350012681
:10041200F450022202BE16EF02F008360036013610
:1004220002360306D8B436EF02F029EF02F0D88084
:10043200800E08640030000E002201220222D8A0A1
:1004420029EF02F0023201320032034A32EF02F0A7
:100452000AAE029E000E38EF02F0010E1CDE38EFEB
:1004620002F0020E25DE38EF02F0040E2DDE12003D
:100472000D6A086A0050D8B4000C04180A6E0ABE4D
:100482000D1E0B6A04AE02D0041E042A00AE02D076
:10049200001E002A005004100A6E0ABE1FD004502B
:1004A200085E003600340836045008260036060E70
:1004B2000C6E00340836045000B0085E00A0082616
:1004C20000360C2EF6D700A008260BB015D00DAEC4
:1004D200000C001E002A081E082A000C04AE09D0D7
:1004E20000BE04D00050086E006AF1D7006A002AEC
:1004F200000C001E0B2AD3D7082A0450085CD8A48B
:0E050200E6D7086A002A00AEE2D7FF0C12000E
:100510000134083609360450085E0550D8A0053C61
:10052000095E003601360F0E0C6E013408360936AE
:10053000045000A006D0085E0550D8A0053C095E16
:1005400005D008260550D8B0053C092600360136EE
:100550000C2EEBD700B006D0045008260550D8B0BA
:08056000053C09260000120011
:080568000B6A0B86FF0E120066
:10057000025006180E6E086A096A0B6A0350076477
:10058000ABEF03F006500A6E068E028E03500B6E20
:100590000750036E000E0B64FBEF02F00B50075E7A
:1005A000D8B49CEF03F0070E07646AEF03F0075E10
:1005B00000C008F001C000F002C001F0026A074E5E
:1005C0009CEF03F007643FEF03F0075E00C008F004
:1005D00001C000F0016A074E9CEF03F007641DEFB5
:1005E00003F0075E00C008F0006A074E9CEF03F0BE
:1005F000076404EF03F00AC002F005C001F004C074
:1006000000F0086AC8EF04F0030E07640FEF03F070
:10061000075E08380F0B086E074E9CEF03F0D8906A
:100620000832074E9CEF03F0D8900832074E9CEF3B
:1006300003F0D89008329CEF03F0030E07642EEF0E
:1006400003F0075E08380F0B086E0038F00B082621
:1006500000380F0B006E074E9CEF03F0D89000326D
:100660000832074E9CEF03F0D89000320832074E54
:100670009CEF03F0D890003208329CEF03F0030E99
:10068000076456EF03F0075E08380F0B086E00385A
:10069000F00B082600380F0B006E0138F00B002617
:1006A00001380F0B016E074E9CEF03F0D89001321A
:1006B00000320832074E9CEF03F0D890013200322E
:1006C0000832074E9CEF03F0D89001320032083216
:1006D0009CEF03F0030E076487EF03F0075E083812
:1006E0000F0B086E0038F00B082600380F0B006E59
:1006F0000138F00B002601380F0B016E0238F00BA9
:10070000012602380F0B026E074E9CEF03F0D890C3
:100710000232013200320832074E9CEF03F0D890CB
:100720000232013200320832074E9CEF03F0D890BB
:100730000232013200320832096A000E0EAE90EF2A
:1007400004F0081E001E011E021E082A00220122BB
:10075000022290EF04F00750D8A4B1EF03F0C8EFE5
:1007600004F0096A02C00AF0028E068E0750035C8C
:10077000076ED8B483EF04F0070E076451EF04F05E
:10078000075E0450096E0550046E0650056E066A39
:10079000074E83EF04F0070E076426EF04F0075EB0
:1007A0000450096E0550046E056A074E83EF04F08D
:1007B000070E076404EF04F0075E0450096E046A34
:1007C000074E83EF04F0070E0764EBEF03F00AC057
:1007D00002F0C8EF04F0030E0764F6EF03F0075EC3
:1007E00009380F0B096E074E83EF04F0D8900932D9
:1007F000074E83EF04F0D8900932074E83EF04F0E0
:10080000D890093283EF04F0030E076415EF04F06B
:10081000075E09380F0B096E0438F00B09260438FF
:100820000F0B046E074E83EF04F0D89004320932A8
:10083000074E83EF04F0D89004320932074E83EF5D
:1008400004F0D8900432093283EF04F0030E0764F9
:100850003DEF04F0075E09380F0B096E0438F00B0A
:10086000092604380F0B046E0538F00B04260538F2
:100870000F0B056E074E83EF04F0D890053204325B
:100880000932074E83EF04F0D89005320432093262
:10089000074E83EF04F0D89005320432093283EF1B
:1008A00004F0030E07646EEF04F0075E09380F0BC7
:1008B000096E0438F00B092604380F0B046E053856
:1008C000F00B042605380F0B056E0638F00B0526D5
:1008D00006380F0B066E074E83EF04F0D8900632F1
:1008E000053204320932074E83EF04F0D890063205
:1008F000053204320932074E83EF04F0D8900632F5
:10090000053204320932086A000E0EAE90EF04F090
:10091000091E041E051E061E092A0422052206229F
:1009200009500826045000220550012206500222D8
:100930000EBEA7EF04F0D8A0B6EF04F002320132E9
:1009400000320832033EB6EF04F0C2EF04F0D8B034
:10095000BCEF04F0000E081E001E011E021E082A35
:100960000022012202220A7EBCEF04F0010E0C6E6E
:1009700076EC00F0CAEF04F0020E0C6E76EC00F09C
:10098000CAEF04F0040E0C6E59EC00F0CAEF04F04C
:06099000000E0C6E1200C7
:100996000B800BAED7EF04F0026A0AAEFF0E026EB2
:0C09A600016E006E0A360232FF0E1200D5
:1009B200086A080E0C6E003408360450085ED8B07F
:0E09C20002D00826D89000360C2EF5D7120071
:0E09D00009014491D3CBD4FB7ADC44811200A0
:1009DE000B01D307D307D3CB01F0D3070150000887
:1009EE0003E200000000F7D7000000000000000046
:0409FE0000001200E3
:100A0200CECBE9FFCFCBEAFFEE500B01D01905E1C7
:100A1200CECB00F0CFCB01F010D0CECB00F0CFCBBD
:100A220001F0CE4BCF2B00C0E9FF01C0EAFFEECFB1
:0C0A320000F00052E5E1006A016A1200C9
:100A3E00D2CB00F00B01D207005228E0CECBE9FF5B
:100A4E00CFCBEAFFEE50000A0CE0CECBE9FFCFCBC6
:100A5E00EAFFD0CBD9FFD1CBDAFFEE50DE1801E1A1
:100A6E000FD0CECBE9FFCFCBEAFFD0CBD9FFD1CB86
:100A7E00DAFFDE50EE5C006E016A000E015A08D0FD
:100A8E000B01CE4BCF2BD04BD12BD2D7006A016AA4
:020A9E00120044
:100AA00010D0800E0B01CE6F1AD0C00ECE6F17D0B3
:100AB000940ECE6F14D0D40ECE6F11D0800ECE6FA8
:100AC0000ED00B01CE51010AECE0CE51020AEDE04E
:100AD000CE51030AEDE0CE51040AEDE0EFD7CF0589
:100AE000006ECE51002600C0CEFB00C0D4FB67ECE8
:100AF00001F044910B01D26BD251D025E96E000E6A
:100B0000D121EA6EEE520CE0D251D025E96E000EF2
:100B1000D121EA6EEECFD3FB5BDF0B01D22BECD7FA
:060B2000090144811200EE
:100B26000050086E0150006E0250016E0350026EB6
:100B3600036A0B6A0C6A9E0E036E0A6A020E0C6E3C
:060B460076EC00F0120045
:100B4C00CECB02F0CFCB03F002C000F003C001F01B
:100B5C00024A032A00C0E9FF01C0EAFFEE5201E09D
:100B6C00F3D70B01CE51025C006ECF510358016ECE
:0A0B7C00010E005E000E015A120087
:100B8600010E0B01CF6F090132510B01CE1B45C976
:100B9600E9FF46C9EAFF09013251000A03E047515D
:100BA600EF1202D04851EF1633C9D3FB15DFCE1F23
:100BB600CF531BE0CF51CE15006E04E1090147511A
:100BC600EF1203D009014851EF160B01CF37CF9131
:100BD600020E0901335D0B01D36FFEDE000000003B
:100BE6000000000000000000E3D709013251000AAE
:100BF60003E04851EF1602D04751EF1233C9D3FB39
:040C0600EBDE12000F
:100C0A0003500718D8A419EF06F002500618D8A402
:100C1A0019EF06F001500518D8A419EF06F0005094
:0E0C2A000418D8B4D8841200D8941200120016
:100C38000A6A0350D8A40A800750D8A40A820A5026
:100C4800D8B47FEF06F0030AD8B438EF06F00AB03C
:100C580033EF06F006AE7DEF06F07BEF06F002AE4E
:100C68007BEF06F07DEF06F00250800B0A6E029EC5
:100C78000650800B069E0A18D8B449EF06F00A50B1
:100C8800D8B47BEF06F07DEF06F00750035CD8B4CC
:100C980053EF06F0D8A06FEF06F075EF06F0065098
:100CA800025CD8B45DEF06F0D8A06FEF06F075EFE0
:100CB80006F00550015CD8B467EF06F0D8A06FEFD6
:100CC80006F075EF06F00450005CD8B47FEF06F02C
:100CD800D8B075EF06F00A52D8B47DEF06F07BEF76
:100CE80006F00A52D8B47BEF06F07DEF06F0D88004
:0E0CF8001200D8901200D880D884120012008A
:100D06000450000A08E10550000A05E1FF0E006ED6
:100D16007F0E016E58D00D6A096A086A01500010EC
:100D2600D8B4000C015005180A6E0ABE0D1E0B6AD7
:100D360005AE05D0041E051E042AD8B4052A01AE48
:100D460005D0001E011E002AD8B4012A0150051044
:100D56000A6E0ABE10D088EC02F00BB020D00DAEA1
:100D6600000C001E011E002AD8B4012A081E091E06
:100D7600082AD8B4092A000C05AE0DD001BE07D04A
:100D86000150096E0050086E016A006AE8D7016AD0
:100D9600006A002A000C011E001E0B2ADDD7082A55
:100DA600D8B4092A0450085CD8A4D9D70550095CE0
:100DB600D8A4D5D7096A086A002AD8B4012A01AE90
:080DC600CED70000FF0C120063
:100DCE00800E0B01CE19006E800E000A005CD8B0AA
:100DDE006DD1CE510008016E01C0CEFB800E011800
:100DEE00006E800E6E0A005CD8A0C0D0640E046E39
:100DFE00CECB00F039EC02F0120E0024056E000E80
:100E0E0000BEFF0E066E000E062205C000F006C0E4
:100E1E0001F0000E06BEFF0E026E036E003600904D
:100E2E00013602360336003600900136023603369E
:100E3E00200E0024F66E850E0120F76E000E0220A5
:100E4E00F86E0900F5CFCFFB0900F5CFD0FB0900F6
:100E5E00F5CFD1FB0900F5CFD2FB640E046ECECBDD
:100E6E0000F039EC02F008C000F00A0E046E39EC06
:100E7E0002F0090E0024056E000E00BEFF0E066E77
:100E8E00000E062205C000F006C001F0000E06BEE0
:100E9E00FF0E026E036E00360090013602360336E8
:100EAE0000360090013602360336200E0024F66E10
:100EBE00850E0120F76E000E0220F86E0900F5CFA8
:100ECE0000F00900F5CF01F00900F5CF02F009009E
:100EDE00F5CF03F0CFCB04F0D0CB05F0D1CB06F09D
:100EEE00D2CB07F0A9EC01F000C0CFFB01C0D0FBC4
:100EFE0002C0D1FB03C0D2FB0A0E046ECECB00F0B3
:100F0E0039EC02F008C000F000C001F0000E00BE87
:100F1E00FF0E026E036E046E01360190023603362A
:100F2E00043601360190023603360436200E0124B3
:100F3E00F66E850E0220F76E000E0320F86E090085
:100F4E00F5CF00F00900F5CF01F00900F5CF02F062
:100F5E000900F5CF03F0CFCB04F0D0CB05F0D1CB09
:100F6E0006F0D2CB07F0A9EC01F007D2800E0A0AE8
:100F7E00006E800ECE19005C71E20A0E046ECECBAE
:100F8E0000F039EC02F0090E0024056E000E00BED2
:100F9E00FF0E066E000E062205C000F006C001F020
:100FAE00000E06BEFF0E026E036E00360090013676
:100FBE000236033600360090013602360336200E16
:100FCE000024F66E850E0120F76E000E0220F86EDC
:100FDE000900F5CFCFFB0900F5CFD0FB0900F5CF07
:100FEE00D1FB0900F5CFD2FB0A0E046ECECB00F07A
:100FFE0039EC02F008C000F000C001F0000E00BE97
:10100E00FF0E026E036E046E013601900236033639
:10101E00043601360190023603360436200E0124C2
:10102E00F66E850E0220F76E000E0320F86E090094
:10103E00F5CF00F00900F5CF01F00900F5CF02F071
:10104E000900F5CF03F0CFCB04F0D0CB05F0D1CB18
:10105E0006F0D2CB07F0A9EC01F08FD1CECB00F089
:10106E00000ECEBFFF0E016E026E036E00360090B4
:10107E00013602360336003600900136023603364C
:10108E00200E0024F66E850E0120F76E000E022053
:10109E00F86E0900F5CF00F00900F5CF01F0090058
:1010AE00F5CF02F00900F5CF03F067D1800ECE190F
:1010BE00006E800E6E0A005CD8A0C0D0640E046E66
:1010CE00CECB00F039EC02F0120E0024056E000EAD
:1010DE0000BEFF0E066E000E062205C000F006C012
:1010EE0001F0000E06BEFF0E026E036E003600907B
:1010FE0001360236033600360090013602360336CC
:10110E00EC0E0024F66E840E0120F76E000E022007
:10111E00F86E0900F5CFCFFB0900F5CFD0FB090023
:10112E00F5CFD1FB0900F5CFD2FB640E046ECECB0A
:10113E0000F039EC02F008C000F00A0E046E39EC33
:10114E0002F0090E0024056E000E00BEFF0E066EA4
:10115E00000E062205C000F006C001F0000E06BE0D
:10116E00FF0E026E036E0036009001360236033615
:10117E0000360090013602360336EC0E0024F66E71
:10118E00840E0120F76E000E0220F86E0900F5CFD6
:10119E0000F00900F5CF01F00900F5CF02F00900CB
:1011AE00F5CF03F0CFCB04F0D0CB05F0D1CB06F0CA
:1011BE00D2CB07F0A9EC01F000C0CFFB01C0D0FBF1
:1011CE0002C0D1FB03C0D2FB0A0E046ECECB00F0E0
:1011DE0039EC02F008C000F000C001F0000E00BEB5
:1011EE00FF0E026E036E046E013601900236033658
:1011FE00043601360190023603360436EC0E012415
:10120E00F66E840E0220F76E000E0320F86E0900B3
:10121E00F5CF00F00900F5CF01F00900F5CF02F08F
:10122E000900F5CF03F0CFCB04F0D0CB05F0D1CB36
:10123E0006F0D2CB07F0A9EC01F09FD0800E0A0A7F
:10124E00006E800ECE19005C71E20A0E046ECECBDB
:10125E0000F039EC02F0090E0024056E000E00BEFF
:10126E00FF0E066E000E062205C000F006C001F04D
:10127E00000E06BEFF0E026E036E003600900136A3
:10128E000236033600360090013602360336EC0E77
:10129E000024F66E840E0120F76E000E0220F86E0A
:1012AE000900F5CFCFFB0900F5CFD0FB0900F5CF34
:1012BE00D1FB0900F5CFD2FB0A0E046ECECB00F0A7
:1012CE0039EC02F008C000F000C001F0000E00BEC4
:1012DE00FF0E026E036E046E013601900236033667
:1012EE00043601360190023603360436EC0E012424
:1012FE00F66E840E0220F76E000E0320F86E0900C3
:10130E00F5CF00F00900F5CF01F00900F5CF02F09E
:10131E000900F5CF03F0CFCB04F0D0CB05F0D1CB45
:10132E0006F0D2CB07F0A9EC01F027D0CECB00F01F
:10133E00000ECEBFFF0E016E026E036E00360090E1
:10134E000136023603360036009001360236033679
:10135E00EC0E0024F66E840E0120F76E000E0220B5
:10136E00F86E0900F5CF00F00900F5CF01F0090085
:0C137E00F5CF02F00900F5CF03F01200DB
:10138A000B01CE51390806E3300ECE5D03E3010EA0
:08139A00006E01D0006A120090
:1013A2000B6A0C6A0A6A086A0350D8B459EF0AF049
:1013B200028E9E0E035E03BEE4EF09F0D8B4E4EFA2
:1013C20009F049EF0AF0036C080E035CD8A016EF8F
:1013D2000AF0036E083600C008F001C000F002C037
:1013E20001F0026A080E035CD8A016EF0AF0036E41
:1013F200083600C008F001C000F0016A080E035C64
:10140200D8A016EF0AF0036E083600C008F0006A92
:10141200080E035CD8A016EF0AF0036E0836086ABD
:101422000350D8A4D89022EF0AF00350D8B422EF88
:101432000AF0D8900232013200320832032E1AEF3B
:101442000AF00BBC08A033EF0AF0D8A033EF0AF081
:10145200082AD8B4002AD8B4012AD8B4022A02BE73
:101462005DEF0AF00AAE59EF0AF0021E011E001EDD
:10147200081E082AD8B4002AD8B4012AD8B4022AED
:1014820059EF0AF0026A016A006A086A59EF0AF023
:101492000B800BAE63EF0AF0026A0AAE63EF0AF04A
:1014A200026E016E006E086E0A36023263EF0AF0B7
:1014B200000E0C6A64EF0AF0010E0C6ECBEC04F025
:1014C20064EF0AF0FF0E0250036E0150026E0050EC
:0814D200016E0850006E1200CB
:1014DA000450000A12E10550000A0FE10650000A02
:1014EA000CE10750000A09E1FF0E006EFF0E016EC3
:1014FA007F0E026EFF0E036EA8D0086A096A0750B3
:10150A00D8B418EF0BF00350D8B41DEF0BF002500B
:10151A0006180A6E028E068E0E6A02C008F001C014
:10152A000CF000C00DF004500D5E0550D8A0053C2B
:10153A000C5E0650D8A0063C085E086A0C6A0D6A62
:10154A00D8A0AFEF0AF0D890023201320032083246
:10155A00010E0E6E0750035ED8A0BCEF0AF07E0E95
:10156A000E240326D8B022EF0BF0C2EF0AF07E0E4B
:10157A000E240326D8A027EF0BF0180E0B6E0D369B
:10158A000C3608360036013602360E360450005E36
:10159A000550D8A0053C015E0650D8A0063C025E64
:1015AA0006340E120EA0DDEF0AF00D80E8EF0AF005
:1015BA00045000260550D8B0053C01260650D8B084
:1015CA00062802260D900B2EC4EF0AF00EEF0BF040
:1015DA00D8900036013602360E360450005E0550A9
:1015EA00D8A0053C015E0650D8A0063C025E06342F
:1015FA000E10010B0D26D8B00C2AD8B4082AD8A48C
:10160A000EEF0BF008320C320D32032AD8B422EF57
:10161A000BF00AAE089E0850026E0C50016E0D5077
:10162A00006E2AEF0BF0010EB4EC02F02AEF0BF079
:10163A00020E4CEC00F02AEF0BF0040E59EC00F00D
:0C164A002AEF0BF0080E65EC00F0120017
:101656000B6A0A6A096A00500402F4CF09F0F3CF54
:1016660008F001500502F4CF0BF0F3CF0AF000505A
:101676000502F3500926F4500A22E86A0B220150AB
:101686000402F3500926F4500A22E86A0B2208C025
:1016960000F009C001F00AC002F00BC003F012000E
:1016A6006E0E0B01CE5DD8A0CAD0640E046ECECBF2
:1016B60000F0D9EC04F0120E0024056E066A000E46
:1016C600062205C000F006C001F0000E06BEFF0EA1
:1016D600026E036E0036009001360236033600367F
:1016E6000090013602360336200E0024F66E850E73
:1016F6000120F76E000E0220F86E0900F5CF00F00B
:101706000900F5CF01F00900F5CF02F00900F5CF89
:1017160003F0000E046E000E056E000E066E7E0EC1
:10172600076EA9EC01F000C0CFFB01C0D0FB02C0E0
:10173600D1FB03C0D2FB640E046ECECB00F0D9EC15
:1017460004F008C000F00A0E046ED9EC04F0090E8D
:101756000024056E066A000E062205C000F006C0CB
:1017660001F0000E06BEFF0E026E036E00360090FC
:10177600013602360336003600900136023603364D
:10178600200E0024F66E850E0120F76E000E022054
:10179600F86E0900F5CF00F00900F5CF01F0090059
:1017A600F5CF02F00900F5CF03F0CFCB04F0D0CB94
:1017B60005F0D1CB06F0D2CB07F0A9EC01F000C0C2
:1017C600CFFB01C0D0FB02C0D1FB03C0D2FB0A0E87
:1017D600046ECECB00F0D9EC04F008C000F000C0D7
:1017E60001F0000E026E036E046E013601900236A1
:1017F6000336043601360190023603360436200ECF
:101806000124F66E850E0220F76E000E0320F86E98
:101816000900F5CF00F00900F5CF01F00900F5CF7A
:1018260002F00900F5CF03F0CFCB04F0D0CB05F0E2
:10183600D1CB06F0D2CB07F0A9EC01F0B1D0CE5156
:101846000A08D8B07ED00A0E046ECECB00F0D9ECD2
:1018560004F0090E0024056E066A000E062205C075
:1018660000F006C001F0000E06BEFF0E026E036E0B
:1018760000360090013602360336003600900136F7
:1018860002360336200E0024F66E850E0120F76E12
:10189600000E0220F86E0900F5CF00F00900F5CF22
:1018A60001F00900F5CF02F00900F5CF03F0000EB4
:1018B600046E000E056E000E066E7E0E076EA9EC17
:1018C60001F000C0CFFB01C0D0FB02C0D1FB03C0BA
:1018D600D2FB0A0E046ECECB00F0D9EC04F008C0A1
:1018E60000F000C001F0000E026E036E046E0136B9
:1018F600019002360336043601360190023603366D
:101906000436200E0124F66E850E0220F76E000EB8
:101916000320F86E0900F5CF00F00900F5CF01F0BD
:101926000900F5CF02F00900F5CF03F0CFCB04F0A4
:10193600D0CB05F0D1CB06F0D2CB07F0A9EC01F065
:101946002FD0CECB00F0000E016E026E036E003675
:101956000090013602360336003600900136023614
:101966000336200E0024F66E850E0120F76E000E5B
:101976000220F86E0900F5CF00F00900F5CF01F05E
:101986000900F5CF02F00900F5CF03F0000E046E52
:10199600000E056E000E066E7E0E076EA9EC01F0B7
:0219A60012002D
:1019A8000B6A0C6A086A0350D8B458EF0DF002C0ED
:1019B8000AF0028E9E0E035E03AE48EF0DF0036C34
:1019C800080E035CD8A015EF0DF0036E083600C0B2
:1019D80008F001C000F002C001F0026A080E035CC2
:1019E800D8A015EF0DF0036E083600C008F001C04E
:1019F80000F0016A080E035CD8A015EF0DF0036E25
:101A0800083600C008F0006A080E035CD8A015EF7D
:101A18000DF0036E0836086A0350D8A4D89021EF59
:101A28000DF00350D8B421EF0DF0D89002320132F6
:101A380000320832032E19EF0DF00BBC08A032EF6C
:101A48000DF0D8A032EF0DF0082AD8B4002AD8B487
:101A5800012AD8B4022A02BE5CEF0DF00AAE58EF94
:101A68000DF0021E011E001E081E082AD8B4002A06
:101A7800D8B4012AD8B4022A58EF0DF0026A016AD4
:101A8800006A086A58EF0DF00B800BAE63EF0DF09B
:101A9800026A0AAE63EF0DF0026E016E006E086E08
:101AA8000A36023263EF0DF00C6A000E64EF0DF097
:101AB800010E0C6E000ECBEC04F064EF0DF0FF0E7F
:101AC8000250036E0150026E0050016E0850006E05
:021AD8001200FA
:081ADA00067EB8EC02F01200D8
:101AE2000B6A0A6A096A086A0E6A033408360450E5
:101AF200085E0550D8A0053C095E0650D8A0063CF9
:101B02000A5E0750D8A0073C0B5EE86AD8A0010E17
:101B12000E5E0336070E0C6E0334083609360A369B
:101B22000B360E36045003A012D0085E0550D8A022
:101B3200053C095E0650D8A0063C0A5E0750D8A0B4
:101B4200073C0B5EE86AD8A0010E0E5E11D0082693
:101B52000550D8B0053C09260650D8B0063C0A26E6
:101B62000750D8B0073C0B26E86AD8B0010E0E2603
:101B720003360C2ED1D70234083609360A360B3614
:101B82000E36045003A012D0085E0550D8A0053CC2
:101B9200095E0650D8A0063C0A5E0750D8A0073C52
:101BA2000B5EE86AD8A0010E0E5E11D00826055021
:101BB200D8B0053C09260650D8B0063C0A26075084
:101BC200D8B0073C0B26E86AD8B0010E0E260236C2
:101BD200070E0C6E0234083609360A360B360E36FC
:101BE200045002A012D0085E0550D8A0053C095E40
:101BF2000650D8A0063C0A5E0750D8A0073C0B5EF0
:101C0200E86AD8A0010E0E5E11D008260550D8B0A1
:101C1200053C09260650D8B0063C0A260750D8B023
:101C2200073C0B26E86AD8B0010E0E2602360C2EAF
:101C3200D1D70134083609360A360B360E3604502F
:101C420002A012D0085E0550D8A0053C095E0650DD
:101C5200D8A0063C0A5E0750D8A0073C0B5EE86A93
:101C6200D8A0010E0E5E11D008260550D8B0053C52
:101C720009260650D8B0063C0A260750D8B0073CC1
:101C82000B26E86AD8B0010E0E260136070E0C6E3E
:101C92000134083609360A360B360E36045001A0D6
:101CA20012D0085E0550D8A0053C095E0650D8A0A7
:101CB200063C0A5E0750D8A0073C0B5EE86AD8A033
:101CC200010E0E5E11D008260550D8B0053C09263B
:101CD2000650D8B0063C0A260750D8B0073C0B265F
:101CE200E86AD8B0010E0E2601360C2ED1D7003488
:101CF200083609360A360B360E36045001A012D0C9
:101D0200085E0550D8A0053C095E0650D8A0063CE6
:101D12000A5E0750D8A0073C0B5EE86AD8A0010E05
:101D22000E5E11D008260550D8B0053C0926065093
:101D3200D8B0063C0A260750D8B0073C0B26E86A02
:101D4200D8B0010E0E260036070E0C6E003408368F
:101D520009360A360B360E36045000A012D0085E41
:101D62000550D8A0053C095E0650D8A0063C0A5E84
:101D72000750D8A0073C0B5EE86AD8A0010E0E5EA1
:101D820011D008260550D8B0053C09260650D8B017
:101D9200063C0A260750D8B0073C0B26E86AD8B0A2
:101DA200010E0E2600360C2ED1D700B00ED00450F4
:101DB20008260550D8B0053C09260650D8B0063C86
:0C1DC2000A260750D8B0073C0B26120080
:101DCE000C6A0E6A0250D8A400EF0FF001C002F0A8
:101DDE0000C001F0006A0E860250D8A400EF0FF08A
:101DEE0001C002F0016A0E960E880250D8B412EFAE
:101DFE000FF00E50035ED8A4D8A018EF0FF0D890B5
:101E0E0002BE1EEF0FF0003601360236032E07EF2C
:101E1E000FF018EF0FF0010E0C6E4CEC00F022EFED
:101E2E000FF0020E0C6E65EC00F022EF0FF0040EB8
:081E3E000C6E72EC00F01200C2
:101E4600000E0B01A71902E1000EA61937E0A6CB7A
:101E5600E9FFA7CBEAFFEE5231E0A8CBCEFBA9CB38
:101E6600CFFBA6EC05F000C0D2FBA6CBCEFBA7CBE2
:101E7600CFFBA8CBD0FBA9CBD1FB1FEC05F0000E06
:101E8600011802E1000E001805E1A6CB00F0A7CB71
:101E960001F016D0010E0B01A625CE6F000EA7216C
:101EA600CF6FA8CBE9FFA9CBEAFFEECFD0FB01ECC1
:101EB60005F000C0A6FB01C0A7FBC2D7006A016AF5
:021EC600120008
:101EC800A6CB04F0A7CB05F004C002F005C003F0D0
:101ED800044A052AA8CB00F0A9CB01F00B01A84BB6
:101EE800A92B00C0E9FF01C0EAFF02C0E1FF03C05F
:101EF800E2FFEECFE6FF02C0E9FF03C0EAFFEE52C1
:0E1F080001E0E2D7A6CB00F0A7CB01F012005B
:101F16000B01C66BC76BBA6BBB6BA8CB00F0A9CB2A
:101F260001F0AACB02F0010EA827000EA923AA23CE
:101F360000C0F6FF01C0F7FF02C0F8FF0900F5CFA9
:101F460000F000C0B7FB0052D8B49BEF1FF0B751AA
:101F5600250A0BE0A6CBE1FFA7CBE2FFB7CBE6FF56
:101F6600A64BA72BC64BC72BD8D7B86BB96BBA6B8A
:101F7600BB6B23D0BA87010EA827000EA923AA237C
:101F860059D0BA81010EA827000EA923AA2352D040
:101F9600BA83010EA827000EA923AA234BD0BB871C
:101FA600010EA827000EA923AA2344D0BA85010E44
:101FB600A827000EA923AA233DD0A8CBF6FFA9CBBC
:101FC600F7FFAACBF8FF0900F5CF01F001502D0A63
:101FD600D1E0A8CBF6FFA9CBF7FFAACBF8FF090003
:101FE600F5CF01F00150200ACCE0A8CBF6FFA9CB33
:101FF600F7FFAACBF8FF0900F5CF01F001502B0A35
:10200600C7E0A8CBF6FFA9CBF7FFAACBF8FF0900DC
:10201600F5CF01F00150230AC2E0A8CBF6FFA9CB09
:10202600F7FFAACBF8FF0900F5CF01F00150300AFF
:10203600BDE001D09ED7BAA301D0BA91BAA701D00C
:10204600BA95A8CBF6FFA9CBF7FFAACBF8FF0900F4
:10205600F5CF00F0000E016E00C0CEFBC5EC09F016
:10206600005236E0B86BB96BB8CB00F0B9CB01F0D3
:102076000A0E046E000E056E2BEC0BF0A8CBF6FFD5
:10208600A9CBF7FFAACBF8FF0900F5CF02F0025063
:102096000024B86F000E0120B96F300EB85F000E35
:1020A600B95B010EA827000EA923AA23A8CBF6FF29
:1020B600A9CBF7FFAACBF8FF0900F5CF00F0000E79
:1020C600016E00C0CEFBC5EC09F00052CDE133D065
:1020D600A8CBF6FFA9CBF7FFAACBF8FF0900F5CFEF
:1020E60001F001502A0A27E1ABCBE9FFACCBEAFFAE
:1020F600EECF00F0EECF01F000C0E9FF01C0EAFF2D
:10210600EECFB8FBEECFB9FBABCBE9FFACCBEAFF2A
:10211600020EEE24006E000EEE20016EABCBE1FF48
:10212600ACCBE2FF00C0E6FF01C0E6FF010EA82728
:10213600000EA923AA23A8CBF6FFA9CBF7FFAACBAB
:10214600F8FF0900F5CF01F001502E0A70E1010EEB
:10215600A827000EA923AA23A8CBF6FFA9CBF7FF31
:10216600AACBF8FF0900F5CF01F001502A0A28E1B1
:10217600ABCBE9FFACCBEAFFEECF00F0EECF01F040
:1021860000C0E9FF01C0EAFFEECFB5FBEECFB6FB1C
:10219600ABCBE9FFACCBEAFF020EEE24006E000EDD
:1021A600EE20016EABCBE1FFACCBE2FF00C0E6FF59
:1021B60001C0E6FF010EA827000EA923AA2336D0E8
:1021C600B56BB66BA8CBF6FFA9CBF7FFAACBF8FF8A
:1021D6000900F5CF00F0000E016E00C0CEFBC5EC85
:1021E60009F0005223E0B5CB00F0B6CB01F00A0EA1
:1021F600046E000E056E2BEC0BF0A8CBF6FFA9CBF8
:10220600F7FFAACBF8FF0900F5CF02F00250002431
:10221600B56F000E0120B66F300EB55F000EB65BCF
:10222600010EA827000EA923AA23CCD703D0B56B8D
:10223600B66BBB89A8CB00F0A9CB01F0AACB02F004
:10224600010EA827000EA923AA2300C0F6FF01C08D
:10225600F7FF02C0F8FF0900F5CFB7FBF9D0C6CBF0
:1022660000F0C7CB01F09FEF1FF0BA89E3D7BB851B
:102276002ED1BA8BBB812BD1BB8329D1BA8D27D165
:1022860026D1BA8BBA8F23D1ABCBE9FFACCBEAFF11
:10229600EECF00F0EECF01F000C0E9FF01C0EAFF8B
:1022A600EECFC2FBEECFC3FBABCBE9FFACCBEAFF75
:1022B600020EEE24006E000EEE20016EABCBE1FFA7
:1022C600ACCBE2FF00C0E6FF01C0E6FF000EC3197B
:1022D60002E1000EC21904E1490EC26F050EC36F7A
:1022E600C46BC56BC451C225E96EC551C321EA6EE4
:1022F600EE520BE0010EC425006E000EC521016EE4
:1023060000C0C4FB01C0C5FBEDD7B551B6110AE04C
:10231600C551B65D02E1C451B55D04E2B5CBC4FB5F
:10232600B6CBC5FBB951C55D02E1B851C45D05E246
:10233600C451B85FC551B95B02D0B86BB96BBAB7B7
:1023460016D0B8CB00F0B9CB01F0010EB85F000E85
:10235600B95B005001100BE0A6CBE1FFA7CBE2FF73
:10236600200EE66EA64BA72BC64BC72BEAD7C4CBCF
:1023760002F0C5CB03F0010EC45D006E000EC55918
:10238600016E00C0C4FB01C0C5FB0250031019E07A
:10239600C2CBE9FFC3CBEAFFA6CBE1FFA7CBE2FFA7
:1023A600EECFE6FFA64BA72B010EC225006E000E50
:1023B600C321016E00C0C2FB01C0C3FBC64BC72BC5
:1023C600D6D7BAA716D0B8CB00F0B9CB01F0010E1C
:1023D600B85F000EB95B005001100BE0A6CBE1FF21
:1023E600A7CBE2FF200EE66EA64BA72BC64BC72B4C
:1023F600EAD793D5ABCBE9FFACCBEAFFEECF00F043
:10240600EECF01F000C0E9FF01C0EAFFEECFB7FB57
:10241600ABCBE9FFACCBEAFF020EEE24006E000E5A
:10242600EE20016EABCBE1FFACCBE2FF00C0E6FFD6
:1024360001C0E6FFB70EC26F0B0EC36F010EC46F6D
:10244600000EC56F62D7C00EBA13000EBB133FD085
:10245600B751000AD8B403D7B7516C0AD8B405D718
:10246600B7514C0AD8B401D7B751660AD8B4FFD6CB
:10247600B751450AD8B4FDD6B751650AD8B4FAD6CD
:10248600B751670AD8B4F8D6B7516F0AD8B4F6D69A
:10249600B751640AD8B4F4D6B751690AD8B4F0D69D
:1024A600B751700AD8B4EDD6B751580AD8B4E9D6A0
:1024B600B751780AD8B4E6D6B751730AD8B4E4D679
:1024C600B751630A97E0B751750ABDE0B3D7000E5E
:1024D600BA15006EBB51070B016E00500110D8B43F
:1024E60042EF1BF0BBA904D0060EB56F000EB66F07
:1024F600ABCBE9FFACCBEAFFEECF00F0EECF01F0BD
:1025060000C0E9FF01C0EAFFEECFBCFBEECFBDFB8A
:10251600EECFBEFBEECFBFFBABCBE9FFACCBEAFF0A
:10252600040EEE24006E000EEE20016EABCBE1FF32
:10253600ACCBE2FF00C0E6FF01C0E6FF046A056A15
:10254600066A076ABCCB00F0BDCB01F0BECB02F039
:10255600BFCB03F01CEC06F0010ED8B0000E006EE7
:10256600005205E0BE7F030EBA13000EBB13C06B0C
:10257600C16BBCCB00F0BDCB01F0BECB02F0BFCB34
:1025860003F0046A056A066A076A05EC06F0000E9F
:10259600D8A4010E006E0052D8B48AD0BFCB00F08A
:1025A600016A026A036AFF0E0016000E01167E0E0D
:1025B600005E000E015A00C0C0FB01C0C1FB010E47
:1025C600005E000E015A00C0C0FB01C0C1FB030E35
:1025D600046E000E056E2BEC0BF000C0C0FB01C0B4
:1025E600C1FB0A0E046E000E056E83EC06F000C0F9
:1025F600C0FB01C0C1FB800E0118026E800E025C9A
:1026060002E1000E005C05E2010E0B01C05F000E48
:10261600C15B0B01C0510008CE6FE7EC06F0BCCBE6
:1026260004F0BDCB05F0BECB06F0BFCB07F0A9EC9E
:1026360001F000C0C2FB01C0C3FB02C0C4FB03C063
:10264600C5FB000E046E000E056E000E066E7F0EB4
:10265600076EC2CB00F0C3CB01F0C4CB02F0C5CBF2
:1026660003F01CEC06F0010ED8B0000E006E00520E
:1026760005E0010EC05F000EC15B1AD0000E046EAD
:10268600000E056E200E066E820E076EC2CB00F09F
:10269600C3CB01F0C4CB02F0C5CB03F01CEC06F0B3
:1026A600000ED8B0010E006E005202E0C04BC12BE6
:1026B600800E006E800EC119005C02E1C051000858
:1026C60003E3010EB76F02D0C0CBB7FBBBB118D086
:1026D600BBA315D0800EC119006E7F0E005C02E10F
:1026E600FC0EC05D0BE3800EC119006E800EB6199C
:1026F600005C02E1B551C05D01E201D001D0F1D329
:10270600B551B61106E0BBA304D0010EB55F000EAD
:10271600B65B000E006EB651005C02E1B5510808CA
:1027260003E2080EB76F02D0B5CBB7FBBCCB00F007
:10273600BDCB01F0BECB02F0BFCB03F0046A056A45
:10274600066A076A05EC06F0000ED8A4010E006EB4
:102756000052D8B44BD1C0CBCEFBE7EC06F000C09C
:1027660004F001C005F002C006F003C007F0BCCBC0
:1027760000F0BDCB01F0BECB02F0BFCB03F06DEC99
:102786000AF000C0BCFB01C0BDFB02C0BEFB03C01B
:10279600BFFB0B01B7510008CE6FE7EC06F000C097
:1027A60004F001C005F002C006F003C007F0BCCB80
:1027B60000F0BDCB01F0BECB02F0BFCB03F06DEC59
:1027C6000AF000C0C8FB01C0C9FB02C0CAFB03C0B7
:1027D600CBFBC8CBBCFBC9CBBDFBCACBBEFBCBCBB3
:1027E600BFFBC8CB00F0C9CB01F0CACB02F0CBCB04
:1027F60003F0D1EC09F093EC05F000C004F001C041
:1028060005F002C006F003C007F0C8CB00F0C9CB44
:1028160001F0CACB02F0CBCB03F06DEC0DF0000E4D
:10282600046E000E056E000E066E7E0E076E1CEC24
:1028360006F0000ED8B0010E006E00521AE0BCCBB6
:1028460000F0BDCB01F0BECB02F0BFCB03F0000E13
:10285600046E000E056E000E066E7E0E076EB8EC58
:1028660002F000C0BCFB01C0BDFB02C0BEFB03C042
:10287600BFFBBCCB00F0BDCB01F0BECB02F0BFCBA3
:1028860003F0D1EC09F00B01B751010F096E0A6A8A
:10289600000E0A2209C004F00AC005F0000E0ABEA6
:1028A600FF0E066E076E04360490053606360736AA
:1028B60004360490053606360736E60E0424F66E10
:1028C600850E0520F76E000E0620F86E0900F5CF7E
:1028D60005F00900F5CF06F00900F5CF07F009006D
:1028E600F5CF08F00850035C08E10750025C05E1EB
:1028F6000650015C02E10550005C1EE30B01BCCBF7
:1029060000F0BDCB01F0BECB02F0BFCB03F0CD0E85
:10291600046ECC0E056E4C0E066E7B0E076EA9EC91
:1029260001F000C0BCFB01C0BDFB02C0BEFB03C082
:10293600BFFBC04BC12B5AD0BCCB00F0BDCB01F0C6
:10294600BECB02F0BFCB03F0D1EC09F0B7CB04F05D
:10295600000E056E066E076E0436049005360636C2
:10296600073604360490053606360736E60E042486
:10297600F66E850E0520F76E000E0620F86E09002D
:10298600F5CF05F00900F5CF06F00900F5CF07F001
:102996000900F5CF08F00850035C08E10750025C17
:1029A60005E10650015C02E10550005C1FE20B01E7
:1029B600BCCB00F0BDCB01F0BECB02F0BFCB03F029
:1029C600000E046E000E056E200E066E820E076E59
:1029D600A9EC01F000C0BCFB01C0BDFB02C0BEFB00
:1029E60003C0BFFB010EC05F000EC15B0B01BBA3A2
:1029F60093D0BBB791D0800E000A006E800EB61938
:102A0600005C02E1B5510A0804E20A0EB56F000E39
:102A1600B66FBCCB00F0BDCB01F0BECB02F0BFCB96
:102A260003F0D1EC09F000C0C2FB01C0C3FB02C039
:102A3600C4FB03C0C5FBC251C311C411C51142E09A
:102A46000A0E046E000E056E066E076EC2CB00F00F
:102A5600C3CB01F0C4CB02F0C5CB03F071EC0DF093
:102A660008C000F009C001F00AC002F00BC003F074
:102A7600000E046E031808E10450021805E1045024
:102A8600011802E10050000A1DE1010EB55F000EBB
:102A9600B65B0A0E046E000E056E066E076EC2CB9E
:102AA60000F0C3CB01F0C4CB02F0C5CB03F071EC50
:102AB6000DF000C0C2FB01C0C3FB02C0C4FB03C0D3
:102AC600C5FBB9D7800EB619006E800E005C02E118
:102AD600B751B55D21E2B551B75DCE6FE7EC06F0B3
:102AE60000C004F001C005F002C006F003C007F004
:102AF600BCCB00F0BDCB01F0BECB02F0BFCB03F0E8
:102B06006DEC0AF000C0BCFB01C0BDFB02C0BEFB01
:102B160003C0BFFBB5CBB7FB050E0B01B525006E99
:102B2600000EB621016E0050B85F0150B95BB55179
:102B3600B61103E1BBB701D004D0010EB85F000E99
:102B4600B95B030EBA15006EBBCB01F0000E011681
:102B56000050011004E0010EB85F000EB95BBAA583
:102B660039D0BAA312D0BAA103D02D0EAD6F02D0C0
:102B76002B0EAD6FA6CBE1FFA7CBE2FFADCBE6FFF9
:102B8600A64BA72BC64BC72B0CD0BAA10AD0A6CBF7
:102B9600E1FFA7CBE2FF200EE66EA64BA72BC64BA6
:102BA600C72B800E006E800EB919005C02E1B85189
:102BB60000080FE2A6CBE1FFA7CBE2FF300EE66EE0
:102BC600A64BA72BC64BC72B010EB85F000EB95BF1
:102BD600E8D73AD0BAB718D0800E006E800EB91971
:102BE600005C02E1B85100080FE2A6CBE1FFA7CBDB
:102BF600E2FF200EE66EA64BA72BC64BC72B010E97
:102C0600B85F000EB95BE8D7BAA312D0BAA103D059
:102C16002D0EAE6F02D02B0EAE6FA6CBE1FFA7CB6B
:102C2600E2FFAECBE6FFA64BA72BC64BC72B0CD0BD
:102C3600BAA10AD0A6CBE1FFA7CBE2FF200EE66E33
:102C4600A64BA72BC64BC72BBCCB00F0BDCB01F0C8
:102C5600BECB02F0BFCB03F0D1EC09F000C0C2FB43
:102C660001C0C3FB02C0C4FB03C0C5FBB7CB00F069
:102C7600000E016E026E036E0036009001360236BB
:102C8600033600360090013602360336E60E00247F
:102C9600F66E850E0120F76E000E0220F86E090012
:102CA600F5CF04F00900F5CF05F00900F5CF06F0E1
:102CB6000900F5CF07F0C2CB00F0C3CB01F0C4CBBF
:102CC60002F0C5CB03F071EC0DF0300E0026A6CB5A
:102CD600E1FFA7CBE2FF00C0E6FFA64BA72BC64B42
:102CE600C72BB551B61103E1BBB701D06FD0A6CB48
:102CF600E1FFA7CBE2FF2E0EE66EA64BA72BC64B37
:102D0600C72BB751B55F000EB65BB7534DE0B7079B
:102D1600B7CB00F0000E016E026E036E0036009017
:102D26000136023603360036009001360236033687
:102D3600E60E0024F66E850E0120F76E000E0220C8
:102D4600F86E0900F5CF04F00900F5CF05F009008B
:102D5600F5CF06F00900F5CF07F0C2CB00F0C3CBE4
:102D660001F0C4CB02F0C5CB03F071EC0DF00A0EF6
:102D7600046E000E056E066E076E71EC0DF008C04F
:102D860000F009C001F00AC002F00BC003F0300EDB
:102D96000026A6CBE1FFA7CBE2FF00C0E6FFA64BCD
:102DA600A72BC64BC72BB1D7B551B6110FE0A6CB93
:102DB600E1FFA7CBE2FF300EE66EA64BA72BC64B74
:102DC600C72B010EB55F000EB65BEED7BAAB0BD0C4
:102DD600A6CBE1FFA7CBE2FF450EE66EA64BA72BDF
:102DE600C64BC72B0AD0A6CBE1FFA7CBE2FF650EE9
:102DF600E66EA64BA72BC64BC72B800EC119006EDD
:102E0600800E005C02E1000EC05D11E2C0510008B8
:102E1600C06FC151000EC157A6CBE1FFA7CBE2FFA1
:102E26002D0EE66EA64BA72BC64BC72B0AD0A6CBFC
:102E3600E1FFA7CBE2FF2B0EE66EA64BA72BC64BF8
:102E4600C72B0A0E046E000E056EC0CB00F0C1CB78
:102E560001F083EC06F0300E0026A6CBE1FFA7CBEF
:102E6600E2FF00C0E6FF0B01A64BA72BC64BC72B04
:102E76000A0E046E000E056EC0CB00F0C1CB01F049
:102E860083EC06F008C000F009C001F0300E002601
:102E9600A6CBE1FFA7CBE2FF00C0E6FF0B01A64BE6
:102EA600A72BC64BC72BBAA71AD0800E006E800E72
:102EB600B919005C02E1B851000811E2A6CBE1FFA6
:102EC600A7CBE2FF200EE66EA64BA72BC64BC72B61
:102ED600010EB85F000EB95BB851B911EFE190EF82
:102EE6000FF0BBA3F3D0800EC119006E800E005CFC
:102EF60002E1000EC05D0AE2010EC05D006E000E2A
:102F0600C159016E0050B55F0150B65BBCCB00F0F5
:102F1600BDCB01F0BECB02F0BFCB03F0D1EC09F084
:102F260000C0C2FB01C0C3FB02C0C4FB03C0C5FB9B
:102F3600010EB76FB7510A0A34E0B7CB00F0000EA6
:102F4600016E026E036E00360090013602360336BD
:102F560000360090013602360336E60E0024F66E81
:102F6600850E0120F76E000E0220F86E0900F5CFDF
:102F760001F00900F5CF02F00900F5CF03F00900D2
:102F8600F5CF04F00450C55D08E10350C45D05E1CA
:102F96000250C35D02E10150C25D01E202D0B72BCF
:102FA600C9D7B751B55DCC6F000EB659CD6FCCCB36
:102FB600B5FBCDCBB6FBC2CB00F0C3CB01F0C4CB87
:102FC60002F0C5CB03F093EC05F000C004F001C09D
:102FD60005F002C006F003C007F0BCCB00F0BDCB85
:102FE60001F0BECB02F0BFCB03F06DEC0DF000C0DC
:102FF600C8FB01C0C9FB02C0CAFB03C0CBFBCCCBDC
:10300600CEFBE7EC06F0C8CB04F0C9CB05F0CACB83
:1030160006F0CBCB07F0A9EC01F0000E046E000E13
:10302600056E000E066E7E0E076EB8EC02F0D1EC51
:1030360009F000C0C2FB01C0C3FB02C0C4FB03C051
:10304600C5FBB551B61142E00A0E046E000E056EC0
:10305600066E076EC2CB00F0C3CB01F0C4CB02F004
:10306600C5CB03F071EC0DF008C000F009C001F00B
:103076000AC002F00BC003F0000E046E031808E14C
:103086000450021805E10450011802E10050000A3C
:103096001DE10A0E046E000E056E066E076EC2CBAB
:1030A60000F0C3CB01F0C4CB02F0C5CB03F071EC4A
:1030B6000DF000C0C2FB01C0C3FB02C0C4FB03C0CD
:1030C600C5FB010EB55F000EB65BBBD7800E006E6A
:1030D600800EB619005C02E1B5510C0816E3B5CBBB
:1030E600CEFB53EC0BF0BCCB04F0BDCB05F0BECB56
:1030F60006F0BFCB07F0B8EC02F000C0BCFB01C085
:10310600BDFB02C0BEFB03C0BFFBBCCB00F0BDCB0A
:1031160001F0BECB02F0BFCB03F0046A056A066A73
:10312600076A05EC06F0000ED8A4010E006E0052E8
:10313600D8B477D0BCCB00F0BDCB01F0BECB02F04B
:10314600BFCB03F0D1EC09F0000E046E031808E1C2
:103156000450021805E10450011802E10050000A6B
:1031660060E1800E006E800EC119005C02E1C05164
:10317600010857E2C0CBCEFBE7EC06F000C004F036
:1031860001C005F002C006F003C007F0BCCB00F09A
:10319600BDCB01F0BECB02F0BFCB03F06DEC0AF065
:1031A6005F0E046E700E056E090E066E810E076EBA
:1031B6001CEC06F0010ED8B0000E006E005206E0C0
:1031C600090E0B01C05F000EC15B05D00B01080E96
:1031D600C05F000EC15BC0CBCEFBE7EC06F000C0C3
:1031E60004F001C005F002C006F003C007F0BCCB36
:1031F60000F0BDCB01F0BECB02F0BFCB03F06DEC0F
:103206000AF0D1EC09F000C0C2FB01C0C3FB02C04A
:10321600C4FB03C0C5FB0B01BC6BBD6BBE6BBF6BB8
:1032260038D0BCCB00F0BDCB01F0BECB02F0BFCB9B
:1032360003F0D1EC09F000C0C2FB01C0C3FB02C021
:10324600C4FB03C0C5FBC2CB00F0C3CB01F0C4CBAB
:1032560002F0C5CB03F093EC05F000C004F001C00A
:1032660005F002C006F003C007F0BCCB00F0BDCBF2
:1032760001F0BECB02F0BFCB03F06DEC0DF000C049
:10328600BCFB01C0BDFB02C0BEFB03C0BFFBC06BE5
:10329600C16B010EB76FB7510A0A34E0B7CB00F025
:1032A600000E016E026E036E003600900136023685
:1032B600033600360090013602360336E60E002449
:1032C600F66E850E0120F76E000E0220F86E0900DC
:1032D600F5CF01F00900F5CF02F00900F5CF03F0B4
:1032E6000900F5CF04F00450C55D08E10350C45D44
:1032F60005E10250C35D02E10150C25D01E202D068
:10330600B72BC9D7B751B525006E000EB621016E91
:10331600C0510026C15101220050B85F0150B95B6F
:10332600BBB704D0B551B61101E104D0010EB85FA8
:10333600000EB95B030EBA15006EBBCB01F0000E92
:1033460001160050011004E0010EB85F000EB95BD3
:10335600BAA539D0BAA312D0BAA103D02D0EAF6F39
:1033660002D02B0EAF6FA6CBE1FFA7CBE2FFAFCB10
:10337600E6FFA64BA72BC64BC72B0CD0BAA10AD08B
:10338600A6CBE1FFA7CBE2FF200EE66EA64BA72B4E
:10339600C64BC72B800E006E800EB919005C02E189
:1033A600B85100080FE2A6CBE1FFA7CBE2FF300E33
:1033B600E66EA64BA72BC64BC72B010EB85F000EB9
:1033C600B95BE8D73AD0BAB718D0800E006E800E37
:1033D600B919005C02E1B85100080FE2A6CBE1FF83
:1033E600A7CBE2FF200EE66EA64BA72BC64BC72B3C
:1033F600010EB85F000EB95BE8D7BAA312D0BAA126
:1034060003D02D0EB06F02D02B0EB06FA6CBE1FF0E
:10341600A7CBE2FFB0CBE6FFA64BA72BC64BC72B2D
:103426000CD0BAA10AD0A6CBE1FFA7CBE2FF200EB3
:10343600E66EA64BA72BC64BC72BB7CB00F0B7073C
:1034460000524CE0B7CB00F0000E016E026E036E28
:1034560000360090013602360336003600900136FB
:1034660002360336E60E0024F66E850E0120F76E50
:10347600000E0220F86E0900F5CF04F00900F5CF22
:1034860005F00900F5CF06F00900F5CF07F0C2CB2D
:1034960000F0C3CB01F0C4CB02F0C5CB03F071EC56
:1034A6000DF00A0E046E000E056E066E076E71ECC8
:1034B6000DF008C000F009C001F00AC002F00BC010
:1034C60003F0300E0026A6CBE1FFA7CBE2FF00C03B
:1034D600E6FFA64BA72BC64BC72BAFD7800E006EB9
:1034E600800EC119005C02E1C05100080FE2A6CBB4
:1034F600E1FFA7CBE2FF300EE66EA64BA72BC64B2D
:10350600C72B010EC05F000EC15BE8D7800E000A14
:10351600006E800EB619005C02E1B551080803E2A0
:10352600080EB76F02D0B5CBB7FBB751B55F000E2B
:10353600B65BB75303E1BBB701D00AD0A6CBE1FF18
:10354600A7CBE2FF2E0EE66EA64BA72BC64BC72BCC
:10355600B7CBCEFBE7EC06F0BCCB04F0BDCB05F059
:10356600BECB06F0BFCB07F0A9EC01F0D4EC0CF013
:1035760000C0C2FB01C0C3FB02C0C4FB03C0C5FB45
:10358600B7534DE0B707B7CB00F0000E016E026EE1
:10359600036E003600900136023603360036009080
:1035A600013602360336E60E0024F66E850E01203D
:1035B600F76E000E0220F86E0900F5CF04F0090040
:1035C600F5CF05F00900F5CF06F00900F5CF07F0B5
:1035D600C2CB00F0C3CB01F0C4CB02F0C5CB03F0E5
:1035E60071EC0DF00A0E046E000E056E066E076E87
:1035F60071EC0DF008C000F009C001F00AC002F03D
:103606000BC003F0300E0026A6CBE1FFA7CBE2FFEE
:1036160000C0E6FFA64BA72BC64BC72BB1D7B551AB
:10362600B6110FE0A6CBE1FFA7CBE2FF300EE66EA8
:10363600A64BA72BC64BC72B010EB55F000EB65B7C
:10364600EED7BAA71AD0800E006E800EB919005CAC
:1036560002E1B851000811E2A6CBE1FFA7CBE2FFD9
:10366600200EE66EA64BA72BC64BC72B010EB85FE6
:10367600000EB95BB851B911EFE190EF0FF0C00E33
:10368600BA15016EBBCB02F0000E0216000E021830
:1036960002E1000E0118D8A480D0BAA927D0ABCB7E
:1036A600E9FFACCBEAFFEECF00F0EECF01F000C0B1
:1036B600E9FF01C0EAFFEECFC2FBEECFC3FBEECFC0
:1036C600C4FBEECFC5FBABCBE9FFACCBEAFF040EE8
:1036D600EE24006E000EEE20016EABCBE1FFACCB0C
:1036E600E2FF00C0E6FF01C0E6FF2FD0ABCBE9FF4B
:1036F600ACCBEAFFEECF00F0EECF01F000C0E9FF61
:1037060001C0EAFFEECF00F0EECF01F0000E01BEE1
:10371600FF0E026E036E00C0C2FB01C0C3FB02C0F7
:10372600C4FB03C0C5FBABCBE9FFACCBEAFF020E83
:10373600EE24006E000EEE20016EABCBE1FFACCBAB
:10374600E2FF00C0E6FF01C0E6FF800EC519006E6D
:10375600800E005C08E1000EC45D05E1000EC35D4D
:1037660002E1000EC25D18E2030EBA13000EBB138F
:10377600006A016A026A036AC251005EC351015AB5
:10378600C451025AC551035A00C0C2FB01C0C3FB53
:1037960002C0C4FB03C0C5FB4ED0BAA927D0ABCB31
:1037A600E9FFACCBEAFFEECF00F0EECF01F000C0B0
:1037B600E9FF01C0EAFFEECFC2FBEECFC3FBEECFBF
:1037C600C4FBEECFC5FBABCBE9FFACCBEAFF040EE7
:1037D600EE24006E000EEE20016EABCBE1FFACCB0B
:1037E600E2FF00C0E6FF01C0E6FF25D0ABCBE9FF54
:1037F600ACCBEAFFEECF00F0EECF01F000C0E9FF60
:1038060001C0EAFFEECFC2FBEECFC3FB000EC46FD2
:10381600C56FABCBE9FFACCBEAFF020EEE24006E20
:10382600000EEE20016EABCBE1FFACCBE2FF00C099
:10383600E6FF01C0E6FF000EB61902E1000EB5195B
:103846000FE1000E006EC51908E10050C41905E12C
:103856000050C31902E1C251000A02E1B54BB62B72
:10386600C00EBA15006E00C005F0AED0010EB76FDF
:10387600B7510A0A34E0B7CB00F0000E016E026EB3
:10388600036E00360090013602360336003600908D
:10389600013602360336E60E0024F66E850E01204A
:1038A600F76E000E0220F86E0900F5CF01F0090050
:1038B600F5CF02F00900F5CF03F00900F5CF04F0CB
:1038C6000450C55D08E10350C45D05E10250C35DC7
:1038D60002E10150C25D01E202D0B72BC9D782D006
:1038E600010EB76FB751080A34E0B7CB00F0000EEF
:1038F600016E026E036E0036009001360236033604
:1039060000360090013602360336350E0024F66E78
:10391600860E0120F76E000E0220F86E0900F5CF24
:1039260001F00900F5CF02F00900F5CF03F0090018
:10393600F5CF04F00450C55D08E10350C45D05E110
:103946000250C35D02E10150C25D01E202D0B72B15
:10395600C9D748D0010EB76FB7510C0A34E0B7CBC0
:1039660000F0000E016E026E036E00360090013606
:103976000236033600360090013602360336860ECE
:103986000024F66E850E0120F76E000E0220F86EFA
:103996000900F5CF01F00900F5CF02F00900F5CFD7
:1039A60003F00900F5CF04F00450C55D08E10350AB
:1039B600C45D05E10250C35D02E10150C25D01E252
:1039C60002D0B72BC9D70ED00550000AD8B44ED7AF
:1039D6000550C00AD8B44AD70550800A81E0055080
:1039E600400AB8E0800E006E800EB619005C02E157
:1039F600B551B75D03E2B5CBB7FB0DD0800EB61956
:103A0600006E800E005C02E1B751B55D04E2B7CBF3
:103A1600B5FB000EB66FB851B9110EE0030EBA151C
:103A2600006EBBCB01F0000E01160050011004E041
:103A3600010EB85F000EB95B800EB619006E800EDF
:103A4600B919005C02E1B851B55D05E2B551B85F40
:103A5600B651B95B02D0B86BB96BC40EBA15016E1C
:103A6600BB51080B026E0250080A02E1400E011813
:103A760008E1B851B91104E0010EB85F000EB95B58
:103A86001CD0C00EBA15016EBB51080B026E025057
:103A9600080A02E1800E011810E1800E006E800E09
:103AA600B919005C02E1B851020805E2020EB85FDE
:103AB600000EB95B02D0B86BB96BBAA55DD0BAA3DC
:103AC60012D0BAA103D02D0EB16F02D02B0EB16F5A
:103AD600A6CBE1FFA7CBE2FFB1CBE6FFA64BA72B18
:103AE600C64BC72B34D0BAA10BD0A6CBE1FFA7CBD0
:103AF600E2FF200EE66EA64BA72BC64BC72B27D0A0
:103B0600C00EBA15016EBB51080B026E0250080AB0
:103B160002E1800E01181BE1A6CBE1FFA7CBE2FF75
:103B2600300EE66EA64BA72BC64BC72BBAAB03D0FF
:103B3600580EB26F02D0780EB26FA6CBE1FFA7CBBC
:103B4600E2FFB2CBE6FFA64BA72BC64BC72BB8515D
:103B5600B91111E0A6CBE1FFA7CBE2FF300EE66E6E
:103B6600A64BA72BC64BC72B010EB85F000EB95B41
:103B7600B851B911EFE174D0B851B91113E0BAB721
:103B860011D0A6CBE1FFA7CBE2FF200EE66EA64B37
:103B9600A72BC64BC72B010EB85F000EB95BB851F9
:103BA600B911EFE1BAA312D0BAA103D02D0EB36FAB
:103BB60002D02B0EB36FA6CBE1FFA7CBE2FFB3CBB0
:103BC600E6FFA64BA72BC64BC72B0CD0BAA10AD033
:103BD600A6CBE1FFA7CBE2FF200EE66EA64BA72BF6
:103BE600C64BC72BC00EBA15016EBB51080B026E31
:103BF6000250080A02E1400E01180BE1A6CBE1FFD4
:103C0600A7CBE2FF300EE66EA64BA72BC64BC72B03
:103C160027D0C00EBA15016EBB51080B026E0250BA
:103C2600080A02E1800E01181BE1A6CBE1FFA7CB33
:103C3600E2FF300EE66EA64BA72BC64BC72BBAABE0
:103C460003D0580EB46F02D0780EB46FA6CBE1FF46
:103C5600A7CBE2FFB4CBE6FFA64BA72BC64BC72BE1
:103C6600800E006E800EB619005C02E1B551B75D9C
:103C76000BE2A6CBE1FFA7CBE2FF300EE66EA64B2A
:103C8600A72BC64BC72BECD7B5CB00F0B6CB01F0B4
:103C9600010EB55F000EB65B00500110D8B42AD1F4
:103CA600C00EBA15006E00C0C8FB0AD1B5CB00F035
:103CB600B6CB01F0000EB6BFFF0E026E036E0036E5
:103CC6000090013602360336003600900136023681
:103CD6000336E60E0024F66E850E0120F76E000E02
:103CE6000220F86E0900F5CF04F00900F5CF05F0C3
:103CF6000900F5CF06F00900F5CF07F0C2CB00F0BA
:103D0600C3CB01F0C4CB02F0C5CB03F071EC0DF0D0
:103D16000A0E046E000E056E066E076E71EC0DF04F
:103D260008C000F009C001F00AC002F00BC003F0A1
:103D3600300E0024B76FD3D0BAAB45D0B5CB00F068
:103D4600B6CB01F0000EB6BFFF0E026E036E003654
:103D560000900136023603360036009001360236F0
:103D66000336350E0024F66E860E0120F76E000E21
:103D76000220F86E0900F5CF04F00900F5CF05F032
:103D86000900F5CF06F00900F5CF07F0C2CB00F029
:103D9600C3CB01F0C4CB02F0C5CB03F071EC0DF040
:103DA6000F0E0016000E0116021603167B0E0024D7
:103DB600F66E860E0120F76E000E0220F86E0900E0
:103DC600F5CFB7FB44D0B5CB00F0B6CB01F0000E73
:103DD600B6BFFF0E026E036E003600900136023645
:103DE600033600360090013602360336350E0024BF
:103DF600F66E860E0120F76E000E0220F86E0900A0
:103E0600F5CF04F00900F5CF05F00900F5CF06F06F
:103E16000900F5CF07F0C2CB00F0C3CB01F0C4CB4D
:103E260002F0C5CB03F071EC0DF00F0E0016000E7C
:103E36000116021603168C0E0024F66E860E01205D
:103E4600F76E000E0220F86E0900F5CFB7FB47D0DB
:103E5600B5CB00F0B6CB01F0000EB6BFFF0E026E7A
:103E6600036E0036009001360236033600360090A7
:103E7600013602360336860E0024F66E850E0120C4
:103E8600F76E000E0220F86E0900F5CF04F0090067
:103E9600F5CF05F00900F5CF06F00900F5CF07F0DC
:103EA600C2CB00F0C3CB01F0C4CB02F0C5CB03F00C
:103EB60071EC0DF0070E0014B76F300EB7270FD058
:103EC600C851000AD8B4F2D6C851C00AD8B4EED642
:103ED600C851800AD8B430D7C851400AB9E0A6CB39
:103EE600E1FFA7CBE2FFB7CBE6FFA64BA72BC64B5E
:103EF600C72BCAD6BAA71AD0800E006E800EB91983
:103F0600005C02E1B851000811E2A6CBE1FFA7CBA5
:103F1600E2FF200EE66EA64BA72BC64BC72B010E63
:103F2600B85F000EB95BB851B911EFE190EF0FF031
:0A3F3600C6CB00F0C7CB01F012006B
:103F40000B01C66BC76B1D0ECE6F050ECF6FA6ECB7
:103F500005F000C0AAFBC66BC76B000EC75D02E18F
:103F6000AA51C65D11E2400EBA6F050EBB6FC65175
:103F7000BA25E96EC751BB21EA6EEECFCEFBC3EC8A
:103F800005F0C64BC72BE9D7470ECE6F050ECF6F96
:103F9000A6EC05F000C0AAFBC66BC76B000EC75DA0
:103FA00002E1AA51C65D11E23B0EBC6F050EBD6F6A
:103FB000C651BC25E96EC751BD21EA6EEECFCEFBDE
:103FC000C3EC05F0C64BC72BE9D7A8CBCEFBA9CBDA
:103FD000CFFBA6EC05F000C0AAFBC66BC76B000EBA
:103FE000C75D02E1AA51C65D0DE2C651A825E96E82
:103FF000C751A921EA6EEECFCEFBC3EC05F0C64B4C
:10400000C72BEDD73D0ECE6F050ECF6FA6EC05F09A
:1040100000C0AAFBC66BC76B000EC75D02E1AA51C8
:10402000C65D11E2040EBE6F050EBF6FC651BE2500
:10403000E96EC751BF21EA6EEECFCEFBC3EC05F0AF
:10404000C64BC72BE9D7070ECE6F050ECF6FA6EC78
:1040500005F000C0AAFBC66BC76B000EC75D02E18E
:10406000AA51C65D11E2FB0EC06F040EC16FC651AE
:10407000C025E96EC751C121EA6EEECFCEFBC3EC7D
:1040800005F0C64BC72BE9D7020ECE6F050ECF6FDA
:10409000A6EC05F000C0AAFBC66BC76B000EC75D9F
:1040A00002E1AA51C65D11E2150EC26F050EC36F83
:1040B000C651C225E96EC751C321EA6EEECFCEFBD1
:1040C000C3EC05F0C64BC72BE9D7A6CBCEFBA7CBDD
:1040D000CFFBA6EC05F000C0AAFBC66BC76B000EB9
:1040E000C75D02E1AA51C65D0DE2C651A625E96E83
:1040F000C751A721EA6EEECFCEFBC3EC05F0C64B4D
:10410000C72BEDD7170ECE6F050ECF6FA6EC05F0BF
:1041100000C0AAFBC66BC76B000EC75D02E1AA51C7
:10412000C65D11E20E0EC46F050EC56FC651C425E3
:10413000E96EC751C521EA6EEECFCEFBC3EC05F0A8
:10414000C64BC72BE9D7010ED46F67EC01F00C0EFC
:104150000B01D46F67EC01F0010E0B01CE6F010E65
:10416000CF6FA8CBD0FBA9CBD1FB50EC05F0020E52
:104170000B01CE6F010ECF6FA6CBD0FBA7CBD1FB2F
:0641800050EC05F01200F6
:1041860000C008F00150006E016A026A036A0B6AF9
:104196000C6A016A026A036A960E036E0A6A00AE28
:1041A600DBEF20F0081E001E082AD8B4002A0A8E6B
:1041B60000C001F008C000F0086A026AE7EC0EF0E1
:0241C6001200E5
:1041C8000900F5CFE6FF0006FBE10106F9E1120060
:1041D80099CB04F09ACB05F00B019D519E1124E078
:1041E800010E9D5F000E9E5B04C002F005C003F047
:1041F800044A052A9BCB00F09CCB01F09B4B9C2BDF
:1042080000C0E9FF01C0EAFF02C0E1FF03C0E2FF0E
:10421800EECFE6FF02C0E9FF03C0EAFFEECF00F0F1
:10422800005201E101D0D8D79DCB00F09ECB01F020
:10423800010E9D5F000E9E5B0050011008E004C057
:10424800E1FF05C0E2FFE66A044A052AEDD799CBEB
:0842580000F09ACB01F0120006
:104260000B01A46BA56B99CBA0FB9ACBA1FB9BCBBD
:10427000A2FB9CCBA3FBA351FF0A08E1A251FF0ABA
:1042800005E1A151FF0A02E1A051FF0A0DE19DCB1A
:10429000A6FB9ECBA7FB110EA86F050EA96F64ECC1
:1042A0000FF0030E006EF1D1010E006FA2AF0ED021
:1042B000800EA219006E00C0A2FB002B9DCBE1FF77
:1042C0009ECBE2FF2D0EE66E9D4B9E2B000E006EE8
:1042D000A31908E10050A21905E10050A11902E15B
:1042E000A051000A0CE19DCBA6FB9ECBA7FB500E74
:1042F000A86F050EA96F64EC0FF0006AC6D1A35138
:10430000FF0A08E1A251000A05E1A151000A02E1F9
:10431000A051000A0DE19DCBA6FB9ECBA7FB520E40
:10432000A86F050EA96F64EC0FF000CB00F0ADD1C3
:10433000000E046E000E056E000E066E7F0E076EF8
:10434000A0CB00F0A1CB01F0A2CB02F0A3CB03F0F5
:104350001CEC06F0010ED8B0000E006E00521CE0FE
:10436000A0CB00F0A1CB01F0A2CB02F0A3CB03F0D5
:10437000000E046E000E056E200E066E820E076E95
:10438000A9EC01F000C0A0FB01C0A1FB02C0A2FB90
:1043900003C0A3FBA507CCD7000E046E000E056E6C
:1043A000200E066E820E076EA0CB00F0A1CB01F0AE
:1043B000A2CB02F0A3CB03F01CEC06F0000ED8B0A9
:1043C000010E006E00521CE0A0CB00F0A1CB01F06A
:1043D000A2CB02F0A3CB03F0CD0E046ECC0E056E83
:1043E0004C0E066E7B0E076EA9EC01F000C0A0FB20
:1043F00001C0A1FB02C0A2FB03C0A3FBA52BCCD72D
:10440000FF0EA015086EFF0EA115096E7F0EA215F6
:104410000A6E000EA3150B6E08C004F009C005F06B
:104420000AC006F00BC007F00436049005360636C5
:104430000736000EA015006E000EA115016E000ECD
:10444000A215026EFF0EA315036E00C0A0FB01C0F3
:10445000A1FB02C0A2FB03C0A3FB0450A011006E8D
:104460000550A111016E0650A211026E0750A31152
:10447000036E00C0A0FB01C0A1FB02C0A2FB03C0F1
:10448000A3FB7F0EA35D006E00C09FFB010EA36F18
:1044900000C004F0A0CB00F0A1CB01F0A2CB02F051
:1044A000A3CB03F0045007E000360090013602363B
:1044B0000336FF0FF8D700C0A0FB01C0A1FB02C06C
:1044C000A2FB03C0A3FB9DCBE1FF9ECBE2FFA35168
:1044D000300FE66E9D4B9E2B800EA519006E800E50
:1044E000010A005C08E3800E060A006E800EA51922
:1044F000005C01E30AD09DCBE1FF9ECBE2FF2E0ED4
:10450000E66E9D4B9E2B010EA46F060E9F6F9F5172
:10451000000A54E0A36BA0CB00F0A1CB01F0A2CB2A
:1045200002F0A3CB03F000360090013602360336CA
:1045300000360090013602360336A0510026A15104
:104540000122A2510222A351032200C0A0FB01C0FC
:10455000A1FB02C0A2FB03C0A3FBA0CB00F0A1CB38
:1045600001F0A2CB02F0A3CB03F00036009001369D
:104570000236033600C0A0FB01C0A1FB02C0A2FBB3
:1045800003C0A3FB9DCBE1FF9ECBE2FFA351300F05
:10459000E66E9D4B9E2BA451000A0EE1A507A55186
:1045A000000A0AE19DCBE1FF9ECBE2FF2E0EE66EF4
:1045B0009D4B9E2B010EA46F9F07A9D7FF0E9D2533
:1045C000E96EFF0E9E21EA6EEE50300A05E1010E03
:1045D0009D5F000E9E5BF2D7FF0E9D25E96EFF0EDC
:1045E0009E21EA6EEE502E0A04E1010E9D5F000E40
:1045F0009E5BA551000A43E09DCBE1FF9ECBE2FF0D
:10460000650EE66E9D4B9E2B800EA519006E800EEA
:10461000000A005C0BE29DCBE1FF9ECBE2FF2D0E7A
:10462000E66E9D4B9E2BA5510008A56FA5CB9FFB69
:10463000800E090A006E800EA519005C0FE20A0EBA
:10464000046E9FCB00F039EC02F09DCBE1FF9ECBD6
:10465000E2FF0050300FE66E9D4B9E2B0A0E046E5B
:104660009FCB00F039EC02F008C000F09DCBE1FFD9
:104670009ECBE2FF0050300FE66E9D4B9E2B9DCBF4
:0C468000E1FF9ECBE2FFE66A006A120038
:10468C00F250026EF29E0500FF6A0150FE6E005061
:08469C00FD6E02BEF28E120059
:1046A4000B019B6B9C6BE10E9D6F100E9E6F000EB9
:1046B4009F6F000EA06F99CB00F09ACB01F0994B3D
:1046C4009A2B00C0E9FF01C0EAFFEECF9BFB000E6E
:1046D4009C6F000E9C6F9B519C1123E0050E046E91
:1046E4009DCB00F09ECB01F09FCB02F0A0CB03F05A
:1046F400045007E000360090013602360336FF0FFF
:10470400F8D700509D2701509E2302509F23035049
:10471400A0239B519D279C519E23000E9F23A023E1
:10472400CAD79DCB00F09ECB01F09FCB02F0A0CB6B
:0447340003F012007C
:104738000B01006BA06B99CBCEFB9ACBCFFB3A0E4B
:10474800D06F01EC05F0020E00249E6F000E0120D0
:104758009F6F9D5317E000519E25E96E000E9F2123
:10476800EA6EEE500D0A0EE000CB00F0002B005070
:104778009E25E96E000E9F21EA6EEE502C0AD8B4F1
:104788009D07E7D700519E25E96E000E9F21EA6E2E
:10479800EE502C0A1AE000519E25E96E000E9F216A
:1047A800EA6EEE500D0A11E0A0519B25E16E000E55
:1047B8009C21E26E00519E25E96E000E9F21EA6E53
:1047C800EECFE6FFA02B002BDDD7A0519B25E16E95
:0A47D800000E9C21E26EE66A12005A
:1047E20099CBA6FB9ACBA7FBB90E0B01A86F070EBC
:1047F200A96F23EC0FF0000E011802E1000E001861
:0C48020003E0010E006E01D0006A1200FD
:10480E0099CBE9FF9ACBEAFFEE5211E099CBE9FF83
:10481E009ACBEAFF9BCBD9FF9CCBDAFFEE50DE188A
:10482E0006E10B01994B9A2B9B4B9C2BE9D799CB0D
:10483E00E9FF9ACBEAFF9BCBD9FF9CCBDAFFDE5088
:0C484E00EE5C006E016A000E015A1200C0
:10485A0099CBE9FF9ACBEAFFEECF9BFB000E0B0147
:10486A009C6F000E9C6F000E9C1902E1200E9B1992
:10487A0007E0000E9C1902E1090E9B1901E003D022
:10488A00994B9A2BE5D79D6B9E6B9F6BA06B000E85
:10489A009C1902E12D0E9B1905E19F4BA02B994B08
:1048AA009A2B08D0000E9C1902E12B0E9B1902E1EB
:1048BA00994B9A2B99CBE9FF9ACBEAFFEECF9BFB58
:1048CA00000E9C6F000E9C6F9BCBCEFBC5EC09F0D3
:1048DA00005219E09DCB00F09ECB01F00A0E046E47
:1048EA00000E056E2BEC0BF0300E9B5D026E000E77
:1048FA009C59036E025000249D6F035001209E6F45
:10490A00994B9A2BD7D79F51A01108E09D510008C7
:10491A00006E9ECB01F0000E015604D09DCB00F034
:06492A009ECB01F012001B
:104930000B019B6B9C6B99CB03F09ACB04F099CB4A
:1049400005F09ACB06F003C0E9FF04C0EAFFEE5081
:10495000200A04E19B519C1101E110D0010E9B6FD4
:10496000000E9C6F03C0E9FF04C0EAFF05C0E1FF31
:1049700006C0E2FFEECFE6FF054A062A03C001F0BB
:1049800004C002F0034A042A01C0E9FF02C0EAFFA2
:10499000EE50000AD8E199CB00F09ACB01F012005A
:1049A0009BCB04F09CCB05F099CB02F09ACB03F0A3
:1049B0009DCB00F09ECB01F0010E0B019D5F000E20
:1049C0009E5B005001100FE004C0E9FF05C0EAFF44
:1049D00002C0E1FF03C0E2FFEECFE6FF024A032A76
:1049E000044A052AE5D799CB00F09ACB01F01200D2
:1049F0009E0E0B01A46F0B0EA56F99CBA6FB9ACB55
:104A0000A7FB9BCBA8FB9CCBA9FB9DCBAAFBA40E31
:104A1000AB6F0B0EAC6F8BEC0FF000C0A2FB01C0B4
:104A2000A3FB00509925E16E01509A21E26EE66ADF
:0A4A3000A2CB00F0A3CB01F01200AE
:104A3A000B01596B5A6B280ECE6F090ECF6FA6EC7D
:104A4A0005F000C041FB596B5A6B000E5A5D02E13A
:104A5A004151595D11E2210E516F090E526F5951A0
:104A6A005125E96E5A515221EA6EEECFCEFBC3ECC4
:104A7A0005F0594B5A2BE9D72F0ECE6F090ECF6F7F
:104A8A00A6EC05F000C041FB596B5A6B000E5A5D4B
:104A9A0002E14151595D11E20C0E536F090E546F38
:104AAA0059515325E96E5A515421EA6EEECFCEFB85
:104ABA00C3EC05F0594B5A2BE9D7E50ECE6F080E19
:104ACA00CF6FA6EC05F000C041FB596B5A6B000E84
:104ADA005A5D02E14151595D11E2F70E556F080E18
:104AEA00566F59515525E96E5A515621EA6EEECF45
:104AFA00CEFBC3EC05F0594B5A2BE9D7090ECE6F02
:104B0A00090ECF6FA6EC05F000C041FB596B5A6B3A
:104B1A00000E5A5D02E14151595D11E2E20E576FF2
:104B2A00080E586F59515725E96E5A515821EA6EA5
:104B3A00EECFCEFBC3EC05F0594B5A2BE9D7F9CA95
:104B4A0099FBFACA9AFBC70E9B6F080E9C6F9D6B66
:104B5A00EEDD020E0A01F9250B01A66F000E0A010D
:104B6A00FA210B01A76FC40EA86F080EA96F23ECD8
:104B7A000FF000C0FBFA01C0FCFA020E0026000E7C
:104B8A00012200C0FBFA01C0FCFA00C0A6FB01C06A
:104B9A00A7FBDF0E0B01A86F080EA96F23EC0FF01D
:104BAA0000C0FDFA01C0FEFA000E0A01FC1902E17A
:104BBA00000EFB193CE0000EFE1902E1000EFD1981
:104BCA0036E09C0E0B01996F060E9A6FFBCA9BFB8F
:104BDA00FCCA9CFB0A01FB51FD5D0B019D6F0A019A
:104BEA00FC51FE590B019E6FD6DE0A01FB51FD5D99
:104BFA00006EFC51FE59016E9C0E0024E16E060EF9
:104C0A000120E26EE66ADDC8E1FFDEC8E2FF9C0E23
:104C1A00E66E060EE66EC70EE66E080EE66EDBC898
:104C2A0000F0DCC801F02DDD010E09010E6F120043
:104C3A000B014F6B506B160ECE6F090ECF6FA6ECA1
:104C4A0005F000C051FB4F6B506B000E505D02E146
:104C5A0051514F5D11E20F0E416F090E426F4F51D4
:104C6A004125E96E50514221EA6EEECFCEFBC3ECEC
:104C7A0005F04F4B502BE9D71F0ECE6F090ECF6FA1
:104C8A00A6EC05F000C051FB4F6B506B000E505D57
:104C9A0002E151514F5D11E21D0E436F090E446F3F
:104CAA004F514325E96E50514421EA6EEECFCEFBB7
:104CBA00C3EC05F04F4B502BE9D7B50ECE6F080E5B
:104CCA00CF6FA6EC05F000C051FB4F6B506B000E86
:104CDA00505D02E151514F5D11E2E70E456F070E3B
:104CEA00466F4F514525E96E50514621EA6EEECF87
:104CFA00CEFBC3EC05F04F4B502BE9D7E40ECE6F39
:104D0A00070ECF6FA6EC05F000C051FB4F6B506B3E
:104D1A00000E505D02E151514F5D11E2E10E476F05
:104D2A00070E486F4F514725E96E50514821EA6EE8
:104D3A00EECFCEFBC3EC05F04F4B502BE9D7FF0E5D
:104D4A00CE6F070ECF6FA6EC05F000C051FB4F6B7C
:104D5A00506B000E505D02E151514F5D11E2F80EA9
:104D6A00496F070E4A6F4F514925E96E50514A2142
:104D7A00EA6EEECFCEFBC3EC05F04F4B502BE9D7D2
:104D8A00F60ECE6F070ECF6FA6EC05F000C051FBF2
:104D9A004F6B506B000E505D02E151514F5D11E2B5
:104DAA00CE0E4B6F070E4C6F4F514B25E96E50518B
:104DBA004C21EA6EEECFCEFBC3EC05F04F4B502BE5
:104DCA00E9D7F9CACEFBFACACFFBA6EC05F000C0B8
:104DDA0051FB4F6B506B000E505D02E151514F5D1C
:104DEA0010E24F510A01F925E96E0B0150510A01EF
:104DFA00FA21EA6EEECFCEFBC3EC05F04F4B502BF7
:104E0A00EAD7CB0ECE6F070ECF6FA6EC05F000C027
:104E1A0051FB4F6B506B000E505D02E151514F5DDB
:104E2A0011E2C80E4D6F070E4E6F4F514D25E96EB8
:104E3A0050514E21EA6EEECFCEFBC3EC05F04F4B3C
:104E4A00502BE9D7F9CAA6FBFACAA7FBDD0EA86F51
:104E5A00070EA96F23EC0FF0000E011802E1000EF5
:0C4E6A00001803E0010E0701DC6F1200CD
:0E4E7600ACB202D00000FCD7F9CAADFF1200AA
:104E84000F0121B302D00000FBD7F9CA1CFF1200A6
:104E9400BE0EF66E840EF76E000EF86E4F0EE16EC7
:104EA4000B0EE26E2E0E006E010E016EE4EC20F08D
:104EB400B20E0B01CE6F070ECF6FA6EC05F000C04B
:104EC4007DFB4F6B506B000E505D02E17D514F5DD9
:104ED40011E2AB0E416F070E426F4F514125E96E4F
:104EE40050514221EA6EEECFCEFBC3EC05F04F4B9E
:104EF400502BE9D7670ECE6F060ECF6FA6EC05F0E8
:104F040000C07DFB4F6B506B000E505D02E17D5184
:104F14004F5D11E2650E436F060E446F4F514325FA
:104F2400E96E50514421EA6EEECFCEFBC3EC05F09E
:104F34004F4B502BE9D7690ECE6F060ECF6FA6EC00
:104F440005F000C07DFB4F6B506B000E505D02E11D
:104F54007D514F5D11E27C0E456F060E466F4F5139
:104F64004525E96E50514621EA6EEECFCEFBC3ECE7
:104F740005F04F4B502BE9D7790ECE6F060ECF6F4D
:104F8400A6EC05F000C07DFB4F6B506B000E505D2E
:104F940002E17D514F5D11E2620E476F060E486FCC
:104FA4004F514725E96E50514821EA6EEECFCEFBB2
:104FB400C3EC05F04F4B502BE9D7540ECE6F060EC1
:104FC400CF6FA6EC05F000C07DFB4F6B506B000E5D
:104FD400505D02E17D514F5D11E24D0E496F060EA9
:104FE4004A6F4F514925E96E50514A21EA6EEECF7E
:104FF400CEFBC3EC05F04F4B502BE9D75B0ECE6FC5
:10500400060ECF6FA6EC05F000C07DFB4F6B506B16
:10501400000E505D02E17D514F5D11E2600E4B6F59
:10502400060E4C6F4F514B25E96E50514C21EA6EE0
:10503400EECFCEFBC3EC05F04F4B502BE9D7F9CAAA
:10504400CEFBFACACFFBA6EC05F000C07DFB4F6B8C
:10505400506B000E505D02E17D514F5D10E24F51E7
:105064000A01F925E96E0B0150510A01FA21EA6E91
:10507400EECFCEFBC3EC05F04F4B502BEAD75D0EC1
:10508400CE6F060ECF6FA6EC05F000C07DFB4F6B14
:10509400506B000E505D02E17D514F5D11E28C0EAC
:1050A4004D6F060E4E6F4F514D25E96E50514E21F6
:1050B400EA6EEECFCEFBC3EC05F04F4B502BE9D795
:1050C400F9CA99FBFACA9AFB9C0E9B6F060E9C6F59
:1050D400010E9D6F9CEC23F0510E996F0B0E9A6F8D
:1050E4009C0E9B6F060E9C6F020E9D6F000E9E6FB2
:1050F400ECEC20F0550E996F0B0E9A6F9E0E9B6F81
:10510400060E9C6F020E9D6F000E9E6FECEC20F05D
:10511400580E996F0B0E9A6FA10E9B6F060E9C6F23
:10512400040E9D6F000E9E6FECEC20F0510E996FF3
:105134000B0E9A6F2DEC24F000C097FB01C098FB76
:10514400550E996F0B0E9A6F2DEC24F000C095FB51
:1051540001C096FB580E996F0B0E9A6F2DEC24F03C
:10516400C3EC20F0000E046E400E056E1C0E066E9D
:105174008C0E076E6DEC0AF000C091FB01C092FB2F
:1051840002C093FB03C094FB95CB00F096CB01F0D7
:10519400C3EC20F091CB04F092CB05F093CB06F056
:1051A40094CB07F0B8EC02F0000E046E000E056E0E
:1051B400700E066E840E076E6DEC0AF000C091FB53
:1051C40001C092FB02C093FB03C094FB97CB00F099
:1051D40098CB01F0C3EC20F091CB04F092CB05F016
:1051E40093CB06F094CB07F0B8EC02F000C0FBFAC6
:1051F40001C0FCFA02C0FDFA03C0FEFAF9CA99FB29
:10520400FACA9AFB9C0E0B019B6F060E9C6F020E52
:105214009D6F9CEC23F006019C51530A1AE1FBCAD2
:1052240000F0FCCA01F0FDCA02F0FECA03F0000E51
:10523400046E000E056E800E066E7F0E076EA9ECDE
:1052440001F000C0FBFA01C0FCFA02C0FDFA03C081
:10525400FEFAF9CA99FBFACA9AFB9C0E0B019B6FE2
:10526400060E9C6F030E9D6F9CEC23F0510E996FFC
:105274000B0E9A6F9C0E9B6F060E9C6F030E9D6F18
:10528400000E9E6FECEC20F0550E996F0B0E9A6F8A
:105294009F0E9B6F060E9C6F020E9D6F000E9E6FFD
:1052A400ECEC20F0580E996F0B0E9A6FA20E9B6FC8
:1052B400060E9C6F040E9D6F000E9E6FECEC20F0AA
:1052C400510E996F0B0E9A6F2DEC24F000C097FBD2
:1052D40001C098FB550E996F0B0E9A6F2DEC24F0BC
:1052E40000C095FB01C096FB580E996F0B0E9A6F88
:1052F4002DEC24F0C3EC20F0000E046E400E056E7D
:105304001C0E066E8C0E076E6DEC0AF000C091FB4D
:1053140001C092FB02C093FB03C094FB95CB00F049
:1053240096CB01F0C3EC20F091CB04F092CB05F0C6
:1053340093CB06F094CB07F0B8EC02F0000E046EA9
:10534400000E056E700E066E840E076E6DEC0AF08C
:1053540000C091FB01C092FB02C093FB03C094FB0D
:1053640097CB00F098CB01F0C3EC20F091CB04F084
:1053740092CB05F093CB06F094CB07F0B8EC02F097
:1053840000C08DFB01C08EFB02C08FFB03C090FBED
:10539400F9CA99FBFACA9AFB9C0E0B019B6F060E85
:1053A4009C6F040E9D6F9CEC23F006019C51570AE0
:1053B4001AE18DCB00F08ECB01F08FCB02F090CBB5
:1053C40003F0000E046E000E056E800E066E7F0E56
:1053D400076EA9EC01F000C08DFB01C08EFB02C07A
:1053E4008FFB03C090FBFBCA99FBFCCA9AFBFDCA66
:1053F4009BFBFECA9CFB5D0E0B019D6F0B0E9E6F0B
:1054040030EC21F08DCB99FB8ECB9AFB8FCB9BFBA1
:1054140090CB9CFB6D0E9D6F0B0E9E6F30EC21F0BC
:105424006D0E996F0B0E9A6F98EC24F000C091FBEF
:1054340001C092FB5D0E996F0B0E9A6F98EC24F0ED
:1054440000C09EFB01C09FFB4B0E996F090E9A6F23
:105454000E0E9B6F860E9C6F000E9D6F91CBA0FB72
:1054640092CBA1FBF8EC24F0010E07019C6F120013
:105474000B01416B426B436B446B456BF9CAFDFAFC
:10548400FACAFEFA466B476B486B496B4A6B4B6B27
:105494004C6B4D6B4E6B4F6B506B516B526B536B34
:1054A400546BFDCACEFBFECACFFBA6EC05F0800E02
:1054B400026E800E0118025C02E10050020802E351
:1054C400006AEED0460E996F0B0E9A6FFDCA9BFBD5
:1054D400FECA9CFB0F0E9D6F000E9E6FECEC20F03D
:1054E400416B0F0E415DD8B067D0460EE96E0B0ECE
:1054F400EA6E4151E926D8B0EA2AEE50000A05E1E5
:10550400425302E141CB42FB57D0460EE96E0B0EEB
:10551400EA6E4151E926D8B0EA2AEE502B0A04E19A
:10552400455302E141CB45FB460EE96E0B0EEA6E94
:105534004151E926D8B0EA2AEE503D0A04E143532A
:1055440002E141CB43FB460EE96E0B0EEA6E41517C
:10555400E926D8B0EA2AEE503F0A04E1445302E1B6
:1055640041CB44FB460EE96E0B0EEA6E4151E9262F
:10557400D8B0EA2AEE500D0A17E0460EE96E0B0E7B
:10558400EA6E4151E926D8B0EA2AEE500A0A0CE044
:10559400460EE96E0B0EEA6E4151E926D8B0EA2AAE
:1055A400EE503A0A01E006D0425304E1455302E0CA
:1055B40041CB42FB412B95D7435319E1445317E1A7
:1055C400FBCA99FBFCCA9AFB460E9B6F0B0E9C6FA1
:1055D40045519B27D8B09C2B4551425D9D6F9E6BD6
:1055E400000E9E5BECEC20F0040E006E59D0435389
:1055F40019E1445317E0FBCA99FBFCCA9AFB460E17
:105604009B6F0B0E9C6F45519B27D8B09C2B45512B
:10561400445D9D6F9E6B000E9E5BECEC20F0030ED0
:10562400006E3ED0435319E0445317E1FBCA99FB83
:10563400FCCA9AFB460E9B6F0B0E9C6F45519B2731
:10564400D8B09C2B4551435D9D6F9E6B000E9E5BB5
:10565400ECEC20F0020E006E23D04405016E026AC9
:10566400000E025A000E021802E10150431917E11C
:10567400FBCA99FBFCCA9AFB460E9B6F0B0E9C6FF0
:1056840045519B27D8B09C2B4551435D9D6F9E6B24
:10569400000E9E5BECEC20F0010E006E01D0006A5F
:0256A4001200F2
:1056A6000A01FF6BF9CA99FBFACA9AFB52EC23F07E
:1056B60000C0FBFA01C0FCFA02C0FDFA03C0FEFA04
:1056C6000A01FF6B7351FF5D2BE2180E006E000E90
:1056D600016EFFCA04F0000E056E2BEC0BF0FB0EFC
:1056E6000024E96E090E0120EA6EEECF01F0EECF3E
:1056F60002F0EECF03F0EECF04F00450FE1908E1FD
:105706000350FD1905E10250FC1902E10150FB1995
:1057160005E1FFCA00F0000E016E04D0FF2BD2D7C0
:06572600006A016A120096
:10572C000B01536B546BA40ECE6F070ECF6FA6EC10
:10573C0005F000C041FB536B546B000E545D02E14D
:10574C004151535D16E29D0E0A01FB6F070EFC6F73
:10575C000B0153510A01FB25E96E0B0154510A014F
:10576C00FC21EA6EEECFCEFBC3EC05F0534B542B71
:10577C00E4D79A0ECE6F060ECF6FA6EC05F000C0E4
:10578C0041FB536B546B000E545D02E14151535D70
:10579C0016E2920E0A01FD6F060EFE6F0B015351BD
:1057AC000A01FD25E96E0B0154510A01FE21EA6E36
:1057BC00EECFCEFBC3EC05F0534B542BE4D7F9CA18
:1057CC00CEFBFACACFFBA6EC05F000C041FB536B35
:1057DC00546B000E545D02E14151535D10E2535184
:1057EC000A01F925E96E0B0154510A01FA21EA6EFE
:1057FC00EECFCEFBC3EC05F0534B542BEAD78F0EF8
:10580C00CE6F060ECF6FA6EC05F000C041FB536BBC
:10581C00546B000E545D02E14151535D11E2940E44
:10582C00516F060E526F53515125E96E545152214E
:10583C00EA6EEECFCEFBC3EC05F0534B542BE9D7FD
:10584C00F9CA99FBFACA9AFBF1EC23F0005201E178
:10585C001FD0F9CA99FBFACA9AFB9C0E0B019B6FDD
:10586C00060E9C6F9D6B9CEC23F09C0E996F060EA4
:10587C009A6F980E9B6F060E9C6F07EC24F0000E2F
:10588C00011802E1000E001803E1010E0601976FEA
:02589C001200F8
:10589E000B012F6B306B316B326B336B346B356BA3
:1058AE00366B376B386B396B3A6B3B6B3C6B3D6BC6
:1058BE003E6B3F6B406BF3CAF9FAF4CAFAFA320E3A
:1058CE000A01FB6F0B0EFC6FCEDD00C02FFB0052EA
:1058DE0019E1F5CAE1FFF6CAE2FF0BCAE6FF0CCAF0
:1058EE00E6FF0DCAE6FF0ECAE6FFF7CAE1FFF8CAE9
:1058FE00E2FFFFC9E6FF00CAE6FF01CAE6FF02CAE1
:10590E00E6FF57D1320E0A01F96F0B0EFA6FC4DEA5
:10591E0000C030FB01C031FB0050011019E1F5CA87
:10592E00E1FFF6CAE2FF0BCAE6FF0CCAE6FF0DCA9C
:10593E00E6FF0ECAE6FFF7CAE1FFF8CAE2FFFFC9AB
:10594E00E6FF00CAE6FF01CAE6FF02CAE6FF31D152
:10595E001DD1180E006E000E016E30CB04F031CB4F
:10596E0005F02BEC0BF0FB0E0026090E01220C0E9F
:10597E000024E96E000E0120EA6EF5CAE1FFF6CAB8
:10598E00E2FFEECFE6FFEECFE6FFEECFE6FFEECF85
:10599E00E6FF180E006E000E016E30CB04F031CB18
:1059AE0005F02BEC0BF0FB0E0026090E0122040E67
:1059BE000024E96E000E0120EA6EF7CAE1FFF8CA74
:1059CE00E2FFEECFE6FFEECFE6FFEECFE6FFEECF45
:1059DE00E6FFEFD0180E006E000E016E30CB04F015
:1059EE0031CB05F02BEC0BF0FB0E0026090E01223D
:1059FE00080E0024E96E000E0120EA6EF5CAE1FFE2
:105A0E00F6CAE2FFEECFE6FFEECFE6FFEECFE6FF01
:105A1E00EECFE6FF180E006E000E016E30CB04F0D6
:105A2E0031CB05F02BEC0BF0FB0E0026090E0122FC
:105A3E00040E0024E96E000E0120EA6EF7CAE1FFA3
:105A4E00F8CAE2FFEECFE6FFEECFE6FFEECFE6FFBF
:105A5E00EECFE6FFAED0180E006E000E016E30CB0C
