:100000000C94A10E0C9400000C9400000C940000C1
:100010000C9400000C9400000C9400000C94260F2B
:100020000C9400000C9400000C9400000C94000050
:100030000C9400000C94420F0C9400000C940000EF
:100040000C9400000C9400000C9400000C94000030
:040050000C9400000C
:101D4200BFE5BDBFB8E0BEBF0E94F8102F923F9220
:101D52004F925F926F927F928F929F92B0E0B09378
:101D620096052FDF09DFB0E08B2EB1E09B2EB5EE9A
:101D72006B2EB0E07B2EB1E14B2EB3E05B2EBDE1CA
:101D82002B2EB3E03B2E03DD88249924B8EE4B2E94
:101D9200B3E05B2EB0E06B2E7B2EB3EA2B2EB0E0CD
:101DA2003B2EB2E0BF93B5E7BF93B0E0BF93BF93C2
:101DB200B0E0BF93BF93A6DCADB7BEB71696ADBF7A
:101DC200BEBFB9EA2B2EB0E03B2E16DEBDEF2B2EA6
:101DD200B1E03B2E11DEB0E02B2EB2E03B2E0CDE4A
:101DE200B5EE2B2EB1E03B2E07DEB3EF2B2EB1E08A
:101DF2003B2E02DE68DA009196050023E1F058DE00
:101E0200B8E72B2EB0E03B2EF7DDB0E82B2EB0E08A
:101E12003B2EF2DD22E51BE200E00A95F1F71A956E
:101E2200E1F72A95D1F700000000000000001EDF54
:101E3200B0E0B0939605DECF9F908F907F906F9029
:0A1E42005F904F903F902F90FFCF6C
:101BC4002F923F924F925F926F927F928F929F9249
:101BD400BAB3B068BABBBAB3B068BABBB0E86B2EDC
:101BE400B5E27B2EB0E08B2E9B2EB4E05B2EB1E0F1
:101BF4004B2EBBE32B2EB0E03B2EB0E0BF9317DAA5
:101C0400ADB7BEB71196ADBFBEBFBBB1B260BBB975
:101C1400B8E0B9B9B0E0B0BD03DBB1B1BE7FB1B9D2
:101C2400B1B1BD7FB1B9B0E2B0B958D9B0E8BFBD68
:101C3400B9E0BEBDBFE1BBBDBFE3BABDB9B7B061DA
:101C4400B9BFBAB1B068BAB90FB700680FBFBCEA80
:101C54002B2EB0E03B2E08DB9F908F907F906F90EF
:0A1C64005F904F903F902F9008957D
:10103200CF93DF93CDB7DEB72897CDBFDEBF219622
:101042004C85209246023092470291012150304055
:1010520020934802309349028101025010400093CC
:101062004C0210934D02B42D01E0BB2319F0000F86
:10107200BA95E9F700934E02102F109510934A0289
:10108200B52D01E0BB2319F0000FBA95E9F70093E3
:101092004B02009500933C02F90100810123F90102
:1010A2000083E0914802F0914902108100914B02C5
:1010B200012BE0914802F09149020083B0E0B09325
:1010C2003D02442329F000913D02009500933D0228
:1010D20000913D02003071F0E0914602F09147022A
:1010E200108100913C020123E0914602F0914702F7
:1010F20000830DC0E0914602F091470210810091F9
:101102004B02012BE0914602F09147020083DADAAA
:1011120048EE53E060E070E0BBDAA801B9017F93CA
:101122006F935F934F93830194014AE050E060E034
:1011320070E0AEDA4F915F916F917F910C831D83C6
:101142002E833F830C811D812E813F810883198369
:101152002A833B837F936F935F934F938A019B0113
:101162004C815D816E817F813DDB89019A014F91C6
:101172005F916F917F91C801012F10E0B02FB12BC9
:1011820011F002E027C080933A028A019B01488154
:1011920059816A817B8126DB8B019C0148815981BF
:1011A2006A817B81759567955795479540175107D9
:1011B200620773072CF400913A020F5F00933A0220
:1011C20000913A02069500933B02073010F401E0C9
:1011D20001C000E02796CDBFDEBFDF91CF91089519
:0011E2000D
:0A06C60000E41FE120E030E0089599
:10069200BB27AA279927882700FF04C0840F951F2C
:1006A200A61FB71F440F551F661F771F3695279544
:1006B2001795079589F730502040100769F79D017B
:0406C2008C0108950A
:1007E600C9019A01AB01B80197FB092E05260ED067
:1007F60057FD04D014D00AD0001C38F4509540950B
:10080600309521953F4F4F4F5F4F0895F6F79095DE
:100816008095709561957F4F8F4F9F4F0895A1E208
:100826001A2EAA1BBB1BFD010DC0AA1FBB1FEE1F64
:10083600FF1FA217B307E407F50720F0A21BB30BAF
:10084600E40BF50B661F771F881F991F1A9469F72B
:1008560060957095809590959B01AC01BD01CF0187
:020866000895F3
:10126C009101F9010081002389F0F90100813F937C
:10127C002F933F922F92202E35DA2F903F902F9163
:0E128C003F9189010F5F1F4F9801EBCF08952E
:1006F00021E010913D02022D0127202E103071F0D3
:10070000E0914602F0914702108100914B02012BCB
:10071000E0914602F091470200830DC0E09146024D
:10072000F0914702108100913C020123E0914602C2
:10073000F091470200832F9220903A02BFDE2F9063
:10074000022D0095202E222349F1022D022371F45F
:10075000E0914602F0914702108100914B02012B7B
:10076000E0914602F091470200830DC0E0914602FD
:10077000F0914702108100913C020123E091460272
:10078000F09147020083022F000F202F00913A02C0
:1007900003502F92202E92DE2F90D5CF00913D0254
:1007A000003071F0E0914602F09147021081009113
:1007B0003C020123E0914602F091470200830DC004
:1007C000E0914602F0914702108100914B02012B0B
:1007D000E0914602F091470200832F9220903A0266
:0607E0006DDE2F9008956C
:1004BC00022C022CB4E00B1A00E0001530F4B1E071
:1004CC000B1A000000000000F7CF00000000089598
:0004DC0020
:10122400B1E1B0934202B3E0B0934302BEE6B0939F
:101234004402B7E0B0934502B0E5B0933E02BAE091
:10124400B0933F02B5E5B0934002BAE0B0934102D7
:10125400B1B3BE7FB1BBB1B3B260B1BB0AB1086177
:081264000AB9B6E8B0BD089517
:0A0EE000B0E3B1B9B4E0B6BF089565
:101B7A002F923F92BBB3BF77BBBB2BEC1CEE05E8A1
:101B8A000A95F1F71A95E1F72A95D1F70000BBB348
:101B9A00B068BBBB2AE711EC02E80A95F1F71A957F
:101BAA00E1F72A95D1F700000000B4E82B2EB0E047
:0A1BBA003B2E57DB3F902F9008955B
:10179000CF93DF93CDB7DEB76097CDBFDEBF219685
:1017A0004F925F926F927F9220927E0530927F05DA
:1017B00040927C0550927D05B0E0B0938105B093D6
:1017C0008205B0938305B0938405B0E0B0938A0599
:1017D000B0938B05B0938C05B0938D05B2E3B093B5
:1017E0008E05B0E0B0938F05B0939005B09391054E
:1017F000B0E0B0938505B0938605B0938705B093AC
:101800008805B0E0B0938905B0E0B0935B02B0E02A
:10181000B0935102B0E0B0935202B0E0B0934F02E7
:10182000B0E0B093500260925302709254028092E2
:10183000570290925802B0E0B0935902B0935A0206
:101840003F922F9244241301582C692C14DE2F90C0
:101850003F90B0E0B0938005B0E0B093890500916F
:101860008905023308F087C000918905202F30E0F8
:10187000220F331F220F331F220F331F220F331F5C
:101880000CE512E0F901E00FF11FB0E0B193B19364
:10189000B193B19300918905202F30E0220F331FBF
:1018A000220F331F220F331F220F331F0CE512E0CC
:1018B000020F131FF8013496B0E0B193B193B193C6
:1018C000B19300918905202F30E0220F331F220FA2
:1018D000331F220F331F220F331F0CE512E0020FBC
:1018E000131FF8013896B0E0B193B19300918905C8
:1018F000202F30E0220F331F220F331F220F331F00
:10190000220F331F0CE512E0020F131FF8013A9665
:10191000B0E0B193B19300918905202F30E0220F00
:10192000331F220F331F220F331F220F331F0CE5EB
:1019300012E0020F131FF8013C96B0E0B193B1938F
:1019400000918905202F30E0220F331F220F331F13
:10195000220F331F220F331F0CE512E0020F131F5B
:10196000F8013E96B0E0B193B193009189050F5F05
:101970000093890574CF3F922F92BDE02B2EB2E0E9
:101980003B2E52DD2F903F90088319832A833B839F
:10199000B4EFBC83B1E0BD83B0E0BE83BF832886D3
:1019A00039862A863B862C863D862E863F86009188
:1019B0008005202F30E0220F331F220F331F220F0C
:1019C000331F220F331F0CE512E0D901A00FB11F06
:1019D00010E1FE0101910D931150E1F70091800596
:1019E0000F5F009380057F906F905F904F902F96D0
:0A19F000CDBFDEBFDF91CF91089557
:10147600A101252D362D052D162D01501040502E7B
:10148600612EB22FB32B39F0FA0140828A010F5F29
:0A1496001F4FA801EECF8101089559
:1014280061EE70E180E090E0F10181010F5F1F4FF4
:1014380018010081402F50E0B42FB52BA9F0B5E07A
:101448008B019C01000F111F221F331FBA95D1F782
:10145800060F171F281F391F040F151FB0E02B1F79
:0E1468003B1FB801C901E0CF8B019C01089524
:10170600CF93DF93CDB7DEB72596288139814A81FD
:101716005B810C811D81B22FB32B29F420917E05AC
:1017260030917F0500C0B82DB92921F480907E053F
:1017360090907F05B42FB52B29F440917E055091EA
:101746007F0500C0B02FB12B29F400917E051091C2
:101756007F0500C0B42DB529B629B72939F4B4EFF1
:101766004B2EB1E05B2EB0E06B2E7B2E1F930F93BA
:101776005F934F933F932F939ADEADB7BEB71696FE
:0A178600ADBFBEBFDF91CF91089503
:1014B400CF93DF93CDB7DEB76097CDBFDEBF219664
:1014C4000C891D890C8B1D8B0E891F890E8B1F8B1C
:1014D400088D198D088F198F3F922F92A3DF2F90BB
:1014E4003F90088319832A833B834C825D826E82FA
:1014F4007F82888699860C891D890A871B870E89B5
:101504001F890C871D87088D198D0E871F87DED8CC
:1015140021E130E0021713070CF026C0009180058A
:10152400023309F421C0CFDAB02FB12B09F01CC06B
:1015340000918005202F30E0220F331F220F331F2C
:10154400220F331F220F331F0CE512E0D901A00F25
:10155400B11F10E1FE0101910D931150E1F70091CB
:1015640080050F5F009380052F96CDBFDEBFDF910E
:04157400CF91089576
:1006D0009101F90189010F5F1F4F980100810023EB
:1006E00009F0F7CF8901021913090150104008954C
:0006F0000A
:100ACA00AED4A801B90100E0802F009180058017FB
:100ADA00F8F4282F30E0220F331F220F331F220F82
:100AEA00331F220F331F0CE512E0F901E00FF11F4B
:100AFA0001911191219131910417150726073707A2
:100B0A0019F4082F10E006C0082F0F5F802FDDCFE1
:060B1A0000E010E0089568
:1019FA00CF93DF93CDB7DEB72297CDBFDEBF219657
:101A0A004F925F926F927F922882398200915002A0
:101A1A00002331F03F922F9252DC2F903F90F6CF65
:101A2A003F922F92B2E96B2EB5E07B2EB5E54B2E95
:101A3A00B2E05B2E288039800E943404BDE04B2E30
:101A4A0028803980B1DC2F903F90B0E0B0934F02EC
:101A5A00B0E0B0935202B1E0B09350020091920507
:101A6A001091930520919405309195050093810575
:101A7A00109382052093830530938405B0E0B093D8
:101A8A008A05B0938B05B0938C05B0938D05B1E0B0
:101A9A00B0935B027F906F905F904F902196CDBF7D
:081AAA00DEBFDF91CF9108952A
:1012C8002F923F924F925F926F927F9200915202BB
:1012D800002381F1B0E0B0935102B0E0B0935B021B
:1012E800B2E96B2EB5E07B2EB7E94B2EB5E05B2E4D
:1012F8002090530230905402B3DA20905302309079
:101308005402E0919705F09198050995B0E0B093E3
:101318005902B0935A02E0915302F0915402B0E09E
:10132800B083B0E0B0934F02B0E0B0935202B0E0A7
:10133800B093500200914F02002381F1B0E0B093C6
:101348005102B0E0B0935B02B2E96B2EB5E07B2EA0
:10135800B7E94B2EB5E05B2E209053023090540233
:101368007FDA2090530230905402E0919705F09173
:1013780098050995B0E0B0935902B0935A02E091EC
:101388005302F0915402B0E0B083B0E0B0934F0242
:10139800B0E0B0935202B0E0B09350027F906F90EB
:0A13A8005F904F903F902F90089542
:10086800CF93DF93CDB7DEB72F97CDBFDEBF2196ED
:100878002F923F92E1EEF1E2DE018FE090E05DDC45
:100888008E017F926F925F924F922801CADC4F903F
:100898005F906F907F90202F0023A9F40091680249
:1008A80010916902F2010193119300916002109175
:1008B80061022091620230916302F3010193119366
:1008C80021933193F6C08E012F931801FAD02F91FE
:1008D800A801B02FB12BA9F4009168021091690208
:1008E800F20101931193009160021091610220912D
:1008F800620230916302F3010193119321933193C2
:10090800D8C0C9C09A01220F331F220F331F220FEC
:10091800331F220F331F0CE512E0020F131FF801DB
:100928003A9601911191F201019311939A01220FC4
:10093800331F220F331F220F331F220F331F0CE5E3
:1009480012E0020F131FF8013496019111912191C1
:100958003191F3010193119321933193AAC09A0124
:10096800220F331F220F331F220F331F220F331F73
:100978000CE512E0020F131FF8013896019111914E
:10098800F201019311939A01220F331F220F331F93
:10099800220F331F220F331F0CE512E0020F131F23
:1009A800F80134960191119121913191F30101934C
:1009B8001193219331937DC09A01220F331F220F87
:1009C800331F220F331F220F331F0CE512E0020FD3
:1009D800131FF8013C9601911191F20101931193B3
:1009E8009A01220F331F220F331F220F331F220FAA
:1009F800331F0CE512E0020F131FF8013496019122
:100A0800119121913191F301019311932193319324
:100A180050C09A01220F331F220F331F220F331F9A
:100A2800220F331F0CE512E0020F131FF8013E9648
:100A380001911191F201019311939A01220F331F31
:100A4800220F331F220F331F220F331F0CE512E032
:100A5800020F131FF80134960191119121913191E0
:100A6800F301019311932193319323C000916A02FA
:100A780010916B02F20101931193009160021091A1
:100A880061022091620230916302F3010193119394
:100A9800219331930EC0223009F434CF213009F468
:100AA8005ECF233009F488CF243009F4B2CF203048
:100AB800E9F23F902F902E96CDBFDEBFDF91CF9108
:020AC80008958F
:10022A00CF93DF93CDB7DEB72F97CDBFDEBF219631
:10023A002F923F924F925F926F927F9250E060E0CE
:10024A0040E070E0C1019F938F93E2EDF1E2DE019D
:10025A008FE090E071DF8F919F911C0134D222E0F0
:10026A0030E02017310714F000E0C8C08E014F9328
:10027A005F935F924F92BFE06B2EB0E07B2E2C0112
:10028A0018015FDF4F905F905F914F9120E02F3010
:10029A0008F061C08E01E22FF0E0E00FF11F00814B
:1002AA00003031F4552311F4022F01C0052F54C038
:1002BA008E01E22FF0E0E00FF11F00810B3229F4EA
:1002CA00772329F4022F302F01C0372F01C0372F8F
:1002DA008E01E22FF0E0E00FF11F00810D3329F4C7
:1002EA00662321F4022F602F00C000C08E01E22F86
:1002FA00F0E0E00FF11F00810F3329F4442321F4C9
:10030A00022F402F00C000C08E01E22FF0E0E00F64
:10031A00F11F00810D3091F08E01E22FF0E0E00F25
:10032A00F11F00810A3051F08E01E22FF0E0E00F58
:10033A00F11F00810A3311F0052F05C0552329F456
:10034A00332321F0022F502F00C000C0022F0F5F6D
:10035A00202F732F9CCF052F662389F4442379F429
:10036A00202F30E0271BB0E03B0B8E01070FB0E0D7
:10037A001B1F390112012801E4DE04E03FC0662395
:10038A0089F4442379F0242F30E0271BB0E03B0B9B
:10039A008E01070FB0E01B1F390112012801D1DEBF
:1003AA0003E02CC0662389F0442379F4262F30E039
:1003BA00271BB0E03B0B8E01070FB0E01B1F390172
:1003CA0012012801BEDE02E019C0242F30E02150BC
:1003DA003040062F10E00217130779F4262F30E079
:1003EA00271BB0E03B0B8E01070FB0E01B1F390142
:1003FA0012012801A6DE01E001C000E07F906F90A3
:10040A005F904F903F902F902E96CDBFDEBFDF9129
:04041A00CF910895E1
:10014C00A101B62DB729B9F0830101501040380137
:10015C009A018A010F5F1F4FA801F20182010F5F04
:10016C001F4F28010081F9010083F9010081002350
:10017C0009F401C0E6CF930183010150104038010E
:10018C00B22FB32B41F0FA01B0E0B0838A010F5FBC
:0A019C001F4FA801F0CF8101089564
:0A01420005900D920197E1F7089572
:10063A002F923F924F925F926F923F922F92B9E21E
:10064A002B2EB2E03B2E0DD62F903F903F922F9249
:10065A0008D6B7E32B2EB2E03B2E03D62F903F905D
:10066A00B6E06B2E2101B2E22B2EB2E03B2ED2DE97
:10067A00B02FB12B19F4B1E0B09396056F905F904B
:08068A004F903F902F9008955E
:10041E00162D062D0150602E112301F1F1010081E0
:10042E00003039F0F2011081F1010081011709F459
:10043E000CC0F1011081F2010081002EB0E01B2EE4
:10044E00012F10E0001911090BC081010F5F1F4F22
:10045E00180182010F5F1F4F2801DACF00E010E074
:02046E000895EF
:1004EA002F923F924F925F926F927F92B2E24B2E7F
:1004FA00BADF98010F5F1F4FB2E24B2E1801B3DF2C
:10050A00021B130B0F5F1F4F38012901BEE02B2E70
:10051A00B2E03B2E16DE7F906F905F904F903F9037
:04052A002F90089571
:10047000F1010081041511F481010AC0F10181012B
:100480000F5F1F4F18010081002391F700E010E07B
:020490000895CD
:1013B200F1010081002399F0F10100814F923F92E7
:1013C2002F92202EE0917C05F0917D0509952F90BA
:1013D2003F904F9081010F5F1F4F1801E9CF4F924D
:1013E2003F922F92242CE0917C05F0917D05099586
:1013F200BAE02B2EE0917C05F0917D0509952F90A6
:061402003F904F90089599
:10062200BBB1B5FD01C0FCCFBBB1B6FF03C0BBB1CE
:08063200B064BBB92CB80895B7
:101AB200CF93DF93CDB7DEB72497CDBFDEBF21969C
:101AC2002F92B0E0B883B0E0B9839DDCB0E92B2E51
:101AD200E3DB2224E1DBE8DB96DCB1E92B2EDCDB65
:101AE2008E010A831B83B1E02B2EE1DB1A812B814D
:101AF200E12FF22F00838E010F5F1F4F0A831B839A
:101B02002224D5DB1A812B81E12FF22F0083CCDB3B
:101B1200AE01FA010081302F2227FA0131960081AD
:101B220010E0022B132B169507951695079516951F
:101B3200079516950795A80113FF04C08A01186F2F
:101B4200A80100C08A0120E057FD2FEF322F68DC88
:101B520040E050E060E87DE3B6D900939C0010932A
:101B62009D0020939E0030939F002F902396CDBF1F
:081B7200DEBFDF91CF91089561
:10140800B4EAB6BFB6B7B7FD01C0FCCFEED8083016
:0A141800B0E009F0B1E00B2F0895D9
:0605F20001B1087F08952D
:10129A0023B8B4E8B6BFB6B7B7FD01C0FCCF08950E
:0012AA0044
:0612AA00B4E9B6BF08958F
:1012B000B4E8B6BF20FAB6B7B6F9B6BFB6B7B7FD51
:0812C00001C0FCCF03B1089549
:06142200E8949ED8089535
:1005620047E16627552726F0332312F426DE60E89A
:040572002DDE0895DD
:1001BC0000951095209530950F5F1F4F2F4F3F4F97
:0201CC00089594
:1001CE00A7DF11F19F938F938EE790E0332351F0C9
:1001DE00369527951795079548175907B4F44F5F2D
:1001EE005F4FF4CF80959095019622239AF0000FE1
:1001FE00111F221F481759071CF041505040F5CFD0
:10020E00002711272227332708C033270FEF102F7F
:0C021E002FE7322F8F919F9183DF08950E
:10011E00002329F4112319F4222309F4332308951B
:00012E00D1
:10012E00F7DF39F041585F4F342F220F3695279560
:04013E00362B0895BF
:100EC800042E152E262E372E52DB002E112E222E02
:040ED800332E089518
:100576008DDF81F1E62ED52EC42EB32EA22E912E1E
:10058600802E002D112D222D332D80DF19F16E25A1
:100596004C0D5D1D40385307F4F441387FEF570783
:1005A600FCF088279927AA27BB2770E2B695A7955E
:1005B60097958795379527951795079520F4880D74
:1005C600991DAA1DBB1D7A9589F7032F3A2F292F4E
:1005D600182FFADD0AC00FEF102F2FE73FE7FACFEB
:0C05E6000027102F202F302FF5CF089594
:1004920045DE79F0632F6078220F331F432F5FE729
:1004A200451B55275040269530E8232B3327989437
:0A04B20003C044275527662708956C
:101C6E00CF93DF93CDB7DEB7CC53D140CDBFDEBF20
:101C7E0021962F923F924F925F926F927F92E2E95E
:101C8E00F0E2DE018CE391E00E94A1008E01025E83
:101C9E001F4FB0E64B2EB0E05B2E18010E94900550
:101CAE008E01025E1F4FBEE04B2EB2E05B2E18017E
:101CBE000E9490058E01045C1F4FB9E64B2EB0E0DA
:101CCE005B2E18010E9490058E01380120909C0019
:101CDE0030909D0040909E0050909F000E94AE0557
:101CEE008E01180177DA9E01245C3F4F28011901FD
:101CFE000E9490058E01045C1F4FB0EA4B2EB0E09F
:101D0E005B2E18010E9490059E01245C3F4F8E01B0
:101D1E00025E1F4F29011801E1D87F906F905F90EE
:101D2E004F903F902F90C55CDE4FCDBFDEBFDF9151
:041D3E00CF910895A4
:100B2000A101FA010081002329F08A010F5F1F4F04
:100B3000A801F7CF9A018A010F5F1F4FA801F201A8
:100B400082010F5F1F4F28010081F9010083F90125
:0C0B50000081002309F0EECF8101089520
:100B5C00CF93DF93CDB7DEB72697CDBFDEBF2196FF
:100B6C002F923F924F925F92B0E0BC83B0E0BD8376
:100B7C00288239824A825B82088119812A813B81D1
:100B8C003F3F29F42F3F19F41F3F09F40F3F41F465
:100B9C00B3E04B2EB2E05B2E130128DD03E084C1E1
:100BAC0061E08E01F8013396008107FF16C08E01BB
:100BBC0098012D5F3F4FF9010081B0E80B27F90137
:100BCC000083062F0F5F202FF301BDE2B08383015A
:100BDC000F5F1F4F3801422F01C0462F088119812A
:100BEC002A813B81303029F4203019F4103009F47B
:100BFC00003041F4B7E04B2EB2E05B2E1301F6DC73
:100C0C0000E052C1088119812A813B813F3729F4C8
:100C1C00203819F4103009F4003051F44F93B9E036
:100C2C004B2EB2E05B2E1301E1DC4F91042F3CC143
:100C3C005F924F923F922F9240E050E060E87FE34A
:100C4C00088119812A813B816CDC002800E009F0C5
:100C5C0001E02F903F904F905F900023C9F05F927E
:100C6C004F923F922F92088119812A813B8140E05B
:100C7C0050E060E271E422D12F903F904F905F9052
:100C8C00088319832A833B830D8101500D83D0CFB8
:100C9C005F924F923F922F9240E050E060E271E4FD
:100CAC00088119812A813B814FDC002800E009F082
:100CBC0001E02F903F904F905F900023C9F05F921E
:100CCC004F923F922F92088119812A813B814DECE2
:100CDC005CEC6CEC7DE3F2D02F903F904F905F90EA
:100CEC00088319832A833B830D810F5F0D83D0CF3B
:100CFC00088119812A813B81000F111F221F331F8C
:100D0C00088319832A833B838E01F8013396008173
:100D1C000F57402F8E01F8013396B1E0B083088154
:100D2C0019812A813B81B42FBB2331F0000F111F95
:100D3C00221F331FBA95D1F7088319832A833B836B
:100D4C008E01F80133960081005DF301008383016D
:100D5C000F5F1F4F38010D8101302CF01D8106E013
:100D6C0001170CF009C0F301BEE2B08383010F5FE1
:100D7C001F4F3801B1E0BC8386E0803009F44BC0D2
:100D8C008E01F8013396B0E0B083088119812A8175
:100D9C003B81A801B901440F551F661F771F440FF3
:100DAC00551F661F771F088119812A813B81040F0B
:100DBC00151F261F371F088319832A833B8308813D
:100DCC0019812A813B81000F111F221F331F0883B9
:100DDC0019832A833B838E01F80133960081005DD1
:100DEC00F301008383010F5F1F4F38010C8100302A
:100DFC0071F40D8101500D83003049F4F301BEE212
:100E0C00B08383010F5F1F4F3801B1E0BC83082F03
:100E1C000150802FB2CFF30131970081003329F4B8
:100E2C008301015010403801F6CFF3013197008156
:100E3C000E3221F483010150104038010D81003035
:100E4C0079F1F301B5E6B08383010F5F1F4F3801D1
:100E5C000D8100305CF4F301BDE2B08383010F5FC0
:100E6C001F4F38010D8000E000190D832D811D816D
:100E7C0009E0011750F4022F4AE05ADB005DF30140
:100E8C00008383010F5F1F4F3801022F4AE050DBB4
:100E9C00092F005DF301008383010F5F1F4F3801A1
:100EAC00F301B0E0B08300E05F904F903F902F9043
:0C0EBC002596CDBFDEBFDF91CF910895D9
:1005F800A1019A018A010F5F1F4FA801F201820130
:100608000F5F1F4F28010081F9010083F901008164
:0A061800002309F0EECF81010895E0
:0E052E00D6DF1CF40024039401C000240895BD
:0E04DC00042E152E262E372E60DE00230895E6
:1001A600B8DF332332F0B8DF11F001E003C00027D7
:0601B60001C00FEF0895E7
:060118006894A3DF0895C6
:10006200F8DF09F441C0E62ED52EC42EB32EA22EFF
:10007200912E802E002D112D222D332DEADF09F431
:100082003DC0842F952F8C199D09B9F072F490957B
:10009200809501964C2D5D2D883180F535952795FB
:1000A200179507950197D1F708C08831E8F4B59400
:1000B200A794979487940197D1F766272EF0080D9D
:1000C200191D2A1D3B1D09C0801A910AA20AB30AF2
:1000D200082D192D2A2D3B2D332312F46ED060E802
:1000E20075D001C023D016C0002D112D222D332D25
:1000F200D6F714D0C1F340E83427F5CF082D192DD7
:100102002A2D3B2D4C2D5D2D6E2D33235AF755D0C4
:0601120060E8E8CF08954B
:0E0054001ED221F0662309F0AFD098940895D3
:0E055400C3DF1CF00024039401C000240895AE
:10053C00992779E004C0991F941708F0941B001FA9
:08054C007A95C9F700950895A6
:1011E20060E070E09101A10100C0F90100810032CC
:1011F20021F4B62FB72B09F40AC061E070E0F901BF
:101202000081FA0100838A010F5F1F4FA801F901D3
:1012120089010F5F1F4F98010081003031F7810172
:0212220008952D
:100EEA00CF93DF93CDB7DEB72497CDBFDEBF219670
:100EFA006F927F92288239824A825B8200915002E5
:100F0A00002351F05F924F923F922F92D8D12F90A7
:100F1A003F904F905F90F2CF5F924F923F922F9205
:100F2A00B2E96B2EB5E07B2EB5E54B2EB2E05B2E17
:100F3A002880398094DCBDE04B2E2880398034D259
:100F4A002F903F904F905F90B0E0B0934F02B0E087
:100F5A00B0935202B1E0B093500200919205109101
:100F6A00930520919405309195050093810510937E
:100F7A0082052093830530938405B0E0B0938A05F7
:100F8A00B0938B05B0938C05B0938D05B1E0B09307
:100F9A005B0200915002002351F05F924F923F9200
:100FAA002F928DD12F903F904F905F90F2CFB0E06B
:100FBA00B0935B025F924F923F922F92BAE14B2E0F
:100FCA002A803B80F1D12F903F904F905F90B0E004
:100FDA00B0934F02B0E0B0935202B1E0B093500226
:100FEA0000919205109193052091940530919505F1
:100FFA00009381051093820520938305309384051D
:10100A00B0E0B0938A05B0938B05B0938C05B0938A
:10101A008D05B1E0B0935B027F906F902396CDBFB0
:08102A00DEBFDF91CF910895B4
:1021F000A0E6B0E0E8EBFEE18AED91E00E94A100EC
:0222000008953F
:101E84000F920F931F932F933F93EF93FF93BF935F
:101E9400BFB7BF932F926EDB202E07DC2F90BF912C
:101EA400BFBFBF91FF91EF913F912F911F910F9170
:041EB4000F901895DE
:0C157800E0914402F091450209950895AD
:040EDC000CB10895B8
:0A14A0000BB0002707FC0395089528
:0A14AA000BB0002706FC039508951F
:1016AE00B0E0B0934F02B0E0B0935202B1E0B0930D
:1016BE005002B0E0B0938505B0938605B0938705D0
:1016CE00B0938805B1E0B09351022091530230914E
:1016DE0054020091590210915A02F801E20FF31FC1
:1016EE0020820091590210915A020F5F1F4F0093F2
:0816FE00590210935A020895ED
:101E4C000F931F932F933F934F935F936F937F93B6
:101E5C00EF93FF93BF93BFB7BF938EDBBF91BFBF11
:101E6C00BF91FF91EF917F916F915F914F913F9156
:081E7C002F911F910F911895A1
:1015840000915B02002309F445C040918A05509103
:101594008B0560918C0570918D0500918A051091E1
:1015A4008B0520918C0530918D050F5F1F4F2F4FB8
:1015B4003F4F00938A0510938B0520938C0530933D
:1015C4008D0500918105109182052091830530914C
:1015D40084050417150726073707E0F4B0E0B09335
:1015E4005B02B0E0B0938A05B0938B05B0938C0591
:1015F400B0938D0520915302309154020091590209
:1016040010915A02F801E20FF31FB0E0B083B1E089
:10161400B0934F0200915102002309F445C0409158
:101624008505509186056091870570918805009124
:1016340085051091860520918705309188050F5FF7
:101644001F4F2F4F3F4F009385051093860520931E
:1016540087053093880500918E0510918F052091A0
:101664009005309191050417150726073707E0F414
:10167400B0E0B0935102B0E0B0938505B093860515
:10168400B0938705B093880520915302309154029A
:101694000091590210915A02F801E20FF31FB0E0D1
:0A16A400B083B1E0B0935202089544
:091EB80041542B434D47533D00FA
:0F1EC10054656D7065726174757265203A20000A
:081ED00041542B434C43430035
:041ED8004154480029
:101EDC000D0A536B797769726520496E6974696173
:081EEC006C697A65640D0A00BF
:041EF40000000000EA
:031EF80020430084
:061EFB002B434C434300A1
:031F010041540048
:101F04000D0A5F5F5F5F5F5F5F5F5F5F5F5F5F5F84
:101F14005F5F5F5F5F5F5F5F5F5F5F5F5F5F5F5FCD
:101F24005F0D0A2053797374656D20496E69746975
:091F3400616C697A65640D0A0014
:101F3D000000000000000000000000000000000094
:101F4D000000000000000000000000000000000084
:101F5D000000000000000000000000000000000074
:101F6D000000000000000000000000000000000064
:101F7D000000000000000000000000000000000054
:101F8D000000000000000000000000000000000044
:101F9D000000000000000000000000000000000034
:101FAD000000000000000000000000000000000024
:101FBD000000000000000000000000000000000014
:101FCD000000000000000000000000000000000004
:101FDD0000000000000000000000000000000000F4
:101FED0000000000000000000000000000000000E4
:101FFD0000000000000000000000000000000000D4
:10200D0000000000000000000000000000000000C3
:10201D0000000000000000000000000000000000B3
:10202D0000000000000000000000000000000000A3
:0E203D0041542B435343533D2247534D220041
:0A204B0041542B434D47463D310040
:03205500415400F3
:03205800415400F0
:04205B004E614E0084
:02205F0030004F
:04206100494E46009E
:01206500007A
:10206600000000000000000000000000000000006A
:042076000000000066
:07207A000D0A52494E470018
:0E208100526573706F6E7365203A200D0A0071
:03208F000D0A0037
:0F21E100000000000000000000000000000000EF
:0121CE000010
:0121CF00000F
:0121D000000E
:0121D100000D
:0F21D200000000000000000000000000000000FE
:10209200000000000000000000000000000000003E
:0E20A200000000000000000000000000000030
:1020B0000000000000000000000000000000000020
:0E20C000000000000000000000000000000012
:1020CE000000000000000000000000000000000002
:1020DE0000000000000000000000000000000000F2
:1020EE0000000000000000000000000000000000E2
:1020FE0000000000000000000000000000000000D2
:10210E0000000000000000000000000000000000C1
:10211E0000000000000000000000000000000000B1
:10212E0000000000000000000000000000000000A1
:10213E000000000000000000000000000000000091
:10214E000000000000000000000000000000000081
:10215E000000000000000000000000000000000071
:10216E000000000000000000000000000000000061
:10217E000000000000000000000000000000000051
:10218E000000000000000000000000000000000041
:10219E000000000000000000000000000000000031
:1021AE000000000000000000000000000000000021
:1021BE000000000000000000000000000000000011
:00000001FF
